{
  "contractName": "Election",
  "abi": [
    {
      "inputs": [],
      "payable": false,
      "stateMutability": "nonpayable",
      "type": "constructor"
    },
    {
      "anonymous": false,
      "inputs": [
        {
          "indexed": false,
          "internalType": "uint256",
          "name": "candidateId",
          "type": "uint256"
        }
      ],
      "name": "ApprovedNominationRequest",
      "type": "event"
    },
    {
      "anonymous": false,
      "inputs": [
        {
          "indexed": false,
          "internalType": "uint256",
          "name": "candidateId",
          "type": "uint256"
        },
        {
          "indexed": false,
          "internalType": "string",
          "name": "name",
          "type": "string"
        }
      ],
      "name": "CandidateAddedEvent",
      "type": "event"
    },
    {
      "anonymous": false,
      "inputs": [
        {
          "indexed": false,
          "internalType": "uint256",
          "name": "electionId",
          "type": "uint256"
        },
        {
          "indexed": false,
          "internalType": "string",
          "name": "name",
          "type": "string"
        }
      ],
      "name": "ElectionCreatedEvent",
      "type": "event"
    },
    {
      "anonymous": false,
      "inputs": [
        {
          "indexed": false,
          "internalType": "uint256",
          "name": "electionId",
          "type": "uint256"
        },
        {
          "indexed": false,
          "internalType": "string",
          "name": "name",
          "type": "string"
        }
      ],
      "name": "ElectionEndedEvent",
      "type": "event"
    },
    {
      "anonymous": false,
      "inputs": [
        {
          "indexed": false,
          "internalType": "uint256",
          "name": "uid",
          "type": "uint256"
        },
        {
          "indexed": false,
          "internalType": "string",
          "name": "name",
          "type": "string"
        }
      ],
      "name": "ElectionRemovedEvent",
      "type": "event"
    },
    {
      "anonymous": false,
      "inputs": [
        {
          "indexed": false,
          "internalType": "uint256",
          "name": "uid",
          "type": "uint256"
        },
        {
          "indexed": false,
          "internalType": "string",
          "name": "name",
          "type": "string"
        }
      ],
      "name": "ElectionStartedAcceptingCandidateRequestsEvent",
      "type": "event"
    },
    {
      "anonymous": false,
      "inputs": [
        {
          "indexed": false,
          "internalType": "uint256",
          "name": "electionId",
          "type": "uint256"
        },
        {
          "indexed": false,
          "internalType": "string",
          "name": "name",
          "type": "string"
        }
      ],
      "name": "ElectionStartedEvent",
      "type": "event"
    },
    {
      "anonymous": false,
      "inputs": [
        {
          "indexed": false,
          "internalType": "uint256",
          "name": "requestId",
          "type": "uint256"
        }
      ],
      "name": "NominationRequestEvent",
      "type": "event"
    },
    {
      "anonymous": false,
      "inputs": [
        {
          "indexed": false,
          "internalType": "uint256",
          "name": "uid",
          "type": "uint256"
        },
        {
          "indexed": false,
          "internalType": "uint256",
          "name": "electioId",
          "type": "uint256"
        },
        {
          "indexed": false,
          "internalType": "uint256",
          "name": "requestId",
          "type": "uint256"
        }
      ],
      "name": "UserElectionParticipationRequestedEvent",
      "type": "event"
    },
    {
      "anonymous": false,
      "inputs": [
        {
          "indexed": false,
          "internalType": "address",
          "name": "_address",
          "type": "address"
        },
        {
          "indexed": false,
          "internalType": "uint256",
          "name": "uid",
          "type": "uint256"
        }
      ],
      "name": "UserRegisteredEvent",
      "type": "event"
    },
    {
      "anonymous": false,
      "inputs": [
        {
          "indexed": false,
          "internalType": "uint256",
          "name": "uid",
          "type": "uint256"
        },
        {
          "indexed": false,
          "internalType": "uint256",
          "name": "election",
          "type": "uint256"
        },
        {
          "indexed": false,
          "internalType": "string",
          "name": "message",
          "type": "string"
        }
      ],
      "name": "UserReviewedParticipationRequestEvent",
      "type": "event"
    },
    {
      "anonymous": false,
      "inputs": [
        {
          "indexed": false,
          "internalType": "uint256",
          "name": "uid",
          "type": "uint256"
        },
        {
          "indexed": false,
          "internalType": "bool",
          "name": "status",
          "type": "bool"
        },
        {
          "indexed": false,
          "internalType": "string",
          "name": "reason",
          "type": "string"
        }
      ],
      "name": "UserVerifiedEvent",
      "type": "event"
    },
    {
      "anonymous": false,
      "inputs": [
        {
          "indexed": false,
          "internalType": "address",
          "name": "to",
          "type": "address"
        },
        {
          "indexed": false,
          "internalType": "uint256",
          "name": "uid",
          "type": "uint256"
        }
      ],
      "name": "VotedEvent",
      "type": "event"
    },
    {
      "constant": true,
      "inputs": [
        {
          "internalType": "uint256",
          "name": "",
          "type": "uint256"
        }
      ],
      "name": "allNominationRequests",
      "outputs": [
        {
          "internalType": "uint256",
          "name": "id",
          "type": "uint256"
        },
        {
          "internalType": "address",
          "name": "from",
          "type": "address"
        },
        {
          "internalType": "string",
          "name": "name",
          "type": "string"
        },
        {
          "internalType": "uint256",
          "name": "uid",
          "type": "uint256"
        },
        {
          "internalType": "uint256",
          "name": "electionId",
          "type": "uint256"
        },
        {
          "internalType": "bool",
          "name": "approved",
          "type": "bool"
        }
      ],
      "payable": false,
      "stateMutability": "view",
      "type": "function"
    },
    {
      "constant": true,
      "inputs": [
        {
          "internalType": "address",
          "name": "",
          "type": "address"
        },
        {
          "internalType": "uint256",
          "name": "",
          "type": "uint256"
        }
      ],
      "name": "allowedElections",
      "outputs": [
        {
          "internalType": "uint256",
          "name": "id",
          "type": "uint256"
        },
        {
          "internalType": "string",
          "name": "name",
          "type": "string"
        },
        {
          "internalType": "bool",
          "name": "started",
          "type": "bool"
        },
        {
          "internalType": "bool",
          "name": "ended",
          "type": "bool"
        },
        {
          "internalType": "bool",
          "name": "accept_request",
          "type": "bool"
        },
        {
          "internalType": "bool",
          "name": "removed_election",
          "type": "bool"
        }
      ],
      "payable": false,
      "stateMutability": "view",
      "type": "function"
    },
    {
      "constant": true,
      "inputs": [
        {
          "internalType": "address",
          "name": "",
          "type": "address"
        }
      ],
      "name": "allowedElectionsCount",
      "outputs": [
        {
          "internalType": "uint256",
          "name": "",
          "type": "uint256"
        }
      ],
      "payable": false,
      "stateMutability": "view",
      "type": "function"
    },
    {
      "constant": true,
      "inputs": [
        {
          "internalType": "uint256",
          "name": "",
          "type": "uint256"
        },
        {
          "internalType": "uint256",
          "name": "",
          "type": "uint256"
        }
      ],
      "name": "candidates",
      "outputs": [
        {
          "internalType": "uint256",
          "name": "id",
          "type": "uint256"
        },
        {
          "internalType": "address",
          "name": "candidateAddress",
          "type": "address"
        },
        {
          "internalType": "string",
          "name": "name",
          "type": "string"
        },
        {
          "internalType": "uint256",
          "name": "voteCount",
          "type": "uint256"
        },
        {
          "internalType": "uint256",
          "name": "uid",
          "type": "uint256"
        }
      ],
      "payable": false,
      "stateMutability": "view",
      "type": "function"
    },
    {
      "constant": true,
      "inputs": [],
      "name": "candidatesCount",
      "outputs": [
        {
          "internalType": "uint256",
          "name": "",
          "type": "uint256"
        }
      ],
      "payable": false,
      "stateMutability": "view",
      "type": "function"
    },
    {
      "constant": true,
      "inputs": [],
      "name": "electionCount",
      "outputs": [
        {
          "internalType": "uint256",
          "name": "",
          "type": "uint256"
        }
      ],
      "payable": false,
      "stateMutability": "view",
      "type": "function"
    },
    {
      "constant": true,
      "inputs": [
        {
          "internalType": "uint256",
          "name": "",
          "type": "uint256"
        }
      ],
      "name": "elections",
      "outputs": [
        {
          "internalType": "uint256",
          "name": "id",
          "type": "uint256"
        },
        {
          "internalType": "string",
          "name": "name",
          "type": "string"
        },
        {
          "internalType": "bool",
          "name": "started",
          "type": "bool"
        },
        {
          "internalType": "bool",
          "name": "ended",
          "type": "bool"
        },
        {
          "internalType": "bool",
          "name": "accept_request",
          "type": "bool"
        },
        {
          "internalType": "bool",
          "name": "removed_election",
          "type": "bool"
        }
      ],
      "payable": false,
      "stateMutability": "view",
      "type": "function"
    },
    {
      "constant": true,
      "inputs": [],
      "name": "nominationRequestCount",
      "outputs": [
        {
          "internalType": "uint256",
          "name": "",
          "type": "uint256"
        }
      ],
      "payable": false,
      "stateMutability": "view",
      "type": "function"
    },
    {
      "constant": true,
      "inputs": [
        {
          "internalType": "address",
          "name": "",
          "type": "address"
        },
        {
          "internalType": "uint256",
          "name": "",
          "type": "uint256"
        }
      ],
      "name": "nominationRequests",
      "outputs": [
        {
          "internalType": "uint256",
          "name": "id",
          "type": "uint256"
        },
        {
          "internalType": "address",
          "name": "from",
          "type": "address"
        },
        {
          "internalType": "string",
          "name": "name",
          "type": "string"
        },
        {
          "internalType": "uint256",
          "name": "uid",
          "type": "uint256"
        },
        {
          "internalType": "uint256",
          "name": "electionId",
          "type": "uint256"
        },
        {
          "internalType": "bool",
          "name": "approved",
          "type": "bool"
        }
      ],
      "payable": false,
      "stateMutability": "view",
      "type": "function"
    },
    {
      "constant": true,
      "inputs": [
        {
          "internalType": "uint256",
          "name": "",
          "type": "uint256"
        }
      ],
      "name": "numberOfCandidates",
      "outputs": [
        {
          "internalType": "uint256",
          "name": "",
          "type": "uint256"
        }
      ],
      "payable": false,
      "stateMutability": "view",
      "type": "function"
    },
    {
      "constant": true,
      "inputs": [
        {
          "internalType": "address",
          "name": "",
          "type": "address"
        }
      ],
      "name": "numberOfNominationRequests",
      "outputs": [
        {
          "internalType": "uint256",
          "name": "",
          "type": "uint256"
        }
      ],
      "payable": false,
      "stateMutability": "view",
      "type": "function"
    },
    {
      "constant": true,
      "inputs": [
        {
          "internalType": "uint256",
          "name": "",
          "type": "uint256"
        }
      ],
      "name": "userParticipationRequests",
      "outputs": [
        {
          "internalType": "uint256",
          "name": "uid",
          "type": "uint256"
        },
        {
          "internalType": "uint256",
          "name": "electionId",
          "type": "uint256"
        },
        {
          "internalType": "bool",
          "name": "accepted",
          "type": "bool"
        },
        {
          "internalType": "bool",
          "name": "rejected",
          "type": "bool"
        },
        {
          "internalType": "string",
          "name": "text",
          "type": "string"
        }
      ],
      "payable": false,
      "stateMutability": "view",
      "type": "function"
    },
    {
      "constant": true,
      "inputs": [
        {
          "internalType": "uint256",
          "name": "",
          "type": "uint256"
        }
      ],
      "name": "userVerificationRequests",
      "outputs": [
        {
          "internalType": "uint256",
          "name": "uid",
          "type": "uint256"
        },
        {
          "internalType": "address",
          "name": "_address",
          "type": "address"
        },
        {
          "internalType": "string",
          "name": "name",
          "type": "string"
        },
        {
          "internalType": "bool",
          "name": "verified",
          "type": "bool"
        },
        {
          "internalType": "bool",
          "name": "rejected",
          "type": "bool"
        }
      ],
      "payable": false,
      "stateMutability": "view",
      "type": "function"
    },
    {
      "constant": true,
      "inputs": [
        {
          "internalType": "address",
          "name": "",
          "type": "address"
        }
      ],
      "name": "users",
      "outputs": [
        {
          "internalType": "uint256",
          "name": "uid",
          "type": "uint256"
        },
        {
          "internalType": "address",
          "name": "_address",
          "type": "address"
        },
        {
          "internalType": "string",
          "name": "name",
          "type": "string"
        }
      ],
      "payable": false,
      "stateMutability": "view",
      "type": "function"
    },
    {
      "constant": true,
      "inputs": [
        {
          "internalType": "address",
          "name": "",
          "type": "address"
        }
      ],
      "name": "verified",
      "outputs": [
        {
          "internalType": "bool",
          "name": "",
          "type": "bool"
        }
      ],
      "payable": false,
      "stateMutability": "view",
      "type": "function"
    },
    {
      "constant": true,
      "inputs": [],
      "name": "getUserParticipationRequests",
      "outputs": [
        {
          "internalType": "uint256[]",
          "name": "",
          "type": "uint256[]"
        }
      ],
      "payable": false,
      "stateMutability": "view",
      "type": "function"
    },
    {
      "constant": true,
      "inputs": [],
      "name": "getUserVerificationRequests",
      "outputs": [
        {
          "internalType": "uint256[]",
          "name": "",
          "type": "uint256[]"
        }
      ],
      "payable": false,
      "stateMutability": "view",
      "type": "function"
    },
    {
      "constant": false,
      "inputs": [
        {
          "internalType": "string",
          "name": "_name",
          "type": "string"
        }
      ],
      "name": "registerUser",
      "outputs": [],
      "payable": false,
      "stateMutability": "nonpayable",
      "type": "function"
    },
    {
      "constant": false,
      "inputs": [
        {
          "internalType": "address",
          "name": "user",
          "type": "address"
        },
        {
          "internalType": "uint256",
          "name": "uid",
          "type": "uint256"
        },
        {
          "internalType": "bool",
          "name": "status",
          "type": "bool"
        },
        {
          "internalType": "string",
          "name": "status_text",
          "type": "string"
        }
      ],
      "name": "verifyUser",
      "outputs": [],
      "payable": false,
      "stateMutability": "nonpayable",
      "type": "function"
    },
    {
      "constant": false,
      "inputs": [
        {
          "internalType": "uint256",
          "name": "uid",
          "type": "uint256"
        },
        {
          "internalType": "uint256",
          "name": "electionId",
          "type": "uint256"
        }
      ],
      "name": "requestToParticipate",
      "outputs": [],
      "payable": false,
      "stateMutability": "nonpayable",
      "type": "function"
    },
    {
      "constant": false,
      "inputs": [
        {
          "internalType": "address",
          "name": "user",
          "type": "address"
        },
        {
          "internalType": "uint256",
          "name": "uid",
          "type": "uint256"
        },
        {
          "internalType": "uint256",
          "name": "electionId",
          "type": "uint256"
        }
      ],
      "name": "approveToVote",
      "outputs": [],
      "payable": false,
      "stateMutability": "nonpayable",
      "type": "function"
    },
    {
      "constant": false,
      "inputs": [
        {
          "internalType": "uint256",
          "name": "electionId",
          "type": "uint256"
        }
      ],
      "name": "startElection",
      "outputs": [],
      "payable": false,
      "stateMutability": "nonpayable",
      "type": "function"
    },
    {
      "constant": false,
      "inputs": [
        {
          "internalType": "uint256",
          "name": "electionId",
          "type": "uint256"
        }
      ],
      "name": "endElection",
      "outputs": [],
      "payable": false,
      "stateMutability": "nonpayable",
      "type": "function"
    },
    {
      "constant": false,
      "inputs": [
        {
          "internalType": "uint256",
          "name": "electionId",
          "type": "uint256"
        }
      ],
      "name": "removeElection",
      "outputs": [],
      "payable": false,
      "stateMutability": "nonpayable",
      "type": "function"
    },
    {
      "constant": false,
      "inputs": [
        {
          "internalType": "uint256",
          "name": "electionId",
          "type": "uint256"
        }
      ],
      "name": "startAcceptingNominationRequests",
      "outputs": [],
      "payable": false,
      "stateMutability": "nonpayable",
      "type": "function"
    },
    {
      "constant": false,
      "inputs": [
        {
          "internalType": "string",
          "name": "name",
          "type": "string"
        }
      ],
      "name": "addElectionEntity",
      "outputs": [],
      "payable": false,
      "stateMutability": "nonpayable",
      "type": "function"
    },
    {
      "constant": false,
      "inputs": [
        {
          "internalType": "uint256",
          "name": "electionId",
          "type": "uint256"
        },
        {
          "internalType": "uint256",
          "name": "uid",
          "type": "uint256"
        },
        {
          "internalType": "string",
          "name": "name",
          "type": "string"
        }
      ],
      "name": "sendNominationRequest",
      "outputs": [],
      "payable": false,
      "stateMutability": "nonpayable",
      "type": "function"
    },
    {
      "constant": false,
      "inputs": [
        {
          "internalType": "uint256",
          "name": "id",
          "type": "uint256"
        }
      ],
      "name": "approveNominationRequest",
      "outputs": [],
      "payable": false,
      "stateMutability": "nonpayable",
      "type": "function"
    },
    {
      "constant": false,
      "inputs": [
        {
          "internalType": "uint256",
          "name": "uid",
          "type": "uint256"
        },
        {
          "internalType": "uint256",
          "name": "electionId",
          "type": "uint256"
        },
        {
          "internalType": "uint256",
          "name": "candidateId",
          "type": "uint256"
        },
        {
          "internalType": "address",
          "name": "candidateAddress",
          "type": "address"
        }
      ],
      "name": "vote",
      "outputs": [],
      "payable": false,
      "stateMutability": "nonpayable",
      "type": "function"
    }
  ],
  "bytecode": "0x60806040526000600155600060025560006003556000600455600060055534801561002957600080fd5b50336000806101000a81548173ffffffffffffffffffffffffffffffffffffffff021916908373ffffffffffffffffffffffffffffffffffffffff1602179055506158b7806200007a6000396000f3fe608060405234801561001057600080fd5b50600436106101ce5760003560e01c8063704f1b9411610104578063b4347a46116100a2578063d7809e7011610071578063d7809e7014610f02578063d7ce122e14610f30578063e7746b031461102a578063fdb5f3fb14611089576101ce565b8063b4347a4614610cab578063bb6c1c1914610da2578063bc91f04314610e9c578063c830b8cc14610ed4576101ce565b8063997d2830116100de578063997d283014610aad5780639c98bcbb14610acb5780639e21887514610af9578063a87430ba14610bb4576101ce565b8063704f1b94146108975780637de14242146109525780638a917c8714610a4b576101ce565b80632d35a8a2116101715780635e6fef011161014b5780635e6fef01146106705780636ae9d7da1461074a5780636becabb5146107785780636d32dc4b14610869576101ce565b80632d35a8a2146105b857806355065289146105d65780635e1e339b1461062e576101ce565b806318f9dcf5116101ad57806318f9dcf5146103185780631d1a2884146104325780631e365fb11461048a57806328f97e73146104e9576101ce565b806223986c146101d35780630754f41d146101f15780630db065f4146102bc575b600080fd5b6101db6110e1565b6040518082815260200191505060405180910390f35b61021d6004803603602081101561020757600080fd5b81019080803590602001909291905050506110e7565b60405180868152602001858152602001841515151581526020018315151515815260200180602001828103825283818151815260200191508051906020019080838360005b8381101561027d578082015181840152602081019050610262565b50505050905090810190601f1680156102aa5780820380516001836020036101000a031916815260200191505b50965050505050505060405180910390f35b6102fe600480360360208110156102d257600080fd5b81019080803573ffffffffffffffffffffffffffffffffffffffff1690602001909291905050506111cf565b604051808215151515815260200191505060405180910390f35b6103646004803603604081101561032e57600080fd5b81019080803573ffffffffffffffffffffffffffffffffffffffff169060200190929190803590602001909291905050506111ef565b604051808781526020018673ffffffffffffffffffffffffffffffffffffffff1673ffffffffffffffffffffffffffffffffffffffff1681526020018060200185815260200184815260200183151515158152602001828103825286818151815260200191508051906020019080838360005b838110156103f25780820151818401526020810190506103d7565b50505050905090810190601f16801561041f5780820380516001836020036101000a031916815260200191505b5097505050505050505060405180910390f35b6104746004803603602081101561044857600080fd5b81019080803573ffffffffffffffffffffffffffffffffffffffff16906020019092919050505061130a565b6040518082815260200191505060405180910390f35b610492611322565b6040518080602001828103825283818151815260200191508051906020019060200280838360005b838110156104d55780820151818401526020810190506104ba565b505050509050019250505060405180910390f35b6105b6600480360360608110156104ff57600080fd5b8101908080359060200190929190803590602001909291908035906020019064010000000081111561053057600080fd5b82018360208201111561054257600080fd5b8035906020019184600183028401116401000000008311171561056457600080fd5b91908080601f016020809104026020016040519081016040528093929190818152602001838380828437600081840152601f19601f8201169050808301925050505050505091929192905050506114a8565b005b6105c0611ba6565b6040518082815260200191505060405180910390f35b610618600480360360208110156105ec57600080fd5b81019080803573ffffffffffffffffffffffffffffffffffffffff169060200190929190505050611bac565b6040518082815260200191505060405180910390f35b61065a6004803603602081101561064457600080fd5b8101908080359060200190929190505050611bc4565b6040518082815260200191505060405180910390f35b61069c6004803603602081101561068657600080fd5b8101908080359060200190929190505050611bdc565b604051808781526020018060200186151515158152602001851515151581526020018415151515815260200183151515158152602001828103825287818151815260200191508051906020019080838360005b8381101561070a5780820151818401526020810190506106ef565b50505050905090810190601f1680156107375780820380516001836020036101000a031916815260200191505b5097505050505050505060405180910390f35b6107766004803603602081101561076057600080fd5b8101908080359060200190929190505050611ce4565b005b6108676004803603608081101561078e57600080fd5b81019080803573ffffffffffffffffffffffffffffffffffffffff16906020019092919080359060200190929190803515159060200190929190803590602001906401000000008111156107e157600080fd5b8201836020820111156107f357600080fd5b8035906020019184600183028401116401000000008311171561081557600080fd5b91908080601f016020809104026020016040519081016040528093929190818152602001838380828437600081840152601f19601f8201169050808301925050505050505091929192905050506121bb565b005b6108956004803603602081101561087f57600080fd5b810190808035906020019092919050505061282f565b005b610950600480360360208110156108ad57600080fd5b81019080803590602001906401000000008111156108ca57600080fd5b8201836020820111156108dc57600080fd5b803590602001918460018302840111640100000000831117156108fe57600080fd5b91908080601f016020809104026020016040519081016040528093929190818152602001838380828437600081840152601f19601f820116905080830192505050505050509192919290505050612c11565b005b6109886004803603604081101561096857600080fd5b810190808035906020019092919080359060200190929190505050612ee4565b604051808681526020018573ffffffffffffffffffffffffffffffffffffffff1673ffffffffffffffffffffffffffffffffffffffff16815260200180602001848152602001838152602001828103825285818151815260200191508051906020019080838360005b83811015610a0c5780820151818401526020810190506109f1565b50505050905090810190601f168015610a395780820380516001836020036101000a031916815260200191505b50965050505050505060405180910390f35b610aab60048036036080811015610a6157600080fd5b81019080803590602001909291908035906020019092919080359060200190929190803573ffffffffffffffffffffffffffffffffffffffff169060200190929190505050612fdf565b005b610ab5613761565b6040518082815260200191505060405180910390f35b610af760048036036020811015610ae157600080fd5b8101908080359060200190929190505050613767565b005b610bb260048036036020811015610b0f57600080fd5b8101908080359060200190640100000000811115610b2c57600080fd5b820183602082011115610b3e57600080fd5b80359060200191846001830284011164010000000083111715610b6057600080fd5b91908080601f016020809104026020016040519081016040528093929190818152602001838380828437600081840152601f19601f820116905080830192505050505050509192919290505050613b65565b005b610bf660048036036020811015610bca57600080fd5b81019080803573ffffffffffffffffffffffffffffffffffffffff169060200190929190505050613dbf565b604051808481526020018373ffffffffffffffffffffffffffffffffffffffff1673ffffffffffffffffffffffffffffffffffffffff16815260200180602001828103825283818151815260200191508051906020019080838360005b83811015610c6e578082015181840152602081019050610c53565b50505050905090810190601f168015610c9b5780820380516001836020036101000a031916815260200191505b5094505050505060405180910390f35b610cd760048036036020811015610cc157600080fd5b8101908080359060200190929190505050613ea1565b604051808681526020018573ffffffffffffffffffffffffffffffffffffffff1673ffffffffffffffffffffffffffffffffffffffff168152602001806020018415151515815260200183151515158152602001828103825285818151815260200191508051906020019080838360005b83811015610d63578082015181840152602081019050610d48565b50505050905090810190601f168015610d905780820380516001836020036101000a031916815260200191505b50965050505050505060405180910390f35b610dce60048036036020811015610db857600080fd5b8101908080359060200190929190505050613fa9565b604051808781526020018673ffffffffffffffffffffffffffffffffffffffff1673ffffffffffffffffffffffffffffffffffffffff1681526020018060200185815260200184815260200183151515158152602001828103825286818151815260200191508051906020019080838360005b83811015610e5c578082015181840152602081019050610e41565b50505050905090810190601f168015610e895780820380516001836020036101000a031916815260200191505b5097505050505050505060405180910390f35b610ed260048036036040811015610eb257600080fd5b8101908080359060200190929190803590602001909291905050506140aa565b005b610f0060048036036020811015610eea57600080fd5b8101908080359060200190929190505050614635565b005b610f2e60048036036020811015610f1857600080fd5b8101908080359060200190929190505050614906565b005b610f7c60048036036040811015610f4657600080fd5b81019080803573ffffffffffffffffffffffffffffffffffffffff16906020019092919080359060200190929190505050614c6e565b604051808781526020018060200186151515158152602001851515151581526020018415151515815260200183151515158152602001828103825287818151815260200191508051906020019080838360005b83811015610fea578082015181840152602081019050610fcf565b50505050905090810190601f1680156110175780820380516001836020036101000a031916815260200191505b5097505050505050505060405180910390f35b611032614d83565b6040518080602001828103825283818151815260200191508051906020019060200280838360005b8381101561107557808201518184015260208101905061105a565b505050509050019250505060405180910390f35b6110df6004803603606081101561109f57600080fd5b81019080803573ffffffffffffffffffffffffffffffffffffffff1690602001909291908035906020019092919080359060200190929190505050614ed6565b005b60035481565b600b6020528060005260406000206000915090508060000154908060010154908060020160009054906101000a900460ff16908060020160019054906101000a900460ff1690806003018054600181600116156101000203166002900480601f0160208091040260200160405190810160405280929190818152602001828054600181600116156101000203166002900480156111c55780601f1061119a576101008083540402835291602001916111c5565b820191906000526020600020905b8154815290600101906020018083116111a857829003601f168201915b5050505050905085565b60096020528060005260406000206000915054906101000a900460ff1681565b6011602052816000526040600020818154811061120857fe5b9060005260206000209060060201600091509150508060000154908060010160009054906101000a900473ffffffffffffffffffffffffffffffffffffffff1690806002018054600181600116156101000203166002900480601f0160208091040260200160405190810160405280929190818152602001828054600181600116156101000203166002900480156112e15780601f106112b6576101008083540402835291602001916112e1565b820191906000526020600020905b8154815290600101906020018083116112c457829003601f168201915b5050505050908060030154908060040154908060050160009054906101000a900460ff16905086565b60126020528060005260406000206000915090505481565b60606000809054906101000a900473ffffffffffffffffffffffffffffffffffffffff1673ffffffffffffffffffffffffffffffffffffffff163373ffffffffffffffffffffffffffffffffffffffff16146113c9576040517f08c379a00000000000000000000000000000000000000000000000000000000081526004018080602001828103825260258152602001806157a96025913960400191505060405180910390fd5b60006005549050606060006040519080825280602002602001820160405280156114025781602001602082028038833980820191505090505b50905060008090506000600190505b83811161149e57600b600082815260200190815260200160002060020160009054906101000a900460ff1615801561146a5750600b600082815260200190815260200160002060020160019054906101000a900460ff16155b15611491578083838151811061147c57fe5b60200260200101818152505081806001019250505b8080600101915050611411565b5081935050505090565b6000600c6000858152602001908152602001600020600001541415611535576040517f08c379a00000000000000000000000000000000000000000000000000000000081526004018080602001828103825260158152602001807f456c656374696f6e20646f65736e74206578697374000000000000000000000081525060200191505060405180910390fd5b600c600084815260200190815260200160002060020160039054906101000a900460ff16156115cc576040517f08c379a00000000000000000000000000000000000000000000000000000000081526004018080602001828103825260148152602001807f456c656374696f6e207761732072656d6f76656400000000000000000000000081525060200191505060405180910390fd5b600c600084815260200190815260200160002060020160029054906101000a900460ff16611645576040517f08c379a000000000000000000000000000000000000000000000000000000000815260040180806020018281038252602c81526020018061582f602c913960400191505060405180910390fd5b6060601160003373ffffffffffffffffffffffffffffffffffffffff1673ffffffffffffffffffffffffffffffffffffffff168152602001908152602001600020805480602002602001604051908101604052809291908181526020016000905b8282101561180957838290600052602060002090600602016040518060c0016040529081600082015481526020016001820160009054906101000a900473ffffffffffffffffffffffffffffffffffffffff1673ffffffffffffffffffffffffffffffffffffffff1673ffffffffffffffffffffffffffffffffffffffff168152602001600282018054600181600116156101000203166002900480601f0160208091040260200160405190810160405280929190818152602001828054600181600116156101000203166002900480156117c25780601f10611797576101008083540402835291602001916117c2565b820191906000526020600020905b8154815290600101906020018083116117a557829003601f168201915b5050505050815260200160038201548152602001600482015481526020016005820160009054906101000a900460ff161515151581525050815260200190600101906116a6565b50505050905060006001905060008090505b8251811015611855578583828151811061183157fe5b602002602001015160800151141561184857600091505b808060010191505061181b565b50806118ac576040517f08c379a00000000000000000000000000000000000000000000000000000000081526004018080602001828103825260318152602001806157ce6031913960400191505060405180910390fd5b600360008154809291906001019190505550601160003373ffffffffffffffffffffffffffffffffffffffff1673ffffffffffffffffffffffffffffffffffffffff1681526020019081526020016000206040518060c0016040528060035481526020013373ffffffffffffffffffffffffffffffffffffffff16815260200185815260200186815260200187815260200160001515815250908060018154018082558091505090600182039060005260206000209060060201600090919290919091506000820151816000015560208201518160010160006101000a81548173ffffffffffffffffffffffffffffffffffffffff021916908373ffffffffffffffffffffffffffffffffffffffff16021790555060408201518160020190805190602001906119dd9291906155c1565b50606082015181600301556080820151816004015560a08201518160050160006101000a81548160ff0219169083151502179055505050506040518060c0016040528060035481526020013373ffffffffffffffffffffffffffffffffffffffff168152602001848152602001858152602001868152602001600015158152506013600060035481526020019081526020016000206000820151816000015560208201518160010160006101000a81548173ffffffffffffffffffffffffffffffffffffffff021916908373ffffffffffffffffffffffffffffffffffffffff1602179055506040820151816002019080519060200190611adf9291906155c1565b50606082015181600301556080820151816004015560a08201518160050160006101000a81548160ff021916908315150217905550905050601260003373ffffffffffffffffffffffffffffffffffffffff1673ffffffffffffffffffffffffffffffffffffffff168152602001908152602001600020600081548092919060010191905055507fa8514747b38cba9dc0442f74d180b9c2c31b7ce52c29247edfe45f038df194196003546040518082815260200191505060405180910390a15050505050565b60025481565b600e6020528060005260406000206000915090505481565b60106020528060005260406000206000915090505481565b600c602052806000526040600020600091509050806000015490806001018054600181600116156101000203166002900480601f016020809104026020016040519081016040528092919081815260200182805460018160011615610100020316600290048015611c8e5780601f10611c6357610100808354040283529160200191611c8e565b820191906000526020600020905b815481529060010190602001808311611c7157829003601f168201915b5050505050908060020160009054906101000a900460ff16908060020160019054906101000a900460ff16908060020160029054906101000a900460ff16908060020160039054906101000a900460ff16905086565b6000809054906101000a900473ffffffffffffffffffffffffffffffffffffffff1673ffffffffffffffffffffffffffffffffffffffff163373ffffffffffffffffffffffffffffffffffffffff1614611d89576040517f08c379a00000000000000000000000000000000000000000000000000000000081526004018080602001828103825260258152602001806157a96025913960400191505060405180910390fd5b600060136000838152602001908152602001600020600001541415611e16576040517f08c379a00000000000000000000000000000000000000000000000000000000081526004018080602001828103825260118152602001807f52657175657374204e6f7420666f756e6400000000000000000000000000000081525060200191505060405180910390fd5b6013600082815260200190815260200160002060050160009054906101000a900460ff1615611ead576040517f08c379a00000000000000000000000000000000000000000000000000000000081526004018080602001828103825260188152602001807f416c726561647920617070726f7665642072657175657374000000000000000081525060200191505060405180910390fd5b611eb5615641565b601360008381526020019081526020016000206040518060c0016040529081600082015481526020016001820160009054906101000a900473ffffffffffffffffffffffffffffffffffffffff1673ffffffffffffffffffffffffffffffffffffffff1673ffffffffffffffffffffffffffffffffffffffff168152602001600282018054600181600116156101000203166002900480601f016020809104026020016040519081016040528092919081815260200182805460018160011615610100020316600290048015611fcc5780601f10611fa157610100808354040283529160200191611fcc565b820191906000526020600020905b815481529060010190602001808311611faf57829003601f168201915b5050505050815260200160038201548152602001600482015481526020016005820160009054906101000a900460ff161515151581525050905060016013600084815260200190815260200160002060050160006101000a81548160ff0219169083151502179055506002600081548092919060010191905055506010600082608001518152602001908152602001600020600081548092919060010191905055506040518060a001604052806002548152602001826020015173ffffffffffffffffffffffffffffffffffffffff16815260200182604001518152602001600081526020018260600151815250600f600083608001518152602001908152602001600020600060106000856080015181526020019081526020016000205481526020019081526020016000206000820151816000015560208201518160010160006101000a81548173ffffffffffffffffffffffffffffffffffffffff021916908373ffffffffffffffffffffffffffffffffffffffff16021790555060408201518160020190805190602001906121669291906155c1565b5060608201518160030155608082015181600401559050507fef937b0a81db81bfbc4a8d8206281360f14b9b20b355111cc414c81c2793fb8b6002546040518082815260200191505060405180910390a15050565b6000809054906101000a900473ffffffffffffffffffffffffffffffffffffffff1673ffffffffffffffffffffffffffffffffffffffff163373ffffffffffffffffffffffffffffffffffffffff1614612260576040517f08c379a00000000000000000000000000000000000000000000000000000000081526004018080602001828103825260258152602001806157a96025913960400191505060405180910390fd5b6007600084815260200190815260200160002060009054906101000a900460ff166122f3576040517f08c379a00000000000000000000000000000000000000000000000000000000081526004018080602001828103825260128152602001807f554944204e6f742072656769737465726564000000000000000000000000000081525060200191505060405180910390fd5b8373ffffffffffffffffffffffffffffffffffffffff16600a600085815260200190815260200160002060010160009054906101000a900473ffffffffffffffffffffffffffffffffffffffff1673ffffffffffffffffffffffffffffffffffffffff16146123ad576040517f08c379a00000000000000000000000000000000000000000000000000000000081526004018080602001828103825260308152602001806157ff6030913960400191505060405180910390fd5b600960008573ffffffffffffffffffffffffffffffffffffffff1673ffffffffffffffffffffffffffffffffffffffff16815260200190815260200160002060009054906101000a900460ff161561246d576040517f08c379a00000000000000000000000000000000000000000000000000000000081526004018080602001828103825260108152602001807f416c72656164792076657269666965640000000000000000000000000000000081525060200191505060405180910390fd5b61247561568f565b600a60008581526020019081526020016000206040518060a0016040529081600082015481526020016001820160009054906101000a900473ffffffffffffffffffffffffffffffffffffffff1673ffffffffffffffffffffffffffffffffffffffff1673ffffffffffffffffffffffffffffffffffffffff168152602001600282018054600181600116156101000203166002900480601f01602080910402602001604051908101604052809291908181526020018280546001816001161561010002031660029004801561258c5780601f106125615761010080835404028352916020019161258c565b820191906000526020600020905b81548152906001019060200180831161256f57829003601f168201915b505050505081526020016003820160009054906101000a900460ff161515151581526020016003820160019054906101000a900460ff161515151581525050905060405180606001604052808581526020018673ffffffffffffffffffffffffffffffffffffffff168152602001826040015181525060066000836020015173ffffffffffffffffffffffffffffffffffffffff1673ffffffffffffffffffffffffffffffffffffffff1681526020019081526020016000206000820151816000015560208201518160010160006101000a81548173ffffffffffffffffffffffffffffffffffffffff021916908373ffffffffffffffffffffffffffffffffffffffff16021790555060408201518160020190805190602001906126b29291906155c1565b509050508215612748576001600960008773ffffffffffffffffffffffffffffffffffffffff1673ffffffffffffffffffffffffffffffffffffffff16815260200190815260200160002060006101000a81548160ff0219169083151502179055506001600a600086815260200190815260200160002060030160006101000a81548160ff021916908315150217905550612778565b6001600a600086815260200190815260200160002060030160016101000a81548160ff0219169083151502179055505b7f289986f95a9b002985e8347f39d9a8f6cc51d3543d47633fa63be6760bc7ca4b848484604051808481526020018315151515815260200180602001828103825283818151815260200191508051906020019080838360005b838110156127ec5780820151818401526020810190506127d1565b50505050905090810190601f1680156128195780820380516001836020036101000a031916815260200191505b5094505050505060405180910390a15050505050565b6000809054906101000a900473ffffffffffffffffffffffffffffffffffffffff1673ffffffffffffffffffffffffffffffffffffffff163373ffffffffffffffffffffffffffffffffffffffff16146128d4576040517f08c379a00000000000000000000000000000000000000000000000000000000081526004018080602001828103825260258152602001806157a96025913960400191505060405180910390fd5b6000600c6000838152602001908152602001600020600001541415612961576040517f08c379a00000000000000000000000000000000000000000000000000000000081526004018080602001828103825260128152602001807f456c656374696f6e206e6f7420666f756e64000000000000000000000000000081525060200191505060405180910390fd5b600c600082815260200190815260200160002060020160039054906101000a900460ff16156129f8576040517f08c379a00000000000000000000000000000000000000000000000000000000081526004018080602001828103825260148152602001807f456c656374696f6e207761732072656d6f76656400000000000000000000000081525060200191505060405180910390fd5b600c600082815260200190815260200160002060020160009054906101000a900460ff1615612a8f576040517f08c379a00000000000000000000000000000000000000000000000000000000081526004018080602001828103825260188152602001807f456c656374696f6e20616c72656164792073746172746564000000000000000081525060200191505060405180910390fd5b600c600082815260200190815260200160002060020160019054906101000a900460ff1615612b09576040517f08c379a000000000000000000000000000000000000000000000000000000000815260040180806020018281038252602881526020018061585b6028913960400191505060405180910390fd5b6001600c600083815260200190815260200160002060020160006101000a81548160ff0219169083151502179055507fd2c0c5a8fe57337b66417ed92d063a896fc55420f93e372fc76ee1b833c8a79981600c60008481526020019081526020016000206001016040518083815260200180602001828103825283818154600181600116156101000203166002900481526020019150805460018160011615610100020316600290048015612bff5780601f10612bd457610100808354040283529160200191612bff565b820191906000526020600020905b815481529060010190602001808311612be257829003601f168201915b5050935050505060405180910390a150565b600860003373ffffffffffffffffffffffffffffffffffffffff1673ffffffffffffffffffffffffffffffffffffffff16815260200190815260200160002060009054906101000a900460ff1615612cd1576040517f08c379a00000000000000000000000000000000000000000000000000000000081526004018080602001828103825260148152602001807f4164647265737320416c7265616479205573656400000000000000000000000081525060200191505060405180910390fd5b600460008154809291906001019190505550600060045490506040518060a001604052808281526020013373ffffffffffffffffffffffffffffffffffffffff16815260200183815260200160001515815260200160001515815250600a60008381526020019081526020016000206000820151816000015560208201518160010160006101000a81548173ffffffffffffffffffffffffffffffffffffffff021916908373ffffffffffffffffffffffffffffffffffffffff1602179055506040820151816002019080519060200190612dad9291906155c1565b5060608201518160030160006101000a81548160ff02191690831515021790555060808201518160030160016101000a81548160ff02191690831515021790555090505060016007600083815260200190815260200160002060006101000a81548160ff0219169083151502179055506001600860003373ffffffffffffffffffffffffffffffffffffffff1673ffffffffffffffffffffffffffffffffffffffff16815260200190815260200160002060006101000a81548160ff0219169083151502179055507f05e5ad337fd2842c7cc5ef486d8b3b6459aba9dd56fd8f7f9737c9c71ac9eefa3382604051808373ffffffffffffffffffffffffffffffffffffffff1673ffffffffffffffffffffffffffffffffffffffff1681526020018281526020019250505060405180910390a15050565b600f602052816000526040600020602052806000526040600020600091509150508060000154908060010160009054906101000a900473ffffffffffffffffffffffffffffffffffffffff1690806002018054600181600116156101000203166002900480601f016020809104026020016040519081016040528092919081815260200182805460018160011615610100020316600290048015612fc95780601f10612f9e57610100808354040283529160200191612fc9565b820191906000526020600020905b815481529060010190602001808311612fac57829003601f168201915b5050505050908060030154908060040154905085565b6007600085815260200190815260200160002060009054906101000a900460ff16613072576040517f08c379a00000000000000000000000000000000000000000000000000000000081526004018080602001828103825260128152602001807f554944204e6f742072656769737465726564000000000000000000000000000081525060200191505060405180910390fd5b83600660003373ffffffffffffffffffffffffffffffffffffffff1673ffffffffffffffffffffffffffffffffffffffff1681526020019081526020016000206000015414613129576040517f08c379a00000000000000000000000000000000000000000000000000000000081526004018080602001828103825260138152602001807f41646472657373204d6973736d6174636865640000000000000000000000000081525060200191505060405180910390fd5b6000600c60008581526020019081526020016000206000015414156131b6576040517f08c379a000000000000000000000000000000000000000000000000000000000815260040180806020018281038252601b8152602001807f456c656374696f6e456e7469747920646f65736e74206578697374000000000081525060200191505060405180910390fd5b600c600084815260200190815260200160002060020160039054906101000a900460ff161561324d576040517f08c379a00000000000000000000000000000000000000000000000000000000081526004018080602001828103825260148152602001807f456c656374696f6e207761732072656d6f76656400000000000000000000000081525060200191505060405180910390fd5b600960003373ffffffffffffffffffffffffffffffffffffffff1673ffffffffffffffffffffffffffffffffffffffff16815260200190815260200160002060009054906101000a900460ff1661330c576040517f08c379a00000000000000000000000000000000000000000000000000000000081526004018080602001828103825260148152602001807f55736572206973206e6f7420766572696669656400000000000000000000000081525060200191505060405180910390fd5b600080905060008090505b600e60003373ffffffffffffffffffffffffffffffffffffffff1673ffffffffffffffffffffffffffffffffffffffff1681526020019081526020016000205481116133ca5784600d60003373ffffffffffffffffffffffffffffffffffffffff1673ffffffffffffffffffffffffffffffffffffffff16815260200190815260200160002060008381526020019081526020016000206000015414156133bd57600191505b8080600101915050613317565b5080613421576040517f08c379a00000000000000000000000000000000000000000000000000000000081526004018080602001828103825260248152602001806157856024913960400191505060405180910390fd5b601460003373ffffffffffffffffffffffffffffffffffffffff1673ffffffffffffffffffffffffffffffffffffffff168152602001908152602001600020600085815260200190815260200160002060009054906101000a900460ff16156134f2576040517f08c379a000000000000000000000000000000000000000000000000000000000815260040180806020018281038252600d8152602001807f416c726561647920766f7465640000000000000000000000000000000000000081525060200191505060405180910390fd5b60009050600080600090505b601060008781526020019081526020016000205481116135da5784600f60008881526020019081526020016000206000838152602001908152602001600020600001541480156135c057508373ffffffffffffffffffffffffffffffffffffffff16600f6000888152602001908152602001600020600083815260200190815260200160002060010160009054906101000a900473ffffffffffffffffffffffffffffffffffffffff1673ffffffffffffffffffffffffffffffffffffffff16145b156135cd57600192508091505b80806001019150506134fe565b508161364e576040517f08c379a00000000000000000000000000000000000000000000000000000000081526004018080602001828103825260198152602001807f496e76616c69642043616e6469646174652044657461696c730000000000000081525060200191505060405180910390fd5b600f60008681526020019081526020016000206000828152602001908152602001600020600301600081548092919060010191905055506001601460003373ffffffffffffffffffffffffffffffffffffffff1673ffffffffffffffffffffffffffffffffffffffff168152602001908152602001600020600087815260200190815260200160002060006101000a81548160ff0219169083151502179055507f0902475a854b82199b4f5d6b81327ec4c4ec077ce0356a106ddc2748c5285ed38385604051808373ffffffffffffffffffffffffffffffffffffffff1673ffffffffffffffffffffffffffffffffffffffff1681526020018281526020019250505060405180910390a1505050505050565b60015481565b6000809054906101000a900473ffffffffffffffffffffffffffffffffffffffff1673ffffffffffffffffffffffffffffffffffffffff163373ffffffffffffffffffffffffffffffffffffffff161461380c576040517f08c379a00000000000000000000000000000000000000000000000000000000081526004018080602001828103825260258152602001806157a96025913960400191505060405180910390fd5b6000600c6000838152602001908152602001600020600001541415613899576040517f08c379a00000000000000000000000000000000000000000000000000000000081526004018080602001828103825260128152602001807f456c656374696f6e206e6f7420666f756e64000000000000000000000000000081525060200191505060405180910390fd5b600c600082815260200190815260200160002060020160039054906101000a900460ff1615613930576040517f08c379a00000000000000000000000000000000000000000000000000000000081526004018080602001828103825260148152602001807f456c656374696f6e207761732072656d6f76656400000000000000000000000081525060200191505060405180910390fd5b600c600082815260200190815260200160002060020160009054906101000a900460ff166139c6576040517f08c379a00000000000000000000000000000000000000000000000000000000081526004018080602001828103825260148152602001807f456c656374696f6e206e6f74207374617274656400000000000000000000000081525060200191505060405180910390fd5b600c600082815260200190815260200160002060020160019054906101000a900460ff1615613a5d576040517f08c379a00000000000000000000000000000000000000000000000000000000081526004018080602001828103825260158152602001807f54686520656c656374696f6e20697320656e646564000000000000000000000081525060200191505060405180910390fd5b6001600c600083815260200190815260200160002060020160016101000a81548160ff0219169083151502179055507f9b1325b050f60ddb53a1d430c8ae3cdf20d7bf880dd40ef603cd6a8fe5c6da0781600c60008481526020019081526020016000206001016040518083815260200180602001828103825283818154600181600116156101000203166002900481526020019150805460018160011615610100020316600290048015613b535780601f10613b2857610100808354040283529160200191613b53565b820191906000526020600020905b815481529060010190602001808311613b3657829003601f168201915b5050935050505060405180910390a150565b6000809054906101000a900473ffffffffffffffffffffffffffffffffffffffff1673ffffffffffffffffffffffffffffffffffffffff163373ffffffffffffffffffffffffffffffffffffffff1614613c0a576040517f08c379a00000000000000000000000000000000000000000000000000000000081526004018080602001828103825260258152602001806157a96025913960400191505060405180910390fd5b6001600081548092919060010191905055506040518060c00160405280600154815260200182815260200160001515815260200160001515815260200160001515815260200160001515815250600c60006001548152602001908152602001600020600082015181600001556020820151816001019080519060200190613c929291906155c1565b5060408201518160020160006101000a81548160ff02191690831515021790555060608201518160020160016101000a81548160ff02191690831515021790555060808201518160020160026101000a81548160ff02191690831515021790555060a08201518160020160036101000a81548160ff0219169083151502179055509050507f9d9d7b3c7fd391851f6b4b01ddcdb521bfca4fe5edbf21b0ea3e6ca9350af75c600154826040518083815260200180602001828103825283818151815260200191508051906020019080838360005b83811015613d81578082015181840152602081019050613d66565b50505050905090810190601f168015613dae5780820380516001836020036101000a031916815260200191505b50935050505060405180910390a150565b60066020528060005260406000206000915090508060000154908060010160009054906101000a900473ffffffffffffffffffffffffffffffffffffffff1690806002018054600181600116156101000203166002900480601f016020809104026020016040519081016040528092919081815260200182805460018160011615610100020316600290048015613e975780601f10613e6c57610100808354040283529160200191613e97565b820191906000526020600020905b815481529060010190602001808311613e7a57829003601f168201915b5050505050905083565b600a6020528060005260406000206000915090508060000154908060010160009054906101000a900473ffffffffffffffffffffffffffffffffffffffff1690806002018054600181600116156101000203166002900480601f016020809104026020016040519081016040528092919081815260200182805460018160011615610100020316600290048015613f795780601f10613f4e57610100808354040283529160200191613f79565b820191906000526020600020905b815481529060010190602001808311613f5c57829003601f168201915b5050505050908060030160009054906101000a900460ff16908060030160019054906101000a900460ff16905085565b60136020528060005260406000206000915090508060000154908060010160009054906101000a900473ffffffffffffffffffffffffffffffffffffffff1690806002018054600181600116156101000203166002900480601f0160208091040260200160405190810160405280929190818152602001828054600181600116156101000203166002900480156140815780601f1061405657610100808354040283529160200191614081565b820191906000526020600020905b81548152906001019060200180831161406457829003601f168201915b5050505050908060030154908060040154908060050160009054906101000a900460ff16905086565b6007600083815260200190815260200160002060009054906101000a900460ff1661413d576040517f08c379a00000000000000000000000000000000000000000000000000000000081526004018080602001828103825260128152602001807f554944204e6f742072656769737465726564000000000000000000000000000081525060200191505060405180910390fd5b81600660003373ffffffffffffffffffffffffffffffffffffffff1673ffffffffffffffffffffffffffffffffffffffff16815260200190815260200160002060000154146141f4576040517f08c379a00000000000000000000000000000000000000000000000000000000081526004018080602001828103825260138152602001807f41646472657373204d6973736d6174636865640000000000000000000000000081525060200191505060405180910390fd5b6000600c6000838152602001908152602001600020600001541415614281576040517f08c379a000000000000000000000000000000000000000000000000000000000815260040180806020018281038252601b8152602001807f456c656374696f6e456e7469747920646f65736e74206578697374000000000081525060200191505060405180910390fd5b600c600082815260200190815260200160002060020160039054906101000a900460ff1615614318576040517f08c379a00000000000000000000000000000000000000000000000000000000081526004018080602001828103825260148152602001807f456c656374696f6e207761732072656d6f76656400000000000000000000000081525060200191505060405180910390fd5b600960003373ffffffffffffffffffffffffffffffffffffffff1673ffffffffffffffffffffffffffffffffffffffff16815260200190815260200160002060009054906101000a900460ff166143d7576040517f08c379a00000000000000000000000000000000000000000000000000000000081526004018080602001828103825260148152602001807f55736572206973206e6f7420766572696669656400000000000000000000000081525060200191505060405180910390fd5b6000600190506000600e60003373ffffffffffffffffffffffffffffffffffffffff1673ffffffffffffffffffffffffffffffffffffffff16815260200190815260200160002054905060008090505b81811161449b5783600d60003373ffffffffffffffffffffffffffffffffffffffff1673ffffffffffffffffffffffffffffffffffffffff168152602001908152602001600020600083815260200190815260200160002060000154141561448e57600092505b8080600101915050614427565b508161450f576040517f08c379a000000000000000000000000000000000000000000000000000000000815260040180806020018281038252600f8152602001807f416c726561647920616c6c6f776564000000000000000000000000000000000081525060200191505060405180910390fd5b6005600081548092919060010191905055506040518060a0016040528085815260200184815260200160001515815260200160001515815260200160405180602001604052806000815250815250600b60006005548152602001908152602001600020600082015181600001556020820151816001015560408201518160020160006101000a81548160ff02191690831515021790555060608201518160020160016101000a81548160ff02191690831515021790555060808201518160030190805190602001906145e29291906155c1565b509050507fb48208b16394ccc94d4580454bc679b3b6f60760e143bea7bb898bee5b84d9e3848460055460405180848152602001838152602001828152602001935050505060405180910390a150505050565b6000809054906101000a900473ffffffffffffffffffffffffffffffffffffffff1673ffffffffffffffffffffffffffffffffffffffff163373ffffffffffffffffffffffffffffffffffffffff16146146da576040517f08c379a00000000000000000000000000000000000000000000000000000000081526004018080602001828103825260258152602001806157a96025913960400191505060405180910390fd5b6000600c6000838152602001908152602001600020600001541415614767576040517f08c379a00000000000000000000000000000000000000000000000000000000081526004018080602001828103825260128152602001807f456c656374696f6e206e6f7420666f756e64000000000000000000000000000081525060200191505060405180910390fd5b600c600082815260200190815260200160002060020160039054906101000a900460ff16156147fe576040517f08c379a00000000000000000000000000000000000000000000000000000000081526004018080602001828103825260188152602001807f456c656374696f6e20616c72656164792072656d6f766564000000000000000081525060200191505060405180910390fd5b6001600c600083815260200190815260200160002060020160036101000a81548160ff0219169083151502179055507f07baf0f71b59dfab136de1486a01273d380d5ab6c0af92e6c30a8dea00accdc281600c600084815260200190815260200160002060010160405180838152602001806020018281038252838181546001816001161561010002031660029004815260200191508054600181600116156101000203166002900480156148f45780601f106148c9576101008083540402835291602001916148f4565b820191906000526020600020905b8154815290600101906020018083116148d757829003601f168201915b5050935050505060405180910390a150565b6000809054906101000a900473ffffffffffffffffffffffffffffffffffffffff1673ffffffffffffffffffffffffffffffffffffffff163373ffffffffffffffffffffffffffffffffffffffff16146149ab576040517f08c379a00000000000000000000000000000000000000000000000000000000081526004018080602001828103825260258152602001806157a96025913960400191505060405180910390fd5b6000600c6000838152602001908152602001600020600001541415614a38576040517f08c379a00000000000000000000000000000000000000000000000000000000081526004018080602001828103825260128152602001807f456c656374696f6e206e6f7420666f756e64000000000000000000000000000081525060200191505060405180910390fd5b600c600082815260200190815260200160002060020160039054906101000a900460ff1615614acf576040517f08c379a00000000000000000000000000000000000000000000000000000000081526004018080602001828103825260148152602001807f456c656374696f6e207761732072656d6f76656400000000000000000000000081525060200191505060405180910390fd5b600c600082815260200190815260200160002060020160019054906101000a900460ff1615614b66576040517f08c379a00000000000000000000000000000000000000000000000000000000081526004018080602001828103825260128152602001807f456c656374696f6e2077617320656e646564000000000000000000000000000081525060200191505060405180910390fd5b6001600c600083815260200190815260200160002060020160026101000a81548160ff0219169083151502179055507f46d44c7ab42effb5a4d3831d4228b5d082305f0fe7e75aeb9820bb69f75af78681600c60008481526020019081526020016000206001016040518083815260200180602001828103825283818154600181600116156101000203166002900481526020019150805460018160011615610100020316600290048015614c5c5780601f10614c3157610100808354040283529160200191614c5c565b820191906000526020600020905b815481529060010190602001808311614c3f57829003601f168201915b5050935050505060405180910390a150565b600d60205281600052604060002060205280600052604060002060009150915050806000015490806001018054600181600116156101000203166002900480601f016020809104026020016040519081016040528092919081815260200182805460018160011615610100020316600290048015614d2d5780601f10614d0257610100808354040283529160200191614d2d565b820191906000526020600020905b815481529060010190602001808311614d1057829003601f168201915b5050505050908060020160009054906101000a900460ff16908060020160019054906101000a900460ff16908060020160029054906101000a900460ff16908060020160039054906101000a900460ff16905086565b60606000809054906101000a900473ffffffffffffffffffffffffffffffffffffffff1673ffffffffffffffffffffffffffffffffffffffff163373ffffffffffffffffffffffffffffffffffffffff1614614e2a576040517f08c379a00000000000000000000000000000000000000000000000000000000081526004018080602001828103825260258152602001806157a96025913960400191505060405180910390fd5b60006004549050606060008090506000600190505b838111614ecc57600a600082815260200190815260200160002060030160009054906101000a900460ff16158015614e985750600a600082815260200190815260200160002060030160019054906101000a900460ff16155b15614ebf5780838381518110614eaa57fe5b60200260200101818152505081806001019250505b8080600101915050614e3f565b5081935050505090565b6000809054906101000a900473ffffffffffffffffffffffffffffffffffffffff1673ffffffffffffffffffffffffffffffffffffffff163373ffffffffffffffffffffffffffffffffffffffff1614614f7b576040517f08c379a00000000000000000000000000000000000000000000000000000000081526004018080602001828103825260258152602001806157a96025913960400191505060405180910390fd5b6007600083815260200190815260200160002060009054906101000a900460ff1661500e576040517f08c379a00000000000000000000000000000000000000000000000000000000081526004018080602001828103825260128152602001807f554944204e6f742072656769737465726564000000000000000000000000000081525060200191505060405180910390fd5b81600660008573ffffffffffffffffffffffffffffffffffffffff1673ffffffffffffffffffffffffffffffffffffffff16815260200190815260200160002060000154146150c5576040517f08c379a00000000000000000000000000000000000000000000000000000000081526004018080602001828103825260138152602001807f41646472657373204d6973736d6174636865640000000000000000000000000081525060200191505060405180910390fd5b6000600c6000838152602001908152602001600020600001541415615152576040517f08c379a000000000000000000000000000000000000000000000000000000000815260040180806020018281038252601b8152602001807f456c656374696f6e456e7469747920646f65736e74206578697374000000000081525060200191505060405180910390fd5b600c600082815260200190815260200160002060020160039054906101000a900460ff16156151e9576040517f08c379a00000000000000000000000000000000000000000000000000000000081526004018080602001828103825260148152602001807f456c656374696f6e207761732072656d6f76656400000000000000000000000081525060200191505060405180910390fd5b600960008473ffffffffffffffffffffffffffffffffffffffff1673ffffffffffffffffffffffffffffffffffffffff16815260200190815260200160002060009054906101000a900460ff166152a8576040517f08c379a00000000000000000000000000000000000000000000000000000000081526004018080602001828103825260148152602001807f55736572206973206e6f7420766572696669656400000000000000000000000081525060200191505060405180910390fd5b6000600190506000600e60008673ffffffffffffffffffffffffffffffffffffffff1673ffffffffffffffffffffffffffffffffffffffff16815260200190815260200160002054905060008090505b81811161536c5783600d60008873ffffffffffffffffffffffffffffffffffffffff1673ffffffffffffffffffffffffffffffffffffffff168152602001908152602001600020600083815260200190815260200160002060000154141561535f57600092505b80806001019150506152f8565b50816153e0576040517f08c379a000000000000000000000000000000000000000000000000000000000815260040180806020018281038252600f8152602001807f416c726561647920616c6c6f776564000000000000000000000000000000000081525060200191505060405180910390fd5b600e60008673ffffffffffffffffffffffffffffffffffffffff1673ffffffffffffffffffffffffffffffffffffffff16815260200190815260200160002060008154809291906001019190505550600c6000848152602001908152602001600020600d60008773ffffffffffffffffffffffffffffffffffffffff1673ffffffffffffffffffffffffffffffffffffffff1681526020019081526020016000206000600e60008973ffffffffffffffffffffffffffffffffffffffff1673ffffffffffffffffffffffffffffffffffffffff16815260200190815260200160002054815260200190815260200160002060008201548160000155600182018160010190805460018160011615610100020316600290046155029291906156d8565b506002820160009054906101000a900460ff168160020160006101000a81548160ff0219169083151502179055506002820160019054906101000a900460ff168160020160016101000a81548160ff0219169083151502179055506002820160029054906101000a900460ff168160020160026101000a81548160ff0219169083151502179055506002820160039054906101000a900460ff168160020160036101000a81548160ff0219169083151502179055509050505050505050565b828054600181600116156101000203166002900490600052602060002090601f016020900481019282601f1061560257805160ff1916838001178555615630565b82800160010185558215615630579182015b8281111561562f578251825591602001919060010190615614565b5b50905061563d919061575f565b5090565b6040518060c0016040528060008152602001600073ffffffffffffffffffffffffffffffffffffffff1681526020016060815260200160008152602001600081526020016000151581525090565b6040518060a0016040528060008152602001600073ffffffffffffffffffffffffffffffffffffffff168152602001606081526020016000151581526020016000151581525090565b828054600181600116156101000203166002900490600052602060002090601f016020900481019282601f10615711578054855561574e565b8280016001018555821561574e57600052602060002091601f016020900482015b8281111561574d578254825591600101919060010190615732565b5b50905061575b919061575f565b5090565b61578191905b8082111561577d576000816000905550600101615765565b5090565b9056fe4e6f7420616c6c6f77656420746f20766f746520696e207468697320656c656374696f6e4f6e6c792061646d696e2063616e20706572666f726d2074686973206f7065726174696f6e416c72656164792072657175657374656420746f20706172746963697061746520696e207468617420656c656374696f6e55736572206e6f742072656769737465726564206f72207468652061646472657373206973206d69736d6174636865644e6f74207374617274656420616363657074696e672070617274696369706174696f6e20726571756573747354686520656c656374696f6e20697320656e6465642c207472792072657374617274696e67206974a265627a7a72315820a0899fde2b99656ec06efa9495712a5d9f1b3cd0167f14e5e76196b52506b24264736f6c63430005100032",
  "source": "// SPDX-License-Identifier: SEE LICENSE IN LICENSE\npragma solidity ^0.5.16;\n\ncontract Election {\n    constructor() public {\n        admin = msg.sender; // Deployer is the admin\n    }\n\n    // VARIABLES\n    address admin;\n    uint public electionCount = 0;\n    uint public candidatesCount = 0;\n    uint public nominationRequestCount = 0;\n    uint private userCount = 0;\n    uint private userParticipationRequestCount = 0;\n    // STRUCTURES\n\n    // Candidate Structure\n    struct Candidate {\n        uint id;\n        address candidateAddress;\n        string name;\n        uint voteCount;\n        uint uid;\n    }\n    // Election Candidate Participation Request\n    struct NominationRequest {\n        uint id;\n        address from;\n        string name;\n        uint uid;\n        uint electionId;\n        bool approved;\n    }\n    // An Entity of election structure\n    struct ElectionEntity {\n        uint id;\n        string name;\n        bool started;\n        bool ended;\n        bool accept_request;\n        bool removed_election;\n    }\n    // User structure\n    struct User {\n        uint uid;\n        address _address;\n        string name;\n    }\n    // User Registration Request\n    struct UserVerificationRequest {\n        uint uid;\n        address _address;\n        string name;\n        bool verified;\n        bool rejected;\n    }\n    // User Election Participation Request\n    struct UserElectionParticipationRequest {\n        uint uid;\n        uint electionId;\n        bool accepted;\n        bool rejected;\n        string text;\n    }\n\n    // EVENTS\n\n    // Event : USER Registered\n    event UserRegisteredEvent(address _address, uint uid);\n    event ElectionCreatedEvent(uint electionId, string name);\n    event CandidateAddedEvent(uint candidateId, string name);\n    event NominationRequestEvent(uint requestId);\n    event ApprovedNominationRequest(uint candidateId);\n    event VotedEvent(address to, uint uid);\n    event UserVerifiedEvent(uint uid, bool status, string reason);\n    event ElectionStartedEvent(uint electionId, string name);\n    event ElectionEndedEvent(uint electionId, string name);\n    event ElectionStartedAcceptingCandidateRequestsEvent(uint uid, string name);\n    event ElectionRemovedEvent(uint uid, string name);\n    event UserElectionParticipationRequestedEvent(\n        uint uid,\n        uint electioId,\n        uint requestId\n    );\n    event UserReviewedParticipationRequestEvent(\n        uint uid,\n        uint election,\n        string message\n    );\n\n    // MAPPINGS\n\n    // User related\n    mapping(address => User) public users; // get user by the address\n    mapping(uint => bool) private isRegistered; // userId and all registered users\n    mapping(address => bool) private isAddressUsed; // for checking if an address is already registered\n    mapping(address => bool) public verified; // for checking if a user is verified\n    mapping(uint => UserVerificationRequest) public userVerificationRequests; // The requestes from users to register, waiting for verification\n    mapping(uint => UserElectionParticipationRequest)\n        public userParticipationRequests;\n    // Election related\n    mapping(uint => ElectionEntity) public elections; // All Election Entities\n    mapping(address => mapping(uint => ElectionEntity)) public allowedElections; // Get allowed election to vote of a voter\n    mapping(address => uint) public allowedElectionsCount; // No of allowed elections to vote of a user\n    // Candidate related\n    mapping(uint => mapping(uint => Candidate)) public candidates; // Candidates in an election entity\n    mapping(uint => uint) public numberOfCandidates; // The number of candidates in an election entity\n    mapping(address => NominationRequest[]) public nominationRequests; // All participation requests of a person\n    mapping(address => uint) public numberOfNominationRequests; // The number of participation requests by a person\n    mapping(uint => NominationRequest) public allNominationRequests; // All participation request\n    // Voting related\n    mapping(address => mapping(uint => bool)) isVoted;\n\n    // MODIFIERS\n\n    modifier onlyAdmin() {\n        require(msg.sender == admin, \"Only admin can perform this operation\");\n        _;\n    }\n\n    // FUNCTIONS\n\n    //Function to get user participation requestes\n    function getUserParticipationRequests()\n        public\n        view\n        onlyAdmin\n        returns (uint[] memory)\n    {\n        uint count = userParticipationRequestCount;\n        uint[] memory req = new uint[](0);\n        uint c = 0;\n        for (uint i = 1; i <= count; i++) {\n            if (\n                !userParticipationRequests[i].accepted &&\n                !userParticipationRequests[i].rejected\n            ) {\n                req[c] = i;\n                c++;\n            }\n        }\n        return req;\n    }\n\n    // Function to get the unverified users\n    function getUserVerificationRequests()\n        public\n        view\n        onlyAdmin\n        returns (uint[] memory)\n    {\n        uint count = userCount;\n        uint[] memory req;\n        uint c = 0;\n        for (uint i = 1; i <= count; i++) {\n            if (\n                !userVerificationRequests[i].verified &&\n                !userVerificationRequests[i].rejected\n            ) {\n                req[c] = i;\n                c++;\n            }\n        }\n        return req;\n    }\n\n    // Function to register  user\n    function registerUser(string memory _name) public {\n        // require(!isRegistered[uid], \"Already registered\"); // The uid is not registered\n        require(!isAddressUsed[msg.sender], \"Address Already Used\"); // The address is not used\n        userCount++;\n        uint uid = userCount;\n        userVerificationRequests[uid] = UserVerificationRequest(\n            uid,\n            msg.sender,\n            _name,\n            false,\n            false\n        );\n        isRegistered[uid] = true;\n        isAddressUsed[msg.sender] = true;\n        emit UserRegisteredEvent(msg.sender, uid);\n    }\n\n    // verify a user\n    function verifyUser(\n        address user,\n        uint uid,\n        bool status,\n        string memory status_text\n    ) public onlyAdmin {\n        require(isRegistered[uid], \"UID Not registered\");\n        require(\n            userVerificationRequests[uid]._address == user,\n            \"User not registered or the address is mismatched\"\n        );\n        require(!verified[user], \"Already verified\");\n\n        UserVerificationRequest memory request = userVerificationRequests[uid];\n        users[request._address] = User(uid, user, request.name);\n        if (status) {\n            verified[user] = true;\n            userVerificationRequests[uid].verified = true;\n        } else {\n            userVerificationRequests[uid].rejected = true;\n        }\n        emit UserVerifiedEvent(uid, status, status_text);\n    }\n\n    function requestToParticipate(uint uid, uint electionId) public {\n        require(isRegistered[uid], \"UID Not registered\");\n        require(users[msg.sender].uid == uid, \"Address Missmatched\");\n        require(elections[electionId].id != 0, \"ElectionEntity doesnt exist\");\n        require(\n            !elections[electionId].removed_election,\n            \"Election was removed\"\n        );\n        require(verified[msg.sender], \"User is not verified\");\n        bool tmp = true;\n        uint count = allowedElectionsCount[msg.sender];\n        for (uint i = 0; i <= count; i++) {\n            if (allowedElections[msg.sender][i].id == electionId) {\n                tmp = false;\n            }\n        }\n        require(tmp, \"Already allowed\");\n\n        userParticipationRequestCount++;\n        userParticipationRequests[\n            userParticipationRequestCount\n        ] = UserElectionParticipationRequest(uid, electionId, false, false, \"\");\n        emit UserElectionParticipationRequestedEvent(\n            uid,\n            electionId,\n            userParticipationRequestCount\n        );\n    }\n\n    // approve a user to vote on a perticular election\n    function approveToVote(\n        address user,\n        uint uid,\n        uint electionId\n    ) public onlyAdmin {\n        require(isRegistered[uid], \"UID Not registered\");\n        require(users[user].uid == uid, \"Address Missmatched\");\n        require(elections[electionId].id != 0, \"ElectionEntity doesnt exist\");\n        require(\n            !elections[electionId].removed_election,\n            \"Election was removed\"\n        );\n        require(verified[user], \"User is not verified\");\n\n        bool tmp = true;\n        uint count = allowedElectionsCount[user];\n        for (uint i = 0; i <= count; i++) {\n            if (allowedElections[user][i].id == electionId) {\n                tmp = false;\n            }\n        }\n        require(tmp, \"Already allowed\");\n\n        allowedElectionsCount[user]++;\n        allowedElections[user][allowedElectionsCount[user]] = elections[\n            electionId\n        ];\n    }\n\n    // Function to start an election\n    function startElection(uint electionId) public onlyAdmin {\n        require(elections[electionId].id != 0, \"Election not found\");\n        require(\n            !elections[electionId].removed_election,\n            \"Election was removed\"\n        );\n        require(!elections[electionId].started, \"Election already started\");\n        require(\n            !elections[electionId].ended,\n            \"The election is ended, try restarting it\"\n        );\n\n        elections[electionId].started = true;\n        emit ElectionStartedEvent(electionId, elections[electionId].name);\n    }\n\n    // Function to end an election\n    function endElection(uint electionId) public onlyAdmin {\n        require(elections[electionId].id != 0, \"Election not found\");\n        require(\n            !elections[electionId].removed_election,\n            \"Election was removed\"\n        );\n        require(elections[electionId].started, \"Election not started\");\n        require(!elections[electionId].ended, \"The election is ended\");\n\n        elections[electionId].ended = true;\n        emit ElectionEndedEvent(electionId, elections[electionId].name);\n    }\n\n    // Function to remove an election\n    function removeElection(uint electionId) public onlyAdmin {\n        require(elections[electionId].id != 0, \"Election not found\");\n        require(\n            !elections[electionId].removed_election,\n            \"Election already removed\"\n        );\n\n        elections[electionId].removed_election = true;\n        emit ElectionRemovedEvent(electionId, elections[electionId].name);\n    }\n\n    // Function to start accepting candidate requests for an election\n    function startAcceptingNominationRequests(\n        uint electionId\n    ) public onlyAdmin {\n        require(elections[electionId].id != 0, \"Election not found\");\n        require(\n            !elections[electionId].removed_election,\n            \"Election was removed\"\n        );\n        require(!elections[electionId].ended, \"Election was ended\");\n\n        elections[electionId].accept_request = true;\n        emit ElectionStartedAcceptingCandidateRequestsEvent(\n            electionId,\n            elections[electionId].name\n        );\n    }\n\n    // add an election\n    function addElectionEntity(string memory name) public onlyAdmin {\n        electionCount++;\n        elections[electionCount] = ElectionEntity(\n            electionCount,\n            name,\n            false,\n            false,\n            false,\n            false\n        );\n        emit ElectionCreatedEvent(electionCount, name);\n    }\n\n    // Function to request to participate in an election\n    function sendNominationRequest(\n        uint electionId,\n        uint uid,\n        string memory name\n    ) public {\n        require(elections[electionId].id != 0, \"Election doesnt exist\");\n        require(\n            !elections[electionId].removed_election,\n            \"Election was removed\"\n        );\n        require(\n            elections[electionId].accept_request,\n            \"Not started accepting participation requests\"\n        );\n        // Check if already requested\n        NominationRequest[] memory requests = nominationRequests[msg.sender];\n        bool tmp = true;\n        for (uint256 i = 0; i < requests.length; i++) {\n            if (requests[i].electionId == electionId) {\n                tmp = false;\n            }\n        }\n        require(tmp, \"Already requested to participate in that election\");\n        nominationRequestCount++;\n        nominationRequests[msg.sender].push(\n            NominationRequest(\n                nominationRequestCount,\n                msg.sender,\n                name,\n                uid,\n                electionId,\n                false\n            )\n        );\n        allNominationRequests[nominationRequestCount] = NominationRequest(\n            nominationRequestCount,\n            msg.sender,\n            name,\n            uid,\n            electionId,\n            false\n        );\n        numberOfNominationRequests[msg.sender]++;\n        emit NominationRequestEvent(nominationRequestCount);\n    }\n\n    // Approve a participation request\n    function approveNominationRequest(uint id) public onlyAdmin {\n        require(allNominationRequests[id].id != 0, \"Request Not found\");\n        require(\n            !allNominationRequests[id].approved,\n            \"Already approved request\"\n        );\n        NominationRequest memory request = allNominationRequests[id];\n        allNominationRequests[id].approved = true;\n        candidatesCount++;\n        numberOfCandidates[request.electionId]++;\n        candidates[request.electionId][\n            numberOfCandidates[request.electionId]\n        ] = Candidate(\n            candidatesCount,\n            request.from,\n            request.name,\n            0,\n            request.uid\n        );\n        emit ApprovedNominationRequest(candidatesCount);\n    }\n\n    // vote\n    function vote(\n        uint uid,\n        uint electionId,\n        uint candidateId,\n        address candidateAddress\n    ) public {\n        require(isRegistered[uid], \"UID Not registered\");\n        require(users[msg.sender].uid == uid, \"Address Missmatched\");\n        require(elections[electionId].id != 0, \"ElectionEntity doesnt exist\");\n        require(\n            !elections[electionId].removed_election,\n            \"Election was removed\"\n        );\n        require(verified[msg.sender], \"User is not verified\");\n\n        bool tmp = false;\n        for (uint i = 0; i <= allowedElectionsCount[msg.sender]; i++) {\n            if (allowedElections[msg.sender][i].id == electionId) {\n                tmp = true;\n            }\n        }\n\n        require(tmp, \"Not allowed to vote in this election\");\n        require(!isVoted[msg.sender][electionId], \"Already voted\");\n\n        tmp = false;\n        uint canId;\n        for (uint i = 0; i <= numberOfCandidates[electionId]; i++) {\n            if (\n                candidates[electionId][i].id == candidateId &&\n                candidates[electionId][i].candidateAddress == candidateAddress\n            ) {\n                tmp = true;\n                canId = i;\n            }\n        }\n        require(tmp, \"Invalid Candidate Details\");\n        candidates[electionId][canId].voteCount++;\n        isVoted[msg.sender][electionId] = true;\n        emit VotedEvent(candidateAddress, candidateId);\n    }\n}\n",
  "sourcePath": "/home/aswanth/Desktop/E-Votting/blockchain/contracts/Election.sol",
  "compiler": {
    "name": "solc",
    "version": "0.5.16+commit.9c3226ce.Emscripten.clang"
  },
  "schemaVersion": "3.4.14",
  "updatedAt": "2023-08-15T14:23:18.468Z",
  "devdoc": {
    "methods": {}
  },
  "userdoc": {
    "methods": {}
  }
}