{
  "contractName": "Election",
  "abi": [
    {
      "inputs": [],
      "payable": false,
      "stateMutability": "nonpayable",
      "type": "constructor"
    },
    {
      "anonymous": false,
      "inputs": [
        {
          "indexed": false,
          "internalType": "uint256",
          "name": "candidateId",
          "type": "uint256"
        }
      ],
      "name": "ApprovedParticipationRequest",
      "type": "event"
    },
    {
      "anonymous": false,
      "inputs": [
        {
          "indexed": false,
          "internalType": "uint256",
          "name": "candidateId",
          "type": "uint256"
        },
        {
          "indexed": false,
          "internalType": "string",
          "name": "name",
          "type": "string"
        }
      ],
      "name": "CandidateAddedEvent",
      "type": "event"
    },
    {
      "anonymous": false,
      "inputs": [
        {
          "indexed": false,
          "internalType": "uint256",
          "name": "electionId",
          "type": "uint256"
        },
        {
          "indexed": false,
          "internalType": "string",
          "name": "name",
          "type": "string"
        }
      ],
      "name": "ElectionCreatedEvent",
      "type": "event"
    },
    {
      "anonymous": false,
      "inputs": [
        {
          "indexed": false,
          "internalType": "uint256",
          "name": "requestId",
          "type": "uint256"
        }
      ],
      "name": "ParticipationRequestEvent",
      "type": "event"
    },
    {
      "anonymous": false,
      "inputs": [
        {
          "indexed": false,
          "internalType": "address",
          "name": "_address",
          "type": "address"
        }
      ],
      "name": "UserRegisteredEvent",
      "type": "event"
    },
    {
      "anonymous": false,
      "inputs": [
        {
          "indexed": false,
          "internalType": "address",
          "name": "to",
          "type": "address"
        },
        {
          "indexed": false,
          "internalType": "uint256",
          "name": "uid",
          "type": "uint256"
        }
      ],
      "name": "VotedEvent",
      "type": "event"
    },
    {
      "constant": true,
      "inputs": [
        {
          "internalType": "uint256",
          "name": "",
          "type": "uint256"
        }
      ],
      "name": "allParticipationRequests",
      "outputs": [
        {
          "internalType": "uint256",
          "name": "id",
          "type": "uint256"
        },
        {
          "internalType": "address",
          "name": "from",
          "type": "address"
        },
        {
          "internalType": "string",
          "name": "name",
          "type": "string"
        },
        {
          "internalType": "uint256",
          "name": "uid",
          "type": "uint256"
        },
        {
          "internalType": "uint256",
          "name": "electionId",
          "type": "uint256"
        },
        {
          "internalType": "bool",
          "name": "approved",
          "type": "bool"
        }
      ],
      "payable": false,
      "stateMutability": "view",
      "type": "function"
    },
    {
      "constant": true,
      "inputs": [
        {
          "internalType": "address",
          "name": "",
          "type": "address"
        },
        {
          "internalType": "uint256",
          "name": "",
          "type": "uint256"
        }
      ],
      "name": "allowedElections",
      "outputs": [
        {
          "internalType": "uint256",
          "name": "id",
          "type": "uint256"
        },
        {
          "internalType": "string",
          "name": "name",
          "type": "string"
        },
        {
          "internalType": "bool",
          "name": "started",
          "type": "bool"
        },
        {
          "internalType": "bool",
          "name": "ended",
          "type": "bool"
        },
        {
          "internalType": "bool",
          "name": "accept_request",
          "type": "bool"
        }
      ],
      "payable": false,
      "stateMutability": "view",
      "type": "function"
    },
    {
      "constant": true,
      "inputs": [
        {
          "internalType": "address",
          "name": "",
          "type": "address"
        }
      ],
      "name": "allowedElectionsCount",
      "outputs": [
        {
          "internalType": "uint256",
          "name": "",
          "type": "uint256"
        }
      ],
      "payable": false,
      "stateMutability": "view",
      "type": "function"
    },
    {
      "constant": true,
      "inputs": [
        {
          "internalType": "uint256",
          "name": "",
          "type": "uint256"
        },
        {
          "internalType": "uint256",
          "name": "",
          "type": "uint256"
        }
      ],
      "name": "candidates",
      "outputs": [
        {
          "internalType": "uint256",
          "name": "id",
          "type": "uint256"
        },
        {
          "internalType": "address",
          "name": "candidateAddress",
          "type": "address"
        },
        {
          "internalType": "string",
          "name": "name",
          "type": "string"
        },
        {
          "internalType": "uint256",
          "name": "voteCount",
          "type": "uint256"
        },
        {
          "internalType": "uint256",
          "name": "uid",
          "type": "uint256"
        }
      ],
      "payable": false,
      "stateMutability": "view",
      "type": "function"
    },
    {
      "constant": true,
      "inputs": [],
      "name": "candidatesCount",
      "outputs": [
        {
          "internalType": "uint256",
          "name": "",
          "type": "uint256"
        }
      ],
      "payable": false,
      "stateMutability": "view",
      "type": "function"
    },
    {
      "constant": true,
      "inputs": [],
      "name": "electionCount",
      "outputs": [
        {
          "internalType": "uint256",
          "name": "",
          "type": "uint256"
        }
      ],
      "payable": false,
      "stateMutability": "view",
      "type": "function"
    },
    {
      "constant": true,
      "inputs": [
        {
          "internalType": "uint256",
          "name": "",
          "type": "uint256"
        }
      ],
      "name": "elections",
      "outputs": [
        {
          "internalType": "uint256",
          "name": "id",
          "type": "uint256"
        },
        {
          "internalType": "string",
          "name": "name",
          "type": "string"
        },
        {
          "internalType": "bool",
          "name": "started",
          "type": "bool"
        },
        {
          "internalType": "bool",
          "name": "ended",
          "type": "bool"
        },
        {
          "internalType": "bool",
          "name": "accept_request",
          "type": "bool"
        }
      ],
      "payable": false,
      "stateMutability": "view",
      "type": "function"
    },
    {
      "constant": true,
      "inputs": [
        {
          "internalType": "uint256",
          "name": "",
          "type": "uint256"
        }
      ],
      "name": "numberOfCandidates",
      "outputs": [
        {
          "internalType": "uint256",
          "name": "",
          "type": "uint256"
        }
      ],
      "payable": false,
      "stateMutability": "view",
      "type": "function"
    },
    {
      "constant": true,
      "inputs": [
        {
          "internalType": "address",
          "name": "",
          "type": "address"
        }
      ],
      "name": "numberOfParticipationRequests",
      "outputs": [
        {
          "internalType": "uint256",
          "name": "",
          "type": "uint256"
        }
      ],
      "payable": false,
      "stateMutability": "view",
      "type": "function"
    },
    {
      "constant": true,
      "inputs": [
        {
          "internalType": "address",
          "name": "",
          "type": "address"
        },
        {
          "internalType": "uint256",
          "name": "",
          "type": "uint256"
        }
      ],
      "name": "participationRequests",
      "outputs": [
        {
          "internalType": "uint256",
          "name": "id",
          "type": "uint256"
        },
        {
          "internalType": "address",
          "name": "from",
          "type": "address"
        },
        {
          "internalType": "string",
          "name": "name",
          "type": "string"
        },
        {
          "internalType": "uint256",
          "name": "uid",
          "type": "uint256"
        },
        {
          "internalType": "uint256",
          "name": "electionId",
          "type": "uint256"
        },
        {
          "internalType": "bool",
          "name": "approved",
          "type": "bool"
        }
      ],
      "payable": false,
      "stateMutability": "view",
      "type": "function"
    },
    {
      "constant": true,
      "inputs": [],
      "name": "requestCount",
      "outputs": [
        {
          "internalType": "uint256",
          "name": "",
          "type": "uint256"
        }
      ],
      "payable": false,
      "stateMutability": "view",
      "type": "function"
    },
    {
      "constant": true,
      "inputs": [
        {
          "internalType": "address",
          "name": "",
          "type": "address"
        }
      ],
      "name": "users",
      "outputs": [
        {
          "internalType": "uint256",
          "name": "uid",
          "type": "uint256"
        },
        {
          "internalType": "address",
          "name": "_address",
          "type": "address"
        },
        {
          "internalType": "string",
          "name": "name",
          "type": "string"
        }
      ],
      "payable": false,
      "stateMutability": "view",
      "type": "function"
    },
    {
      "constant": true,
      "inputs": [
        {
          "internalType": "address",
          "name": "",
          "type": "address"
        }
      ],
      "name": "verified",
      "outputs": [
        {
          "internalType": "bool",
          "name": "",
          "type": "bool"
        }
      ],
      "payable": false,
      "stateMutability": "view",
      "type": "function"
    },
    {
      "constant": false,
      "inputs": [
        {
          "internalType": "uint256",
          "name": "uid",
          "type": "uint256"
        },
        {
          "internalType": "string",
          "name": "_name",
          "type": "string"
        }
      ],
      "name": "registerUser",
      "outputs": [],
      "payable": false,
      "stateMutability": "nonpayable",
      "type": "function"
    },
    {
      "constant": false,
      "inputs": [
        {
          "internalType": "address",
          "name": "user",
          "type": "address"
        },
        {
          "internalType": "uint256",
          "name": "uid",
          "type": "uint256"
        }
      ],
      "name": "verifyUser",
      "outputs": [],
      "payable": false,
      "stateMutability": "nonpayable",
      "type": "function"
    },
    {
      "constant": false,
      "inputs": [
        {
          "internalType": "address",
          "name": "user",
          "type": "address"
        },
        {
          "internalType": "uint256",
          "name": "uid",
          "type": "uint256"
        },
        {
          "internalType": "uint256",
          "name": "electionId",
          "type": "uint256"
        }
      ],
      "name": "approveToVote",
      "outputs": [],
      "payable": false,
      "stateMutability": "nonpayable",
      "type": "function"
    },
    {
      "constant": false,
      "inputs": [
        {
          "internalType": "string",
          "name": "name",
          "type": "string"
        }
      ],
      "name": "addElectionEntity",
      "outputs": [],
      "payable": false,
      "stateMutability": "nonpayable",
      "type": "function"
    },
    {
      "constant": false,
      "inputs": [
        {
          "internalType": "uint256",
          "name": "electionId",
          "type": "uint256"
        },
        {
          "internalType": "uint256",
          "name": "uid",
          "type": "uint256"
        },
        {
          "internalType": "string",
          "name": "name",
          "type": "string"
        }
      ],
      "name": "requestToParticipate",
      "outputs": [],
      "payable": false,
      "stateMutability": "nonpayable",
      "type": "function"
    },
    {
      "constant": false,
      "inputs": [
        {
          "internalType": "uint256",
          "name": "id",
          "type": "uint256"
        }
      ],
      "name": "approveRequest",
      "outputs": [],
      "payable": false,
      "stateMutability": "nonpayable",
      "type": "function"
    },
    {
      "constant": false,
      "inputs": [
        {
          "internalType": "uint256",
          "name": "uid",
          "type": "uint256"
        },
        {
          "internalType": "uint256",
          "name": "electionId",
          "type": "uint256"
        },
        {
          "internalType": "uint256",
          "name": "candidateId",
          "type": "uint256"
        },
        {
          "internalType": "address",
          "name": "candidateAddress",
          "type": "address"
        }
      ],
      "name": "vote",
      "outputs": [],
      "payable": false,
      "stateMutability": "nonpayable",
      "type": "function"
    }
  ],
  "bytecode": "0x608060405260006001556000600255600060035534801561001f57600080fd5b50336000806101000a81548173ffffffffffffffffffffffffffffffffffffffff021916908373ffffffffffffffffffffffffffffffffffffffff1602179055506134778061006f6000396000f3fe608060405234801561001057600080fd5b506004361061012c5760003560e01c80638a917c87116100ad578063d7ce122e11610071578063d7ce122e14610939578063d7d1bbdb14610a28578063e4c99adc14610a56578063f8b776b514610b70578063fdb5f3fb14610bc85761012c565b80638a917c8714610638578063997d28301461069a5780639e218875146106b8578063a87430ba14610773578063cb7510901461086a5761012c565b806355065289116100f457806355065289146103b85780635badbe4c146104105780635e1e339b1461042e5780635e6fef01146104705780637de142421461053f5761012c565b80630db065f4146101315780631c57333e1461018d57806329d2270c146102525780632d35a8a21461034c57806332d345da1461036a575b600080fd5b6101736004803603602081101561014757600080fd5b81019080803573ffffffffffffffffffffffffffffffffffffffff169060200190929190505050610c20565b604051808215151515815260200191505060405180910390f35b610250600480360360408110156101a357600080fd5b8101908080359060200190929190803590602001906401000000008111156101ca57600080fd5b8201836020820111156101dc57600080fd5b803590602001918460018302840111640100000000831117156101fe57600080fd5b91908080601f016020809104026020016040519081016040528093929190818152602001838380828437600081840152601f19601f820116905080830192505050505050509192919290505050610c40565b005b61027e6004803603602081101561026857600080fd5b8101908080359060200190929190505050610f60565b604051808781526020018673ffffffffffffffffffffffffffffffffffffffff1673ffffffffffffffffffffffffffffffffffffffff1681526020018060200185815260200184815260200183151515158152602001828103825286818151815260200191508051906020019080838360005b8381101561030c5780820151818401526020810190506102f1565b50505050905090810190601f1680156103395780820380516001836020036101000a031916815260200191505b5097505050505050505060405180910390f35b610354611061565b6040518082815260200191505060405180910390f35b6103b66004803603604081101561038057600080fd5b81019080803573ffffffffffffffffffffffffffffffffffffffff16906020019092919080359060200190929190505050611067565b005b6103fa600480360360208110156103ce57600080fd5b81019080803573ffffffffffffffffffffffffffffffffffffffff169060200190929190505050611309565b6040518082815260200191505060405180910390f35b610418611321565b6040518082815260200191505060405180910390f35b61045a6004803603602081101561044457600080fd5b8101908080359060200190929190505050611327565b6040518082815260200191505060405180910390f35b61049c6004803603602081101561048657600080fd5b810190808035906020019092919050505061133f565b6040518086815260200180602001851515151581526020018415151515815260200183151515158152602001828103825286818151815260200191508051906020019080838360005b838110156105005780820151818401526020810190506104e5565b50505050905090810190601f16801561052d5780820380516001836020036101000a031916815260200191505b50965050505050505060405180910390f35b6105756004803603604081101561055557600080fd5b810190808035906020019092919080359060200190929190505050611434565b604051808681526020018573ffffffffffffffffffffffffffffffffffffffff1673ffffffffffffffffffffffffffffffffffffffff16815260200180602001848152602001838152602001828103825285818151815260200191508051906020019080838360005b838110156105f95780820151818401526020810190506105de565b50505050905090810190601f1680156106265780820380516001836020036101000a031916815260200191505b50965050505050505060405180910390f35b6106986004803603608081101561064e57600080fd5b81019080803590602001909291908035906020019092919080359060200190929190803573ffffffffffffffffffffffffffffffffffffffff16906020019092919050505061152f565b005b6106a2611c1a565b6040518082815260200191505060405180910390f35b610771600480360360208110156106ce57600080fd5b81019080803590602001906401000000008111156106eb57600080fd5b8201836020820111156106fd57600080fd5b8035906020019184600183028401116401000000008311171561071f57600080fd5b91908080601f016020809104026020016040519081016040528093929190818152602001838380828437600081840152601f19601f820116905080830192505050505050509192919290505050611c20565b005b6107b56004803603602081101561078957600080fd5b81019080803573ffffffffffffffffffffffffffffffffffffffff169060200190929190505050611e51565b604051808481526020018373ffffffffffffffffffffffffffffffffffffffff1673ffffffffffffffffffffffffffffffffffffffff16815260200180602001828103825283818151815260200191508051906020019080838360005b8381101561082d578082015181840152602081019050610812565b50505050905090810190601f16801561085a5780820380516001836020036101000a031916815260200191505b5094505050505060405180910390f35b6109376004803603606081101561088057600080fd5b810190808035906020019092919080359060200190929190803590602001906401000000008111156108b157600080fd5b8201836020820111156108c357600080fd5b803590602001918460018302840111640100000000831117156108e557600080fd5b91908080601f016020809104026020016040519081016040528093929190818152602001838380828437600081840152601f19601f820116905080830192505050505050509192919290505050611f33565b005b6109856004803603604081101561094f57600080fd5b81019080803573ffffffffffffffffffffffffffffffffffffffff16906020019092919080359060200190929190505050612521565b6040518086815260200180602001851515151581526020018415151515815260200183151515158152602001828103825286818151815260200191508051906020019080838360005b838110156109e95780820151818401526020810190506109ce565b50505050905090810190601f168015610a165780820380516001836020036101000a031916815260200191505b50965050505050505060405180910390f35b610a5460048036036020811015610a3e57600080fd5b8101908080359060200190929190505050612623565b005b610aa260048036036040811015610a6c57600080fd5b81019080803573ffffffffffffffffffffffffffffffffffffffff16906020019092919080359060200190929190505050612afa565b604051808781526020018673ffffffffffffffffffffffffffffffffffffffff1673ffffffffffffffffffffffffffffffffffffffff1681526020018060200185815260200184815260200183151515158152602001828103825286818151815260200191508051906020019080838360005b83811015610b30578082015181840152602081019050610b15565b50505050905090810190601f168015610b5d5780820380516001836020036101000a031916815260200191505b5097505050505050505060405180910390f35b610bb260048036036020811015610b8657600080fd5b81019080803573ffffffffffffffffffffffffffffffffffffffff169060200190929190505050612c15565b6040518082815260200191505060405180910390f35b610c1e60048036036060811015610bde57600080fd5b81019080803573ffffffffffffffffffffffffffffffffffffffff1690602001909291908035906020019092919080359060200190929190505050612c2d565b005b60076020528060005260406000206000915054906101000a900460ff1681565b6005600083815260200190815260200160002060009054906101000a900460ff1615610cd4576040517f08c379a00000000000000000000000000000000000000000000000000000000081526004018080602001828103825260128152602001807f416c72656164792072656769737465726564000000000000000000000000000081525060200191505060405180910390fd5b600660003373ffffffffffffffffffffffffffffffffffffffff1673ffffffffffffffffffffffffffffffffffffffff16815260200190815260200160002060009054906101000a900460ff1615610d94576040517f08c379a00000000000000000000000000000000000000000000000000000000081526004018080602001828103825260148152602001807f4164647265737320416c7265616479205573656400000000000000000000000081525060200191505060405180910390fd5b60405180606001604052808381526020013373ffffffffffffffffffffffffffffffffffffffff16815260200182815250600460003373ffffffffffffffffffffffffffffffffffffffff1673ffffffffffffffffffffffffffffffffffffffff1681526020019081526020016000206000820151816000015560208201518160010160006101000a81548173ffffffffffffffffffffffffffffffffffffffff021916908373ffffffffffffffffffffffffffffffffffffffff1602179055506040820151816002019080519060200190610e7192919061324e565b5090505060016005600084815260200190815260200160002060006101000a81548160ff0219169083151502179055506001600660003373ffffffffffffffffffffffffffffffffffffffff1673ffffffffffffffffffffffffffffffffffffffff16815260200190815260200160002060006101000a81548160ff0219169083151502179055507fa02982b2bc3a73c1085708d7f219cd41d20d76be76f169fe5bca069e09a883e233604051808273ffffffffffffffffffffffffffffffffffffffff1673ffffffffffffffffffffffffffffffffffffffff16815260200191505060405180910390a15050565b600f6020528060005260406000206000915090508060000154908060010160009054906101000a900473ffffffffffffffffffffffffffffffffffffffff1690806002018054600181600116156101000203166002900480601f0160208091040260200160405190810160405280929190818152602001828054600181600116156101000203166002900480156110385780601f1061100d57610100808354040283529160200191611038565b820191906000526020600020905b81548152906001019060200180831161101b57829003601f168201915b5050505050908060030154908060040154908060050160009054906101000a900460ff16905086565b60025481565b6000809054906101000a900473ffffffffffffffffffffffffffffffffffffffff1673ffffffffffffffffffffffffffffffffffffffff163373ffffffffffffffffffffffffffffffffffffffff161461110c576040517f08c379a00000000000000000000000000000000000000000000000000000000081526004018080602001828103825260258152602001806133ed6025913960400191505060405180910390fd5b6005600082815260200190815260200160002060009054906101000a900460ff1661119f576040517f08c379a00000000000000000000000000000000000000000000000000000000081526004018080602001828103825260128152602001807f554944204e6f742072656769737465726564000000000000000000000000000081525060200191505060405180910390fd5b80600460008473ffffffffffffffffffffffffffffffffffffffff1673ffffffffffffffffffffffffffffffffffffffff1681526020019081526020016000206000015414611256576040517f08c379a00000000000000000000000000000000000000000000000000000000081526004018080602001828103825260118152602001807f41646472657373204d6973736d6174636800000000000000000000000000000081525060200191505060405180910390fd5b600760008373ffffffffffffffffffffffffffffffffffffffff1673ffffffffffffffffffffffffffffffffffffffff16815260200190815260200160002060009054906101000a900460ff16156112ad57600080fd5b6001600760008473ffffffffffffffffffffffffffffffffffffffff1673ffffffffffffffffffffffffffffffffffffffff16815260200190815260200160002060006101000a81548160ff0219169083151502179055505050565b600a6020528060005260406000206000915090505481565b60035481565b600c6020528060005260406000206000915090505481565b6008602052806000526040600020600091509050806000015490806001018054600181600116156101000203166002900480601f0160208091040260200160405190810160405280929190818152602001828054600181600116156101000203166002900480156113f15780601f106113c6576101008083540402835291602001916113f1565b820191906000526020600020905b8154815290600101906020018083116113d457829003601f168201915b5050505050908060020160009054906101000a900460ff16908060020160019054906101000a900460ff16908060020160029054906101000a900460ff16905085565b600b602052816000526040600020602052806000526040600020600091509150508060000154908060010160009054906101000a900473ffffffffffffffffffffffffffffffffffffffff1690806002018054600181600116156101000203166002900480601f0160208091040260200160405190810160405280929190818152602001828054600181600116156101000203166002900480156115195780601f106114ee57610100808354040283529160200191611519565b820191906000526020600020905b8154815290600101906020018083116114fc57829003601f168201915b5050505050908060030154908060040154905085565b6005600085815260200190815260200160002060009054906101000a900460ff166115c2576040517f08c379a00000000000000000000000000000000000000000000000000000000081526004018080602001828103825260128152602001807f554944204e6f742072656769737465726564000000000000000000000000000081525060200191505060405180910390fd5b83600460003373ffffffffffffffffffffffffffffffffffffffff1673ffffffffffffffffffffffffffffffffffffffff1681526020019081526020016000206000015414611679576040517f08c379a00000000000000000000000000000000000000000000000000000000081526004018080602001828103825260138152602001807f41646472657373204d6973736d6174636865640000000000000000000000000081525060200191505060405180910390fd5b600060086000858152602001908152602001600020600001541415611706576040517f08c379a000000000000000000000000000000000000000000000000000000000815260040180806020018281038252601b8152602001807f456c656374696f6e456e7469747920646f65736e74206578697374000000000081525060200191505060405180910390fd5b600760003373ffffffffffffffffffffffffffffffffffffffff1673ffffffffffffffffffffffffffffffffffffffff16815260200190815260200160002060009054906101000a900460ff166117c5576040517f08c379a00000000000000000000000000000000000000000000000000000000081526004018080602001828103825260148152602001807f55736572206973206e6f7420766572696669656400000000000000000000000081525060200191505060405180910390fd5b600080905060008090505b600a60003373ffffffffffffffffffffffffffffffffffffffff1673ffffffffffffffffffffffffffffffffffffffff1681526020019081526020016000205481116118835784600960003373ffffffffffffffffffffffffffffffffffffffff1673ffffffffffffffffffffffffffffffffffffffff168152602001908152602001600020600083815260200190815260200160002060000154141561187657600191505b80806001019150506117d0565b50806118da576040517f08c379a00000000000000000000000000000000000000000000000000000000081526004018080602001828103825260248152602001806133c96024913960400191505060405180910390fd5b601060003373ffffffffffffffffffffffffffffffffffffffff1673ffffffffffffffffffffffffffffffffffffffff168152602001908152602001600020600085815260200190815260200160002060009054906101000a900460ff16156119ab576040517f08c379a000000000000000000000000000000000000000000000000000000000815260040180806020018281038252600d8152602001807f416c726561647920766f7465640000000000000000000000000000000000000081525060200191505060405180910390fd5b60009050600080600090505b600c6000878152602001908152602001600020548111611a935784600b6000888152602001908152602001600020600083815260200190815260200160002060000154148015611a7957508373ffffffffffffffffffffffffffffffffffffffff16600b6000888152602001908152602001600020600083815260200190815260200160002060010160009054906101000a900473ffffffffffffffffffffffffffffffffffffffff1673ffffffffffffffffffffffffffffffffffffffff16145b15611a8657600192508091505b80806001019150506119b7565b5081611b07576040517f08c379a00000000000000000000000000000000000000000000000000000000081526004018080602001828103825260198152602001807f496e76616c69642043616e6469646174652044657461696c730000000000000081525060200191505060405180910390fd5b600b60008681526020019081526020016000206000828152602001908152602001600020600301600081548092919060010191905055506001601060003373ffffffffffffffffffffffffffffffffffffffff1673ffffffffffffffffffffffffffffffffffffffff168152602001908152602001600020600087815260200190815260200160002060006101000a81548160ff0219169083151502179055507f0902475a854b82199b4f5d6b81327ec4c4ec077ce0356a106ddc2748c5285ed38385604051808373ffffffffffffffffffffffffffffffffffffffff1673ffffffffffffffffffffffffffffffffffffffff1681526020018281526020019250505060405180910390a1505050505050565b60015481565b6000809054906101000a900473ffffffffffffffffffffffffffffffffffffffff1673ffffffffffffffffffffffffffffffffffffffff163373ffffffffffffffffffffffffffffffffffffffff1614611cc5576040517f08c379a00000000000000000000000000000000000000000000000000000000081526004018080602001828103825260258152602001806133ed6025913960400191505060405180910390fd5b6001600081548092919060010191905055506040518060a00160405280600154815260200182815260200160001515815260200160001515815260200160001515815250600860006001548152602001908152602001600020600082015181600001556020820151816001019080519060200190611d4492919061324e565b5060408201518160020160006101000a81548160ff02191690831515021790555060608201518160020160016101000a81548160ff02191690831515021790555060808201518160020160026101000a81548160ff0219169083151502179055509050507f9d9d7b3c7fd391851f6b4b01ddcdb521bfca4fe5edbf21b0ea3e6ca9350af75c600154826040518083815260200180602001828103825283818151815260200191508051906020019080838360005b83811015611e13578082015181840152602081019050611df8565b50505050905090810190601f168015611e405780820380516001836020036101000a031916815260200191505b50935050505060405180910390a150565b60046020528060005260406000206000915090508060000154908060010160009054906101000a900473ffffffffffffffffffffffffffffffffffffffff1690806002018054600181600116156101000203166002900480601f016020809104026020016040519081016040528092919081815260200182805460018160011615610100020316600290048015611f295780601f10611efe57610100808354040283529160200191611f29565b820191906000526020600020905b815481529060010190602001808311611f0c57829003601f168201915b5050505050905083565b600060086000858152602001908152602001600020600001541415611fc0576040517f08c379a00000000000000000000000000000000000000000000000000000000081526004018080602001828103825260158152602001807f456c656374696f6e20646f65736e74206578697374000000000000000000000081525060200191505060405180910390fd5b6060600d60003373ffffffffffffffffffffffffffffffffffffffff1673ffffffffffffffffffffffffffffffffffffffff168152602001908152602001600020805480602002602001604051908101604052809291908181526020016000905b8282101561218457838290600052602060002090600602016040518060c0016040529081600082015481526020016001820160009054906101000a900473ffffffffffffffffffffffffffffffffffffffff1673ffffffffffffffffffffffffffffffffffffffff1673ffffffffffffffffffffffffffffffffffffffff168152602001600282018054600181600116156101000203166002900480601f01602080910402602001604051908101604052809291908181526020018280546001816001161561010002031660029004801561213d5780601f106121125761010080835404028352916020019161213d565b820191906000526020600020905b81548152906001019060200180831161212057829003601f168201915b5050505050815260200160038201548152602001600482015481526020016005820160009054906101000a900460ff16151515158152505081526020019060010190612021565b50505050905060006001905060008090505b82518110156121d057858382815181106121ac57fe5b60200260200101516080015114156121c357600091505b8080600101915050612196565b5080612227576040517f08c379a00000000000000000000000000000000000000000000000000000000081526004018080602001828103825260318152602001806134126031913960400191505060405180910390fd5b600360008154809291906001019190505550600d60003373ffffffffffffffffffffffffffffffffffffffff1673ffffffffffffffffffffffffffffffffffffffff1681526020019081526020016000206040518060c0016040528060035481526020013373ffffffffffffffffffffffffffffffffffffffff16815260200185815260200186815260200187815260200160001515815250908060018154018082558091505090600182039060005260206000209060060201600090919290919091506000820151816000015560208201518160010160006101000a81548173ffffffffffffffffffffffffffffffffffffffff021916908373ffffffffffffffffffffffffffffffffffffffff160217905550604082015181600201908051906020019061235892919061324e565b50606082015181600301556080820151816004015560a08201518160050160006101000a81548160ff0219169083151502179055505050506040518060c0016040528060035481526020013373ffffffffffffffffffffffffffffffffffffffff16815260200184815260200185815260200186815260200160001515815250600f600060035481526020019081526020016000206000820151816000015560208201518160010160006101000a81548173ffffffffffffffffffffffffffffffffffffffff021916908373ffffffffffffffffffffffffffffffffffffffff160217905550604082015181600201908051906020019061245a92919061324e565b50606082015181600301556080820151816004015560a08201518160050160006101000a81548160ff021916908315150217905550905050600e60003373ffffffffffffffffffffffffffffffffffffffff1673ffffffffffffffffffffffffffffffffffffffff168152602001908152602001600020600081548092919060010191905055507f43edd06d1afa7aa10c887b2a1ea0dc5a42e487c082f46883fe5d78d452b055f16003546040518082815260200191505060405180910390a15050505050565b600960205281600052604060002060205280600052604060002060009150915050806000015490806001018054600181600116156101000203166002900480601f0160208091040260200160405190810160405280929190818152602001828054600181600116156101000203166002900480156125e05780601f106125b5576101008083540402835291602001916125e0565b820191906000526020600020905b8154815290600101906020018083116125c357829003601f168201915b5050505050908060020160009054906101000a900460ff16908060020160019054906101000a900460ff16908060020160029054906101000a900460ff16905085565b6000809054906101000a900473ffffffffffffffffffffffffffffffffffffffff1673ffffffffffffffffffffffffffffffffffffffff163373ffffffffffffffffffffffffffffffffffffffff16146126c8576040517f08c379a00000000000000000000000000000000000000000000000000000000081526004018080602001828103825260258152602001806133ed6025913960400191505060405180910390fd5b6000600f6000838152602001908152602001600020600001541415612755576040517f08c379a00000000000000000000000000000000000000000000000000000000081526004018080602001828103825260118152602001807f52657175657374204e6f7420666f756e6400000000000000000000000000000081525060200191505060405180910390fd5b600f600082815260200190815260200160002060050160009054906101000a900460ff16156127ec576040517f08c379a00000000000000000000000000000000000000000000000000000000081526004018080602001828103825260188152602001807f416c726561647920617070726f7665642072657175657374000000000000000081525060200191505060405180910390fd5b6127f46132ce565b600f60008381526020019081526020016000206040518060c0016040529081600082015481526020016001820160009054906101000a900473ffffffffffffffffffffffffffffffffffffffff1673ffffffffffffffffffffffffffffffffffffffff1673ffffffffffffffffffffffffffffffffffffffff168152602001600282018054600181600116156101000203166002900480601f01602080910402602001604051908101604052809291908181526020018280546001816001161561010002031660029004801561290b5780601f106128e05761010080835404028352916020019161290b565b820191906000526020600020905b8154815290600101906020018083116128ee57829003601f168201915b5050505050815260200160038201548152602001600482015481526020016005820160009054906101000a900460ff16151515158152505090506001600f600084815260200190815260200160002060050160006101000a81548160ff021916908315150217905550600260008154809291906001019190505550600c600082608001518152602001908152602001600020600081548092919060010191905055506040518060a001604052806002548152602001826020015173ffffffffffffffffffffffffffffffffffffffff16815260200182604001518152602001600081526020018260600151815250600b6000836080015181526020019081526020016000206000600c6000856080015181526020019081526020016000205481526020019081526020016000206000820151816000015560208201518160010160006101000a81548173ffffffffffffffffffffffffffffffffffffffff021916908373ffffffffffffffffffffffffffffffffffffffff1602179055506040820151816002019080519060200190612aa592919061324e565b5060608201518160030155608082015181600401559050507fe6bea90b2b6afc3e6657c480a5c34eb15dbd9d53420edd2060ef2b6eadd9c7c16002546040518082815260200191505060405180910390a15050565b600d6020528160005260406000208181548110612b1357fe5b9060005260206000209060060201600091509150508060000154908060010160009054906101000a900473ffffffffffffffffffffffffffffffffffffffff1690806002018054600181600116156101000203166002900480601f016020809104026020016040519081016040528092919081815260200182805460018160011615610100020316600290048015612bec5780601f10612bc157610100808354040283529160200191612bec565b820191906000526020600020905b815481529060010190602001808311612bcf57829003601f168201915b5050505050908060030154908060040154908060050160009054906101000a900460ff16905086565b600e6020528060005260406000206000915090505481565b6000809054906101000a900473ffffffffffffffffffffffffffffffffffffffff1673ffffffffffffffffffffffffffffffffffffffff163373ffffffffffffffffffffffffffffffffffffffff1614612cd2576040517f08c379a00000000000000000000000000000000000000000000000000000000081526004018080602001828103825260258152602001806133ed6025913960400191505060405180910390fd5b6005600083815260200190815260200160002060009054906101000a900460ff16612d65576040517f08c379a00000000000000000000000000000000000000000000000000000000081526004018080602001828103825260128152602001807f554944204e6f742072656769737465726564000000000000000000000000000081525060200191505060405180910390fd5b81600460008573ffffffffffffffffffffffffffffffffffffffff1673ffffffffffffffffffffffffffffffffffffffff1681526020019081526020016000206000015414612e1c576040517f08c379a00000000000000000000000000000000000000000000000000000000081526004018080602001828103825260138152602001807f41646472657373204d6973736d6174636865640000000000000000000000000081525060200191505060405180910390fd5b600060086000838152602001908152602001600020600001541415612ea9576040517f08c379a000000000000000000000000000000000000000000000000000000000815260040180806020018281038252601b8152602001807f456c656374696f6e456e7469747920646f65736e74206578697374000000000081525060200191505060405180910390fd5b600760008473ffffffffffffffffffffffffffffffffffffffff1673ffffffffffffffffffffffffffffffffffffffff16815260200190815260200160002060009054906101000a900460ff16612f68576040517f08c379a00000000000000000000000000000000000000000000000000000000081526004018080602001828103825260148152602001807f55736572206973206e6f7420766572696669656400000000000000000000000081525060200191505060405180910390fd5b60006001905060008090505b600a60008673ffffffffffffffffffffffffffffffffffffffff1673ffffffffffffffffffffffffffffffffffffffff1681526020019081526020016000205481116130275782600960008773ffffffffffffffffffffffffffffffffffffffff1673ffffffffffffffffffffffffffffffffffffffff168152602001908152602001600020600083815260200190815260200160002060000154141561301a57600091505b8080600101915050612f74565b508061309b576040517f08c379a000000000000000000000000000000000000000000000000000000000815260040180806020018281038252600f8152602001807f416c726561647920616c6c6f776564000000000000000000000000000000000081525060200191505060405180910390fd5b600a60008573ffffffffffffffffffffffffffffffffffffffff1673ffffffffffffffffffffffffffffffffffffffff1681526020019081526020016000206000815480929190600101919050555060086000838152602001908152602001600020600960008673ffffffffffffffffffffffffffffffffffffffff1673ffffffffffffffffffffffffffffffffffffffff1681526020019081526020016000206000600a60008873ffffffffffffffffffffffffffffffffffffffff1673ffffffffffffffffffffffffffffffffffffffff16815260200190815260200160002054815260200190815260200160002060008201548160000155600182018160010190805460018160011615610100020316600290046131bd92919061331c565b506002820160009054906101000a900460ff168160020160006101000a81548160ff0219169083151502179055506002820160019054906101000a900460ff168160020160016101000a81548160ff0219169083151502179055506002820160029054906101000a900460ff168160020160026101000a81548160ff02191690831515021790555090505050505050565b828054600181600116156101000203166002900490600052602060002090601f016020900481019282601f1061328f57805160ff19168380011785556132bd565b828001600101855582156132bd579182015b828111156132bc5782518255916020019190600101906132a1565b5b5090506132ca91906133a3565b5090565b6040518060c0016040528060008152602001600073ffffffffffffffffffffffffffffffffffffffff1681526020016060815260200160008152602001600081526020016000151581525090565b828054600181600116156101000203166002900490600052602060002090601f016020900481019282601f106133555780548555613392565b8280016001018555821561339257600052602060002091601f016020900482015b82811115613391578254825591600101919060010190613376565b5b50905061339f91906133a3565b5090565b6133c591905b808211156133c15760008160009055506001016133a9565b5090565b9056fe4e6f7420616c6c6f77656420746f20766f746520696e207468697320656c656374696f6e4f6e6c792061646d696e2063616e20706572666f726d2074686973206f7065726174696f6e416c72656164792072657175657374656420746f20706172746963697061746520696e207468617420656c656374696f6ea265627a7a723158205f0949981ae633ace128a8a546598ab7b9e0f0ddca71bdf12771739881f1e57364736f6c63430005100032",
  "source": "// SPDX-License-Identifier: SEE LICENSE IN LICENSE\npragma solidity ^0.5.16;\n\ncontract Election {\n    constructor() public {\n        admin = msg.sender; // Deployer is the admin\n    }\n\n    // VARIABLES\n    address admin;\n    uint public electionCount = 0;\n    uint public candidatesCount = 0;\n    uint public requestCount = 0;\n\n    // STRUCTURES\n\n    // Candidate Structure\n    struct Candidate {\n        uint id;\n        address candidateAddress;\n        string name;\n        uint voteCount;\n        uint uid;\n    }\n    // Election Candidate Participation Request\n    struct ParticipationRequest {\n        uint id;\n        address from;\n        string name;\n        uint uid;\n        uint electionId;\n        bool approved;\n    }\n    // An Entity of election structure\n    struct ElectionEntity {\n        uint id;\n        string name;\n        bool started;\n        bool ended;\n        bool accept_request;\n    }\n    // User structure\n    struct User {\n        uint uid;\n        address _address;\n        string name;\n    }\n\n    // EVENTS\n\n    // Event : USER Registered\n    event UserRegisteredEvent(address _address);\n    event ElectionCreatedEvent(uint electionId, string name);\n    event CandidateAddedEvent(uint candidateId, string name);\n    event ParticipationRequestEvent(uint requestId);\n    event ApprovedParticipationRequest(uint candidateId);\n    event VotedEvent(address to, uint uid);\n    // MAPPINGS\n\n    // User related\n    mapping(address => User) public users; // get user by the address\n    mapping(uint => bool) private isRegistered; // userId and all registered users\n    mapping(address => bool) private isAddressUsed; // for checking if an address is already registered\n    mapping(address => bool) public verified; // for checking if a user is\n    // Election related\n    mapping(uint => ElectionEntity) public elections; // All Election Entities\n    mapping(address => mapping(uint => ElectionEntity)) public allowedElections; // Get allowed election to vote of a voter\n    mapping(address => uint) public allowedElectionsCount; // No of allowed elections to vote of a user\n    // Candidate related\n    mapping(uint => mapping(uint => Candidate)) public candidates; // Candidates in an election entity\n    mapping(uint => uint) public numberOfCandidates; // The number of candidates in an election entity\n    mapping(address => ParticipationRequest[]) public participationRequests; // All participation requests of a person\n    mapping(address => uint) public numberOfParticipationRequests; // The number of participation requests by a person\n    mapping(uint => ParticipationRequest) public allParticipationRequests; // All participation request\n    // Voting related\n    mapping(address => mapping(uint => bool)) isVoted;\n\n    // MODIFIERS\n\n    modifier onlyAdmin() {\n        require(msg.sender == admin, \"Only admin can perform this operation\");\n        _;\n    }\n\n    // FUNCTIONS\n\n    // Function to register  user\n    function registerUser(uint uid, string memory _name) public {\n        require(!isRegistered[uid], \"Already registered\"); // The uid is not registered\n        require(!isAddressUsed[msg.sender], \"Address Already Used\"); // The address is not used\n\n        users[msg.sender] = User(uid, msg.sender, _name);\n        isRegistered[uid] = true;\n        isAddressUsed[msg.sender] = true;\n        emit UserRegisteredEvent(msg.sender);\n    }\n\n    // verify a user\n    function verifyUser(address user, uint uid) public onlyAdmin {\n        require(isRegistered[uid], \"UID Not registered\");\n        require(users[user].uid == uid, \"Address Missmatch\");\n        require(!verified[user]);\n        verified[user] = true;\n    }\n\n    // approve a user to vote on a perticular election\n    function approveToVote(\n        address user,\n        uint uid,\n        uint electionId\n    ) public onlyAdmin {\n        require(isRegistered[uid], \"UID Not registered\");\n        require(users[user].uid == uid, \"Address Missmatched\");\n        require(elections[electionId].id != 0, \"ElectionEntity doesnt exist\");\n        require(verified[user], \"User is not verified\");\n\n        bool tmp = true;\n        for (uint i = 0; i <= allowedElectionsCount[user]; i++) {\n            if (allowedElections[user][i].id == electionId) {\n                tmp = false;\n            }\n        }\n        require(tmp, \"Already allowed\");\n\n        allowedElectionsCount[user]++;\n        allowedElections[user][allowedElectionsCount[user]] = elections[\n            electionId\n        ];\n    }\n\n    // add an election\n    function addElectionEntity(string memory name) public onlyAdmin {\n        electionCount++;\n        elections[electionCount] = ElectionEntity(\n            electionCount,\n            name,\n            false,\n            false,\n            false\n        );\n        emit ElectionCreatedEvent(electionCount, name);\n    }\n\n    // Function to request to participate in an election\n    function requestToParticipate(\n        uint electionId,\n        uint uid,\n        string memory name\n    ) public {\n        require(elections[electionId].id != 0, \"Election doesnt exist\");\n        // Check if already requested\n        ParticipationRequest[] memory requests = participationRequests[\n            msg.sender\n        ];\n        bool tmp = true;\n        for (uint256 i = 0; i < requests.length; i++) {\n            if (requests[i].electionId == electionId) {\n                tmp = false;\n            }\n        }\n        require(tmp, \"Already requested to participate in that election\");\n        requestCount++;\n        participationRequests[msg.sender].push(\n            ParticipationRequest(\n                requestCount,\n                msg.sender,\n                name,\n                uid,\n                electionId,\n                false\n            )\n        );\n        allParticipationRequests[requestCount] = ParticipationRequest(\n            requestCount,\n            msg.sender,\n            name,\n            uid,\n            electionId,\n            false\n        );\n        numberOfParticipationRequests[msg.sender]++;\n        emit ParticipationRequestEvent(requestCount);\n    }\n\n    // Approve a participation request\n    function approveRequest(uint id) public onlyAdmin {\n        require(allParticipationRequests[id].id != 0, \"Request Not found\");\n        require(\n            !allParticipationRequests[id].approved,\n            \"Already approved request\"\n        );\n        ParticipationRequest memory request = allParticipationRequests[id];\n        allParticipationRequests[id].approved = true;\n        candidatesCount++;\n        numberOfCandidates[request.electionId]++;\n        candidates[request.electionId][\n            numberOfCandidates[request.electionId]\n        ] = Candidate(\n            candidatesCount,\n            request.from,\n            request.name,\n            0,\n            request.uid\n        );\n        emit ApprovedParticipationRequest(candidatesCount);\n    }\n\n    // vote\n    function vote(\n        uint uid,\n        uint electionId,\n        uint candidateId,\n        address candidateAddress\n    ) public {\n        require(isRegistered[uid], \"UID Not registered\");\n        require(users[msg.sender].uid == uid, \"Address Missmatched\");\n        require(elections[electionId].id != 0, \"ElectionEntity doesnt exist\");\n        require(verified[msg.sender], \"User is not verified\");\n\n        bool tmp = false;\n        for (uint i = 0; i <= allowedElectionsCount[msg.sender]; i++) {\n            if (allowedElections[msg.sender][i].id == electionId) {\n                tmp = true;\n            }\n        }\n\n        require(tmp, \"Not allowed to vote in this election\");\n        require(!isVoted[msg.sender][electionId], \"Already voted\");\n\n        tmp = false;\n        uint canId;\n        for (uint i = 0; i <= numberOfCandidates[electionId]; i++) {\n            if (\n                candidates[electionId][i].id == candidateId &&\n                candidates[electionId][i].candidateAddress == candidateAddress\n            ) {\n                tmp = true;\n                canId = i;\n            }\n        }\n        require(tmp, \"Invalid Candidate Details\");\n        candidates[electionId][canId].voteCount++;\n        isVoted[msg.sender][electionId] = true;\n        emit VotedEvent(candidateAddress, candidateId);\n    }\n}\n",
  "sourcePath": "/home/aswanth/Desktop/E-Votting/blockchain/contracts/Election.sol",
  "compiler": {
    "name": "solc",
    "version": "0.5.16+commit.9c3226ce.Emscripten.clang"
  },
  "schemaVersion": "3.4.14",
  "updatedAt": "2023-07-30T09:25:39.710Z",
  "networkType": "ethereum",
  "devdoc": {
    "methods": {}
  },
  "userdoc": {
    "methods": {}
  }
}