{
  "contractName": "Election",
  "abi": [
    {
      "inputs": [],
      "payable": false,
      "stateMutability": "nonpayable",
      "type": "constructor"
    },
    {
      "anonymous": false,
      "inputs": [
        {
          "indexed": false,
          "internalType": "uint256",
          "name": "candidateId",
          "type": "uint256"
        }
      ],
      "name": "ApprovedParticipationRequest",
      "type": "event"
    },
    {
      "anonymous": false,
      "inputs": [
        {
          "indexed": false,
          "internalType": "uint256",
          "name": "candidateId",
          "type": "uint256"
        },
        {
          "indexed": false,
          "internalType": "string",
          "name": "name",
          "type": "string"
        }
      ],
      "name": "CandidateAddedEvent",
      "type": "event"
    },
    {
      "anonymous": false,
      "inputs": [
        {
          "indexed": false,
          "internalType": "uint256",
          "name": "electionId",
          "type": "uint256"
        },
        {
          "indexed": false,
          "internalType": "string",
          "name": "name",
          "type": "string"
        }
      ],
      "name": "ElectionCreatedEvent",
      "type": "event"
    },
    {
      "anonymous": false,
      "inputs": [
        {
          "indexed": false,
          "internalType": "uint256",
          "name": "requestId",
          "type": "uint256"
        }
      ],
      "name": "ParticipationRequestEvent",
      "type": "event"
    },
    {
      "anonymous": false,
      "inputs": [
        {
          "indexed": false,
          "internalType": "address",
          "name": "_address",
          "type": "address"
        }
      ],
      "name": "UserRegisteredEvent",
      "type": "event"
    },
    {
      "constant": true,
      "inputs": [
        {
          "internalType": "uint256",
          "name": "",
          "type": "uint256"
        }
      ],
      "name": "allParticipationRequests",
      "outputs": [
        {
          "internalType": "uint256",
          "name": "id",
          "type": "uint256"
        },
        {
          "internalType": "address",
          "name": "from",
          "type": "address"
        },
        {
          "internalType": "string",
          "name": "name",
          "type": "string"
        },
        {
          "internalType": "uint256",
          "name": "uid",
          "type": "uint256"
        },
        {
          "internalType": "uint256",
          "name": "electionId",
          "type": "uint256"
        },
        {
          "internalType": "bool",
          "name": "approved",
          "type": "bool"
        }
      ],
      "payable": false,
      "stateMutability": "view",
      "type": "function"
    },
    {
      "constant": true,
      "inputs": [
        {
          "internalType": "address",
          "name": "",
          "type": "address"
        },
        {
          "internalType": "uint256",
          "name": "",
          "type": "uint256"
        }
      ],
      "name": "allowedElections",
      "outputs": [
        {
          "internalType": "uint256",
          "name": "id",
          "type": "uint256"
        },
        {
          "internalType": "string",
          "name": "name",
          "type": "string"
        },
        {
          "internalType": "bool",
          "name": "started",
          "type": "bool"
        },
        {
          "internalType": "bool",
          "name": "ended",
          "type": "bool"
        },
        {
          "internalType": "bool",
          "name": "accept_request",
          "type": "bool"
        }
      ],
      "payable": false,
      "stateMutability": "view",
      "type": "function"
    },
    {
      "constant": true,
      "inputs": [
        {
          "internalType": "address",
          "name": "",
          "type": "address"
        }
      ],
      "name": "allowedElectionsCount",
      "outputs": [
        {
          "internalType": "uint256",
          "name": "",
          "type": "uint256"
        }
      ],
      "payable": false,
      "stateMutability": "view",
      "type": "function"
    },
    {
      "constant": true,
      "inputs": [
        {
          "internalType": "uint256",
          "name": "",
          "type": "uint256"
        },
        {
          "internalType": "uint256",
          "name": "",
          "type": "uint256"
        }
      ],
      "name": "candidates",
      "outputs": [
        {
          "internalType": "uint256",
          "name": "id",
          "type": "uint256"
        },
        {
          "internalType": "address",
          "name": "candidateAddress",
          "type": "address"
        },
        {
          "internalType": "string",
          "name": "name",
          "type": "string"
        },
        {
          "internalType": "uint256",
          "name": "voteCount",
          "type": "uint256"
        },
        {
          "internalType": "uint256",
          "name": "uid",
          "type": "uint256"
        }
      ],
      "payable": false,
      "stateMutability": "view",
      "type": "function"
    },
    {
      "constant": true,
      "inputs": [],
      "name": "candidatesCount",
      "outputs": [
        {
          "internalType": "uint256",
          "name": "",
          "type": "uint256"
        }
      ],
      "payable": false,
      "stateMutability": "view",
      "type": "function"
    },
    {
      "constant": true,
      "inputs": [],
      "name": "electionCount",
      "outputs": [
        {
          "internalType": "uint256",
          "name": "",
          "type": "uint256"
        }
      ],
      "payable": false,
      "stateMutability": "view",
      "type": "function"
    },
    {
      "constant": true,
      "inputs": [
        {
          "internalType": "uint256",
          "name": "",
          "type": "uint256"
        }
      ],
      "name": "elections",
      "outputs": [
        {
          "internalType": "uint256",
          "name": "id",
          "type": "uint256"
        },
        {
          "internalType": "string",
          "name": "name",
          "type": "string"
        },
        {
          "internalType": "bool",
          "name": "started",
          "type": "bool"
        },
        {
          "internalType": "bool",
          "name": "ended",
          "type": "bool"
        },
        {
          "internalType": "bool",
          "name": "accept_request",
          "type": "bool"
        }
      ],
      "payable": false,
      "stateMutability": "view",
      "type": "function"
    },
    {
      "constant": true,
      "inputs": [
        {
          "internalType": "uint256",
          "name": "",
          "type": "uint256"
        }
      ],
      "name": "numberOfCandidates",
      "outputs": [
        {
          "internalType": "uint256",
          "name": "",
          "type": "uint256"
        }
      ],
      "payable": false,
      "stateMutability": "view",
      "type": "function"
    },
    {
      "constant": true,
      "inputs": [
        {
          "internalType": "address",
          "name": "",
          "type": "address"
        }
      ],
      "name": "numberOfParticipationRequests",
      "outputs": [
        {
          "internalType": "uint256",
          "name": "",
          "type": "uint256"
        }
      ],
      "payable": false,
      "stateMutability": "view",
      "type": "function"
    },
    {
      "constant": true,
      "inputs": [
        {
          "internalType": "address",
          "name": "",
          "type": "address"
        },
        {
          "internalType": "uint256",
          "name": "",
          "type": "uint256"
        }
      ],
      "name": "participationRequests",
      "outputs": [
        {
          "internalType": "uint256",
          "name": "id",
          "type": "uint256"
        },
        {
          "internalType": "address",
          "name": "from",
          "type": "address"
        },
        {
          "internalType": "string",
          "name": "name",
          "type": "string"
        },
        {
          "internalType": "uint256",
          "name": "uid",
          "type": "uint256"
        },
        {
          "internalType": "uint256",
          "name": "electionId",
          "type": "uint256"
        },
        {
          "internalType": "bool",
          "name": "approved",
          "type": "bool"
        }
      ],
      "payable": false,
      "stateMutability": "view",
      "type": "function"
    },
    {
      "constant": true,
      "inputs": [],
      "name": "requestCount",
      "outputs": [
        {
          "internalType": "uint256",
          "name": "",
          "type": "uint256"
        }
      ],
      "payable": false,
      "stateMutability": "view",
      "type": "function"
    },
    {
      "constant": true,
      "inputs": [
        {
          "internalType": "address",
          "name": "",
          "type": "address"
        }
      ],
      "name": "users",
      "outputs": [
        {
          "internalType": "uint256",
          "name": "uid",
          "type": "uint256"
        },
        {
          "internalType": "address",
          "name": "_address",
          "type": "address"
        },
        {
          "internalType": "string",
          "name": "name",
          "type": "string"
        }
      ],
      "payable": false,
      "stateMutability": "view",
      "type": "function"
    },
    {
      "constant": true,
      "inputs": [
        {
          "internalType": "address",
          "name": "",
          "type": "address"
        }
      ],
      "name": "verified",
      "outputs": [
        {
          "internalType": "bool",
          "name": "",
          "type": "bool"
        }
      ],
      "payable": false,
      "stateMutability": "view",
      "type": "function"
    },
    {
      "constant": false,
      "inputs": [
        {
          "internalType": "uint256",
          "name": "uid",
          "type": "uint256"
        },
        {
          "internalType": "string",
          "name": "_name",
          "type": "string"
        }
      ],
      "name": "registerUser",
      "outputs": [],
      "payable": false,
      "stateMutability": "nonpayable",
      "type": "function"
    },
    {
      "constant": false,
      "inputs": [
        {
          "internalType": "address",
          "name": "user",
          "type": "address"
        },
        {
          "internalType": "uint256",
          "name": "uid",
          "type": "uint256"
        }
      ],
      "name": "verifyUser",
      "outputs": [],
      "payable": false,
      "stateMutability": "nonpayable",
      "type": "function"
    },
    {
      "constant": false,
      "inputs": [
        {
          "internalType": "address",
          "name": "user",
          "type": "address"
        },
        {
          "internalType": "uint256",
          "name": "uid",
          "type": "uint256"
        },
        {
          "internalType": "uint256",
          "name": "electionId",
          "type": "uint256"
        }
      ],
      "name": "approveToVote",
      "outputs": [],
      "payable": false,
      "stateMutability": "nonpayable",
      "type": "function"
    },
    {
      "constant": false,
      "inputs": [
        {
          "internalType": "string",
          "name": "name",
          "type": "string"
        }
      ],
      "name": "addElectionEntity",
      "outputs": [],
      "payable": false,
      "stateMutability": "nonpayable",
      "type": "function"
    },
    {
      "constant": false,
      "inputs": [
        {
          "internalType": "uint256",
          "name": "electionId",
          "type": "uint256"
        },
        {
          "internalType": "uint256",
          "name": "uid",
          "type": "uint256"
        },
        {
          "internalType": "string",
          "name": "name",
          "type": "string"
        }
      ],
      "name": "requestToParticipate",
      "outputs": [],
      "payable": false,
      "stateMutability": "nonpayable",
      "type": "function"
    },
    {
      "constant": false,
      "inputs": [
        {
          "internalType": "uint256",
          "name": "id",
          "type": "uint256"
        }
      ],
      "name": "approveRequest",
      "outputs": [],
      "payable": false,
      "stateMutability": "nonpayable",
      "type": "function"
    }
  ],
  "bytecode": "0x608060405260006001556000600255600060035534801561001f57600080fd5b50336000806101000a81548173ffffffffffffffffffffffffffffffffffffffff021916908373ffffffffffffffffffffffffffffffffffffffff1602179055506129ac8061006f6000396000f3fe608060405234801561001057600080fd5b50600436106101215760003560e01c80637de14242116100ad578063d7ce122e11610071578063d7ce122e146108cc578063d7d1bbdb146109bb578063e4c99adc146109e9578063f8b776b514610b03578063fdb5f3fb14610b5b57610121565b80637de1424214610534578063997d28301461062d5780639e2188751461064b578063a87430ba14610706578063cb751090146107fd57610121565b806332d345da116100f457806332d345da1461035f57806355065289146103ad5780635badbe4c146104055780635e1e339b146104235780635e6fef011461046557610121565b80630db065f4146101265780631c57333e1461018257806329d2270c146102475780632d35a8a214610341575b600080fd5b6101686004803603602081101561013c57600080fd5b81019080803573ffffffffffffffffffffffffffffffffffffffff169060200190929190505050610bb3565b604051808215151515815260200191505060405180910390f35b6102456004803603604081101561019857600080fd5b8101908080359060200190929190803590602001906401000000008111156101bf57600080fd5b8201836020820111156101d157600080fd5b803590602001918460018302840111640100000000831117156101f357600080fd5b91908080601f016020809104026020016040519081016040528093929190818152602001838380828437600081840152601f19601f820116905080830192505050505050509192919290505050610bd3565b005b6102736004803603602081101561025d57600080fd5b8101908080359060200190929190505050610ef3565b604051808781526020018673ffffffffffffffffffffffffffffffffffffffff1673ffffffffffffffffffffffffffffffffffffffff1681526020018060200185815260200184815260200183151515158152602001828103825286818151815260200191508051906020019080838360005b838110156103015780820151818401526020810190506102e6565b50505050905090810190601f16801561032e5780820380516001836020036101000a031916815260200191505b5097505050505050505060405180910390f35b610349610ff4565b6040518082815260200191505060405180910390f35b6103ab6004803603604081101561037557600080fd5b81019080803573ffffffffffffffffffffffffffffffffffffffff16906020019092919080359060200190929190505050610ffa565b005b6103ef600480360360208110156103c357600080fd5b81019080803573ffffffffffffffffffffffffffffffffffffffff1690602001909291905050506111a0565b6040518082815260200191505060405180910390f35b61040d6111b8565b6040518082815260200191505060405180910390f35b61044f6004803603602081101561043957600080fd5b81019080803590602001909291905050506111be565b6040518082815260200191505060405180910390f35b6104916004803603602081101561047b57600080fd5b81019080803590602001909291905050506111d6565b6040518086815260200180602001851515151581526020018415151515815260200183151515158152602001828103825286818151815260200191508051906020019080838360005b838110156104f55780820151818401526020810190506104da565b50505050905090810190601f1680156105225780820380516001836020036101000a031916815260200191505b50965050505050505060405180910390f35b61056a6004803603604081101561054a57600080fd5b8101908080359060200190929190803590602001909291905050506112cb565b604051808681526020018573ffffffffffffffffffffffffffffffffffffffff1673ffffffffffffffffffffffffffffffffffffffff16815260200180602001848152602001838152602001828103825285818151815260200191508051906020019080838360005b838110156105ee5780820151818401526020810190506105d3565b50505050905090810190601f16801561061b5780820380516001836020036101000a031916815260200191505b50965050505050505060405180910390f35b6106356113c6565b6040518082815260200191505060405180910390f35b6107046004803603602081101561066157600080fd5b810190808035906020019064010000000081111561067e57600080fd5b82018360208201111561069057600080fd5b803590602001918460018302840111640100000000831117156106b257600080fd5b91908080601f016020809104026020016040519081016040528093929190818152602001838380828437600081840152601f19601f8201169050808301925050505050505091929192905050506113cc565b005b6107486004803603602081101561071c57600080fd5b81019080803573ffffffffffffffffffffffffffffffffffffffff1690602001909291905050506115fd565b604051808481526020018373ffffffffffffffffffffffffffffffffffffffff1673ffffffffffffffffffffffffffffffffffffffff16815260200180602001828103825283818151815260200191508051906020019080838360005b838110156107c05780820151818401526020810190506107a5565b50505050905090810190601f1680156107ed5780820380516001836020036101000a031916815260200191505b5094505050505060405180910390f35b6108ca6004803603606081101561081357600080fd5b8101908080359060200190929190803590602001909291908035906020019064010000000081111561084457600080fd5b82018360208201111561085657600080fd5b8035906020019184600183028401116401000000008311171561087857600080fd5b91908080601f016020809104026020016040519081016040528093929190818152602001838380828437600081840152601f19601f8201169050808301925050505050505091929192905050506116df565b005b610918600480360360408110156108e257600080fd5b81019080803573ffffffffffffffffffffffffffffffffffffffff16906020019092919080359060200190929190505050611ccd565b6040518086815260200180602001851515151581526020018415151515815260200183151515158152602001828103825286818151815260200191508051906020019080838360005b8381101561097c578082015181840152602081019050610961565b50505050905090810190601f1680156109a95780820380516001836020036101000a031916815260200191505b50965050505050505060405180910390f35b6109e7600480360360208110156109d157600080fd5b8101908080359060200190929190505050611ddc565b005b610a35600480360360408110156109ff57600080fd5b81019080803573ffffffffffffffffffffffffffffffffffffffff169060200190929190803590602001909291905050506122da565b604051808781526020018673ffffffffffffffffffffffffffffffffffffffff1673ffffffffffffffffffffffffffffffffffffffff1681526020018060200185815260200184815260200183151515158152602001828103825286818151815260200191508051906020019080838360005b83811015610ac3578082015181840152602081019050610aa8565b50505050905090810190601f168015610af05780820380516001836020036101000a031916815260200191505b5097505050505050505060405180910390f35b610b4560048036036020811015610b1957600080fd5b81019080803573ffffffffffffffffffffffffffffffffffffffff1690602001909291905050506123f5565b6040518082815260200191505060405180910390f35b610bb160048036036060811015610b7157600080fd5b81019080803573ffffffffffffffffffffffffffffffffffffffff169060200190929190803590602001909291908035906020019092919050505061240d565b005b60076020528060005260406000206000915054906101000a900460ff1681565b6005600083815260200190815260200160002060009054906101000a900460ff1615610c67576040517f08c379a00000000000000000000000000000000000000000000000000000000081526004018080602001828103825260128152602001807f416c72656164792072656769737465726564000000000000000000000000000081525060200191505060405180910390fd5b600660003373ffffffffffffffffffffffffffffffffffffffff1673ffffffffffffffffffffffffffffffffffffffff16815260200190815260200160002060009054906101000a900460ff1615610d27576040517f08c379a00000000000000000000000000000000000000000000000000000000081526004018080602001828103825260148152602001807f4164647265737320416c7265616479205573656400000000000000000000000081525060200191505060405180910390fd5b60405180606001604052808381526020013373ffffffffffffffffffffffffffffffffffffffff16815260200182815250600460003373ffffffffffffffffffffffffffffffffffffffff1673ffffffffffffffffffffffffffffffffffffffff1681526020019081526020016000206000820151816000015560208201518160010160006101000a81548173ffffffffffffffffffffffffffffffffffffffff021916908373ffffffffffffffffffffffffffffffffffffffff1602179055506040820151816002019080519060200190610e049291906127a7565b5090505060016005600084815260200190815260200160002060006101000a81548160ff0219169083151502179055506001600660003373ffffffffffffffffffffffffffffffffffffffff1673ffffffffffffffffffffffffffffffffffffffff16815260200190815260200160002060006101000a81548160ff0219169083151502179055507fa02982b2bc3a73c1085708d7f219cd41d20d76be76f169fe5bca069e09a883e233604051808273ffffffffffffffffffffffffffffffffffffffff1673ffffffffffffffffffffffffffffffffffffffff16815260200191505060405180910390a15050565b600f6020528060005260406000206000915090508060000154908060010160009054906101000a900473ffffffffffffffffffffffffffffffffffffffff1690806002018054600181600116156101000203166002900480601f016020809104026020016040519081016040528092919081815260200182805460018160011615610100020316600290048015610fcb5780601f10610fa057610100808354040283529160200191610fcb565b820191906000526020600020905b815481529060010190602001808311610fae57829003601f168201915b5050505050908060030154908060040154908060050160009054906101000a900460ff16905086565b60025481565b6005600082815260200190815260200160002060009054906101000a900460ff1661108d576040517f08c379a00000000000000000000000000000000000000000000000000000000081526004018080602001828103825260128152602001807f554944204e6f742072656769737465726564000000000000000000000000000081525060200191505060405180910390fd5b80600460008473ffffffffffffffffffffffffffffffffffffffff1673ffffffffffffffffffffffffffffffffffffffff1681526020019081526020016000206000015414611144576040517f08c379a00000000000000000000000000000000000000000000000000000000081526004018080602001828103825260118152602001807f41646472657373204d6973736d6174636800000000000000000000000000000081525060200191505060405180910390fd5b6001600760008473ffffffffffffffffffffffffffffffffffffffff1673ffffffffffffffffffffffffffffffffffffffff16815260200190815260200160002060006101000a81548160ff0219169083151502179055505050565b600a6020528060005260406000206000915090505481565b60035481565b600c6020528060005260406000206000915090505481565b6008602052806000526040600020600091509050806000015490806001018054600181600116156101000203166002900480601f0160208091040260200160405190810160405280929190818152602001828054600181600116156101000203166002900480156112885780601f1061125d57610100808354040283529160200191611288565b820191906000526020600020905b81548152906001019060200180831161126b57829003601f168201915b5050505050908060020160009054906101000a900460ff16908060020160019054906101000a900460ff16908060020160029054906101000a900460ff16905085565b600b602052816000526040600020602052806000526040600020600091509150508060000154908060010160009054906101000a900473ffffffffffffffffffffffffffffffffffffffff1690806002018054600181600116156101000203166002900480601f0160208091040260200160405190810160405280929190818152602001828054600181600116156101000203166002900480156113b05780601f10611385576101008083540402835291602001916113b0565b820191906000526020600020905b81548152906001019060200180831161139357829003601f168201915b5050505050908060030154908060040154905085565b60015481565b6000809054906101000a900473ffffffffffffffffffffffffffffffffffffffff1673ffffffffffffffffffffffffffffffffffffffff163373ffffffffffffffffffffffffffffffffffffffff1614611471576040517f08c379a00000000000000000000000000000000000000000000000000000000081526004018080602001828103825260258152602001806129226025913960400191505060405180910390fd5b6001600081548092919060010191905055506040518060a001604052806001548152602001828152602001600015158152602001600015158152602001600015158152506008600060015481526020019081526020016000206000820151816000015560208201518160010190805190602001906114f09291906127a7565b5060408201518160020160006101000a81548160ff02191690831515021790555060608201518160020160016101000a81548160ff02191690831515021790555060808201518160020160026101000a81548160ff0219169083151502179055509050507f9d9d7b3c7fd391851f6b4b01ddcdb521bfca4fe5edbf21b0ea3e6ca9350af75c600154826040518083815260200180602001828103825283818151815260200191508051906020019080838360005b838110156115bf5780820151818401526020810190506115a4565b50505050905090810190601f1680156115ec5780820380516001836020036101000a031916815260200191505b50935050505060405180910390a150565b60046020528060005260406000206000915090508060000154908060010160009054906101000a900473ffffffffffffffffffffffffffffffffffffffff1690806002018054600181600116156101000203166002900480601f0160208091040260200160405190810160405280929190818152602001828054600181600116156101000203166002900480156116d55780601f106116aa576101008083540402835291602001916116d5565b820191906000526020600020905b8154815290600101906020018083116116b857829003601f168201915b5050505050905083565b60006008600085815260200190815260200160002060000154141561176c576040517f08c379a00000000000000000000000000000000000000000000000000000000081526004018080602001828103825260158152602001807f456c656374696f6e20646f65736e74206578697374000000000000000000000081525060200191505060405180910390fd5b6060600d60003373ffffffffffffffffffffffffffffffffffffffff1673ffffffffffffffffffffffffffffffffffffffff168152602001908152602001600020805480602002602001604051908101604052809291908181526020016000905b8282101561193057838290600052602060002090600602016040518060c0016040529081600082015481526020016001820160009054906101000a900473ffffffffffffffffffffffffffffffffffffffff1673ffffffffffffffffffffffffffffffffffffffff1673ffffffffffffffffffffffffffffffffffffffff168152602001600282018054600181600116156101000203166002900480601f0160208091040260200160405190810160405280929190818152602001828054600181600116156101000203166002900480156118e95780601f106118be576101008083540402835291602001916118e9565b820191906000526020600020905b8154815290600101906020018083116118cc57829003601f168201915b5050505050815260200160038201548152602001600482015481526020016005820160009054906101000a900460ff161515151581525050815260200190600101906117cd565b50505050905060006001905060008090505b825181101561197c578583828151811061195857fe5b602002602001015160800151141561196f57600091505b8080600101915050611942565b50806119d3576040517f08c379a00000000000000000000000000000000000000000000000000000000081526004018080602001828103825260318152602001806129476031913960400191505060405180910390fd5b600360008154809291906001019190505550600d60003373ffffffffffffffffffffffffffffffffffffffff1673ffffffffffffffffffffffffffffffffffffffff1681526020019081526020016000206040518060c0016040528060035481526020013373ffffffffffffffffffffffffffffffffffffffff16815260200185815260200186815260200187815260200160001515815250908060018154018082558091505090600182039060005260206000209060060201600090919290919091506000820151816000015560208201518160010160006101000a81548173ffffffffffffffffffffffffffffffffffffffff021916908373ffffffffffffffffffffffffffffffffffffffff1602179055506040820151816002019080519060200190611b049291906127a7565b50606082015181600301556080820151816004015560a08201518160050160006101000a81548160ff0219169083151502179055505050506040518060c0016040528060035481526020013373ffffffffffffffffffffffffffffffffffffffff16815260200184815260200185815260200186815260200160001515815250600f600060035481526020019081526020016000206000820151816000015560208201518160010160006101000a81548173ffffffffffffffffffffffffffffffffffffffff021916908373ffffffffffffffffffffffffffffffffffffffff1602179055506040820151816002019080519060200190611c069291906127a7565b50606082015181600301556080820151816004015560a08201518160050160006101000a81548160ff021916908315150217905550905050600e60003373ffffffffffffffffffffffffffffffffffffffff1673ffffffffffffffffffffffffffffffffffffffff168152602001908152602001600020600081548092919060010191905055507f43edd06d1afa7aa10c887b2a1ea0dc5a42e487c082f46883fe5d78d452b055f16003546040518082815260200191505060405180910390a15050505050565b60096020528160005260406000208181548110611ce657fe5b906000526020600020906003020160009150915050806000015490806001018054600181600116156101000203166002900480601f016020809104026020016040519081016040528092919081815260200182805460018160011615610100020316600290048015611d995780601f10611d6e57610100808354040283529160200191611d99565b820191906000526020600020905b815481529060010190602001808311611d7c57829003601f168201915b5050505050908060020160009054906101000a900460ff16908060020160019054906101000a900460ff16908060020160029054906101000a900460ff16905085565b6000809054906101000a900473ffffffffffffffffffffffffffffffffffffffff1673ffffffffffffffffffffffffffffffffffffffff163373ffffffffffffffffffffffffffffffffffffffff1614611e81576040517f08c379a00000000000000000000000000000000000000000000000000000000081526004018080602001828103825260258152602001806129226025913960400191505060405180910390fd5b6000600f6000838152602001908152602001600020600001541415611f0e576040517f08c379a00000000000000000000000000000000000000000000000000000000081526004018080602001828103825260118152602001807f52657175657374204e6f7420666f756e6400000000000000000000000000000081525060200191505060405180910390fd5b600f600082815260200190815260200160002060050160009054906101000a900460ff1615611fa5576040517f08c379a00000000000000000000000000000000000000000000000000000000081526004018080602001828103825260188152602001807f416c726561647920617070726f7665642072657175657374000000000000000081525060200191505060405180910390fd5b611fad612827565b600f60008381526020019081526020016000206040518060c0016040529081600082015481526020016001820160009054906101000a900473ffffffffffffffffffffffffffffffffffffffff1673ffffffffffffffffffffffffffffffffffffffff1673ffffffffffffffffffffffffffffffffffffffff168152602001600282018054600181600116156101000203166002900480601f0160208091040260200160405190810160405280929190818152602001828054600181600116156101000203166002900480156120c45780601f10612099576101008083540402835291602001916120c4565b820191906000526020600020905b8154815290600101906020018083116120a757829003601f168201915b5050505050815260200160038201548152602001600482015481526020016005820160009054906101000a900460ff16151515158152505090506001600f600084815260200190815260200160002060050160006101000a81548160ff021916908315150217905550600260008154809291906001019190505550600c600082608001518152602001908152602001600020600081548092919060010191905055506040518060a001604052806002548152602001826020015173ffffffffffffffffffffffffffffffffffffffff16815260200182604001518152602001600081526020018260600151815250600b6000836080015181526020019081526020016000206000600c6000856080015181526020019081526020016000205481526020019081526020016000206000820151816000015560208201518160010160006101000a81548173ffffffffffffffffffffffffffffffffffffffff021916908373ffffffffffffffffffffffffffffffffffffffff160217905550604082015181600201908051906020019061225e9291906127a7565b506060820151816003015560808201518160040155905050600c600082608001518152602001908152602001600020600081548092919060010191905055507fe6bea90b2b6afc3e6657c480a5c34eb15dbd9d53420edd2060ef2b6eadd9c7c16002546040518082815260200191505060405180910390a15050565b600d60205281600052604060002081815481106122f357fe5b9060005260206000209060060201600091509150508060000154908060010160009054906101000a900473ffffffffffffffffffffffffffffffffffffffff1690806002018054600181600116156101000203166002900480601f0160208091040260200160405190810160405280929190818152602001828054600181600116156101000203166002900480156123cc5780601f106123a1576101008083540402835291602001916123cc565b820191906000526020600020905b8154815290600101906020018083116123af57829003601f168201915b5050505050908060030154908060040154908060050160009054906101000a900460ff16905086565b600e6020528060005260406000206000915090505481565b6005600083815260200190815260200160002060009054906101000a900460ff166124a0576040517f08c379a00000000000000000000000000000000000000000000000000000000081526004018080602001828103825260128152602001807f554944204e6f742072656769737465726564000000000000000000000000000081525060200191505060405180910390fd5b81600460008573ffffffffffffffffffffffffffffffffffffffff1673ffffffffffffffffffffffffffffffffffffffff1681526020019081526020016000206000015414612557576040517f08c379a00000000000000000000000000000000000000000000000000000000081526004018080602001828103825260118152602001807f41646472657373204d6973736d6174636800000000000000000000000000000081525060200191505060405180910390fd5b6008600082815260200190815260200160002060020160009054906101000a900460ff166125ed576040517f08c379a000000000000000000000000000000000000000000000000000000000815260040180806020018281038252601b8152602001807f456c656374696f6e456e7469747920646f65736e74206578697374000000000081525060200191505060405180910390fd5b60086000828152602001908152602001600020600960008573ffffffffffffffffffffffffffffffffffffffff1673ffffffffffffffffffffffffffffffffffffffff168152602001908152602001600020600a60008673ffffffffffffffffffffffffffffffffffffffff1673ffffffffffffffffffffffffffffffffffffffff168152602001908152602001600020548154811061268957fe5b906000526020600020906003020160008201548160000155600182018160010190805460018160011615610100020316600290046126c8929190612875565b506002820160009054906101000a900460ff168160020160006101000a81548160ff0219169083151502179055506002820160019054906101000a900460ff168160020160016101000a81548160ff0219169083151502179055506002820160029054906101000a900460ff168160020160026101000a81548160ff021916908315150217905550905050600a60008473ffffffffffffffffffffffffffffffffffffffff1673ffffffffffffffffffffffffffffffffffffffff16815260200190815260200160002060008154809291906001019190505550505050565b828054600181600116156101000203166002900490600052602060002090601f016020900481019282601f106127e857805160ff1916838001178555612816565b82800160010185558215612816579182015b828111156128155782518255916020019190600101906127fa565b5b50905061282391906128fc565b5090565b6040518060c0016040528060008152602001600073ffffffffffffffffffffffffffffffffffffffff1681526020016060815260200160008152602001600081526020016000151581525090565b828054600181600116156101000203166002900490600052602060002090601f016020900481019282601f106128ae57805485556128eb565b828001600101855582156128eb57600052602060002091601f016020900482015b828111156128ea5782548255916001019190600101906128cf565b5b5090506128f891906128fc565b5090565b61291e91905b8082111561291a576000816000905550600101612902565b5090565b9056fe4f6e6c792061646d696e2063616e20706572666f726d2074686973206f7065726174696f6e416c72656164792072657175657374656420746f20706172746963697061746520696e207468617420656c656374696f6ea265627a7a723158208f808672b11407bab98f1062b92a956494b89414987e107d9e23619db586833964736f6c63430005100032",
  "source": "// SPDX-License-Identifier: SEE LICENSE IN LICENSE\npragma solidity ^0.5.16;\n\ncontract Election {\n    constructor() public {\n        admin = msg.sender; // Deployer is the admin\n    }\n\n    // VARIABLES\n    address admin;\n    uint public electionCount = 0;\n    uint public candidatesCount = 0;\n    uint public requestCount = 0;\n\n    // STRUCTURES\n\n    // Candidate Structure\n    struct Candidate {\n        uint id;\n        address candidateAddress;\n        string name;\n        uint voteCount;\n        uint uid;\n    }\n    // Election Candidate Participation Request\n    struct ParticipationRequest {\n        uint id;\n        address from;\n        string name;\n        uint uid;\n        uint electionId;\n        bool approved;\n    }\n    // An Entity of election structure\n    struct ElectionEntity {\n        uint id;\n        string name;\n        bool started;\n        bool ended;\n        bool accept_request;\n    }\n    // User structure\n    struct User {\n        uint uid;\n        address _address;\n        string name;\n    }\n\n    // EVENTS\n\n    // Event : USER Registered\n    event UserRegisteredEvent(address _address);\n    event ElectionCreatedEvent(uint electionId, string name);\n    event CandidateAddedEvent(uint candidateId, string name);\n    event ParticipationRequestEvent(uint requestId);\n    event ApprovedParticipationRequest(uint candidateId);\n    // MAPPINGS\n\n    // User related\n    mapping(address => User) public users; // get user by the address\n    mapping(uint => bool) private isRegistered; // userId and all registered users\n    mapping(address => bool) private isAddressUsed; // for checking if an address is already registered\n    mapping(address => bool) public verified; // for checking if a user is\n    // Election related\n    mapping(uint => ElectionEntity) public elections; // All Election Entities\n    mapping(address => ElectionEntity[]) public allowedElections; // Get allowed election to vote of a voter\n    mapping(address => uint) public allowedElectionsCount; // No of allowed elections to vote of a user\n    // Candidate related\n    // mapping(address => Candidate) public candidates; // All candidates and their address\n    mapping(uint => mapping(uint => Candidate)) public candidates; // Candidates in an election entity\n    mapping(uint => uint) public numberOfCandidates; // The number of candidates in an election entity\n    mapping(address => ParticipationRequest[]) public participationRequests; // All participation requests of a person\n    mapping(address => uint) public numberOfParticipationRequests; // The number of participation requests by a person\n    mapping(uint => ParticipationRequest) public allParticipationRequests; // All participation request\n\n    // MODIFIERS\n\n    modifier onlyAdmin() {\n        require(msg.sender == admin, \"Only admin can perform this operation\");\n        _;\n    }\n\n    // FUNCTIONS\n\n    // Function to register  user\n    function registerUser(uint uid, string memory _name) public {\n        require(!isRegistered[uid], \"Already registered\"); // The uid is not registered\n        require(!isAddressUsed[msg.sender], \"Address Already Used\"); // The address is not used\n\n        users[msg.sender] = User(uid, msg.sender, _name);\n        isRegistered[uid] = true;\n        isAddressUsed[msg.sender] = true;\n        emit UserRegisteredEvent(msg.sender);\n    }\n\n    // verify a user\n    function verifyUser(address user, uint uid) public {\n        require(isRegistered[uid], \"UID Not registered\");\n        require(users[user].uid == uid, \"Address Missmatch\");\n\n        verified[user] = true;\n    }\n\n    // approve a user to vote on a perticular election\n    function approveToVote(address user, uint uid, uint electionId) public {\n        require(isRegistered[uid], \"UID Not registered\");\n        require(users[user].uid == uid, \"Address Missmatch\");\n        require(elections[electionId].started, \"ElectionEntity doesnt exist\");\n\n        allowedElections[user][allowedElectionsCount[user]] = elections[\n            electionId\n        ];\n        allowedElectionsCount[user]++;\n    }\n\n    // add an election\n    function addElectionEntity(string memory name) public onlyAdmin {\n        electionCount++;\n        elections[electionCount] = ElectionEntity(\n            electionCount,\n            name,\n            false,\n            false,\n            false\n        );\n        emit ElectionCreatedEvent(electionCount, name);\n    }\n\n    // Function to request to participate in an election\n    function requestToParticipate(\n        uint electionId,\n        uint uid,\n        string memory name\n    ) public {\n        require(elections[electionId].id != 0, \"Election doesnt exist\");\n        // Check if already requested\n        ParticipationRequest[] memory requests = participationRequests[\n            msg.sender\n        ];\n        bool tmp = true;\n        for (uint256 i = 0; i < requests.length; i++) {\n            if (requests[i].electionId == electionId) {\n                tmp = false;\n            }\n        }\n        require(tmp, \"Already requested to participate in that election\");\n        requestCount++;\n        participationRequests[msg.sender].push(\n            ParticipationRequest(\n                requestCount,\n                msg.sender,\n                name,\n                uid,\n                electionId,\n                false\n            )\n        );\n        allParticipationRequests[requestCount] = ParticipationRequest(\n            requestCount,\n            msg.sender,\n            name,\n            uid,\n            electionId,\n            false\n        );\n        numberOfParticipationRequests[msg.sender]++;\n        emit ParticipationRequestEvent(requestCount);\n    }\n\n    // Approve a participation request\n    function approveRequest(uint id) public onlyAdmin {\n        require(allParticipationRequests[id].id != 0, \"Request Not found\");\n        require(\n            !allParticipationRequests[id].approved,\n            \"Already approved request\"\n        );\n        ParticipationRequest memory request = allParticipationRequests[id];\n        allParticipationRequests[id].approved = true;\n        candidatesCount++;\n        numberOfCandidates[request.electionId]++;\n        candidates[request.electionId][\n            numberOfCandidates[request.electionId]\n        ] = Candidate(\n            candidatesCount,\n            request.from,\n            request.name,\n            0,\n            request.uid\n        );\n        numberOfCandidates[request.electionId]++;\n        emit ApprovedParticipationRequest(candidatesCount);\n    }\n}\n",
  "sourcePath": "/home/aswanth/Desktop/E-Votting/blockchain/contracts/Election.sol",
  "compiler": {
    "name": "solc",
    "version": "0.5.16+commit.9c3226ce.Emscripten.clang"
  },
  "schemaVersion": "3.4.14",
  "updatedAt": "2023-07-26T17:25:00.228Z",
  "devdoc": {
    "methods": {}
  },
  "userdoc": {
    "methods": {}
  }
}