{
  "contractName": "Election",
  "abi": [
    {
      "inputs": [],
      "payable": false,
      "stateMutability": "nonpayable",
      "type": "constructor"
    },
    {
      "anonymous": false,
      "inputs": [
        {
          "indexed": false,
          "internalType": "address",
          "name": "_address",
          "type": "address"
        }
      ],
      "name": "UserRegisteredEvent",
      "type": "event"
    },
    {
      "constant": true,
      "inputs": [
        {
          "internalType": "address",
          "name": "",
          "type": "address"
        },
        {
          "internalType": "uint256",
          "name": "",
          "type": "uint256"
        }
      ],
      "name": "allowedElections",
      "outputs": [
        {
          "internalType": "uint256",
          "name": "id",
          "type": "uint256"
        },
        {
          "internalType": "string",
          "name": "name",
          "type": "string"
        },
        {
          "internalType": "bool",
          "name": "started",
          "type": "bool"
        },
        {
          "internalType": "bool",
          "name": "ended",
          "type": "bool"
        }
      ],
      "payable": false,
      "stateMutability": "view",
      "type": "function"
    },
    {
      "constant": true,
      "inputs": [
        {
          "internalType": "address",
          "name": "",
          "type": "address"
        }
      ],
      "name": "allowedElectionsCount",
      "outputs": [
        {
          "internalType": "uint256",
          "name": "",
          "type": "uint256"
        }
      ],
      "payable": false,
      "stateMutability": "view",
      "type": "function"
    },
    {
      "constant": true,
      "inputs": [
        {
          "internalType": "uint256",
          "name": "",
          "type": "uint256"
        }
      ],
      "name": "elections",
      "outputs": [
        {
          "internalType": "uint256",
          "name": "id",
          "type": "uint256"
        },
        {
          "internalType": "string",
          "name": "name",
          "type": "string"
        },
        {
          "internalType": "bool",
          "name": "started",
          "type": "bool"
        },
        {
          "internalType": "bool",
          "name": "ended",
          "type": "bool"
        }
      ],
      "payable": false,
      "stateMutability": "view",
      "type": "function"
    },
    {
      "constant": true,
      "inputs": [
        {
          "internalType": "address",
          "name": "",
          "type": "address"
        }
      ],
      "name": "users",
      "outputs": [
        {
          "internalType": "uint256",
          "name": "uid",
          "type": "uint256"
        },
        {
          "internalType": "address",
          "name": "_address",
          "type": "address"
        },
        {
          "internalType": "string",
          "name": "name",
          "type": "string"
        }
      ],
      "payable": false,
      "stateMutability": "view",
      "type": "function"
    },
    {
      "constant": true,
      "inputs": [
        {
          "internalType": "address",
          "name": "",
          "type": "address"
        }
      ],
      "name": "verified",
      "outputs": [
        {
          "internalType": "bool",
          "name": "",
          "type": "bool"
        }
      ],
      "payable": false,
      "stateMutability": "view",
      "type": "function"
    },
    {
      "constant": false,
      "inputs": [
        {
          "internalType": "uint256",
          "name": "uid",
          "type": "uint256"
        },
        {
          "internalType": "string",
          "name": "_name",
          "type": "string"
        }
      ],
      "name": "registerUser",
      "outputs": [],
      "payable": false,
      "stateMutability": "nonpayable",
      "type": "function"
    },
    {
      "constant": false,
      "inputs": [
        {
          "internalType": "address",
          "name": "user",
          "type": "address"
        },
        {
          "internalType": "uint256",
          "name": "uid",
          "type": "uint256"
        }
      ],
      "name": "verifyUser",
      "outputs": [],
      "payable": false,
      "stateMutability": "nonpayable",
      "type": "function"
    },
    {
      "constant": false,
      "inputs": [
        {
          "internalType": "address",
          "name": "user",
          "type": "address"
        },
        {
          "internalType": "uint256",
          "name": "uid",
          "type": "uint256"
        },
        {
          "internalType": "uint256",
          "name": "electionId",
          "type": "uint256"
        }
      ],
      "name": "approveToVote",
      "outputs": [],
      "payable": false,
      "stateMutability": "nonpayable",
      "type": "function"
    }
  ],
  "bytecode": "0x608060405234801561001057600080fd5b506112ac806100206000396000f3fe608060405234801561001057600080fd5b50600436106100885760003560e01c80635e6fef011161005b5780635e6fef0114610254578063a87430ba14610318578063d7ce122e1461040f578063fdb5f3fb146104f357610088565b80630db065f41461008d5780631c57333e146100e957806332d345da146101ae57806355065289146101fc575b600080fd5b6100cf600480360360208110156100a357600080fd5b81019080803573ffffffffffffffffffffffffffffffffffffffff16906020019092919050505061054b565b604051808215151515815260200191505060405180910390f35b6101ac600480360360408110156100ff57600080fd5b81019080803590602001909291908035906020019064010000000081111561012657600080fd5b82018360208201111561013857600080fd5b8035906020019184600183028401116401000000008311171561015a57600080fd5b91908080601f016020809104026020016040519081016040528093929190818152602001838380828437600081840152601f19601f82011690508083019250505050505050919291929050505061056b565b005b6101fa600480360360408110156101c457600080fd5b81019080803573ffffffffffffffffffffffffffffffffffffffff16906020019092919080359060200190929190505050610830565b005b61023e6004803603602081101561021257600080fd5b81019080803573ffffffffffffffffffffffffffffffffffffffff1690602001909291905050506109d5565b6040518082815260200191505060405180910390f35b6102806004803603602081101561026a57600080fd5b81019080803590602001909291905050506109ed565b60405180858152602001806020018415151515815260200183151515158152602001828103825285818151815260200191508051906020019080838360005b838110156102da5780820151818401526020810190506102bf565b50505050905090810190601f1680156103075780820380516001836020036101000a031916815260200191505b509550505050505060405180910390f35b61035a6004803603602081101561032e57600080fd5b81019080803573ffffffffffffffffffffffffffffffffffffffff169060200190929190505050610acf565b604051808481526020018373ffffffffffffffffffffffffffffffffffffffff1673ffffffffffffffffffffffffffffffffffffffff16815260200180602001828103825283818151815260200191508051906020019080838360005b838110156103d25780820151818401526020810190506103b7565b50505050905090810190601f1680156103ff5780820380516001836020036101000a031916815260200191505b5094505050505060405180910390f35b61045b6004803603604081101561042557600080fd5b81019080803573ffffffffffffffffffffffffffffffffffffffff16906020019092919080359060200190929190505050610bb1565b60405180858152602001806020018415151515815260200183151515158152602001828103825285818151815260200191508051906020019080838360005b838110156104b557808201518184015260208101905061049a565b50505050905090810190601f1680156104e25780820380516001836020036101000a031916815260200191505b509550505050505060405180910390f35b6105496004803603606081101561050957600080fd5b81019080803573ffffffffffffffffffffffffffffffffffffffff1690602001909291908035906020019092919080359060200190929190505050610cad565b005b60036020528060005260406000206000915054906101000a900460ff1681565b6001600083815260200190815260200160002060009054906101000a900460ff16156105ff576040517f08c379a00000000000000000000000000000000000000000000000000000000081526004018080602001828103825260128152602001807f416c72656164792072656769737465726564000000000000000000000000000081525060200191505060405180910390fd5b600260003373ffffffffffffffffffffffffffffffffffffffff1673ffffffffffffffffffffffffffffffffffffffff16815260200190815260200160002060009054906101000a900460ff166106be576040517f08c379a00000000000000000000000000000000000000000000000000000000081526004018080602001828103825260148152602001807f4164647265737320416c7265616479205573656400000000000000000000000081525060200191505060405180910390fd5b60405180606001604052808381526020013373ffffffffffffffffffffffffffffffffffffffff168152602001828152506000803373ffffffffffffffffffffffffffffffffffffffff1673ffffffffffffffffffffffffffffffffffffffff1681526020019081526020016000206000820151816000015560208201518160010160006101000a81548173ffffffffffffffffffffffffffffffffffffffff021916908373ffffffffffffffffffffffffffffffffffffffff160217905550604082015181600201908051906020019061079a929190611030565b50905050600180600084815260200190815260200160002060006101000a81548160ff0219169083151502179055507fa02982b2bc3a73c1085708d7f219cd41d20d76be76f169fe5bca069e09a883e233604051808273ffffffffffffffffffffffffffffffffffffffff1673ffffffffffffffffffffffffffffffffffffffff16815260200191505060405180910390a15050565b6001600082815260200190815260200160002060009054906101000a900460ff166108c3576040517f08c379a00000000000000000000000000000000000000000000000000000000081526004018080602001828103825260128152602001807f554944204e6f742072656769737465726564000000000000000000000000000081525060200191505060405180910390fd5b806000808473ffffffffffffffffffffffffffffffffffffffff1673ffffffffffffffffffffffffffffffffffffffff1681526020019081526020016000206000015414610979576040517f08c379a00000000000000000000000000000000000000000000000000000000081526004018080602001828103825260118152602001807f41646472657373204d6973736d6174636800000000000000000000000000000081525060200191505060405180910390fd5b6001600360008473ffffffffffffffffffffffffffffffffffffffff1673ffffffffffffffffffffffffffffffffffffffff16815260200190815260200160002060006101000a81548160ff0219169083151502179055505050565b60066020528060005260406000206000915090505481565b6004602052806000526040600020600091509050806000015490806001018054600181600116156101000203166002900480601f016020809104026020016040519081016040528092919081815260200182805460018160011615610100020316600290048015610a9f5780601f10610a7457610100808354040283529160200191610a9f565b820191906000526020600020905b815481529060010190602001808311610a8257829003601f168201915b5050505050908060030160009054906101000a900460ff16908060030160019054906101000a900460ff16905084565b60006020528060005260406000206000915090508060000154908060010160009054906101000a900473ffffffffffffffffffffffffffffffffffffffff1690806002018054600181600116156101000203166002900480601f016020809104026020016040519081016040528092919081815260200182805460018160011615610100020316600290048015610ba75780601f10610b7c57610100808354040283529160200191610ba7565b820191906000526020600020905b815481529060010190602001808311610b8a57829003601f168201915b5050505050905083565b60056020528160005260406000208181548110610bca57fe5b906000526020600020906004020160009150915050806000015490806001018054600181600116156101000203166002900480601f016020809104026020016040519081016040528092919081815260200182805460018160011615610100020316600290048015610c7d5780601f10610c5257610100808354040283529160200191610c7d565b820191906000526020600020905b815481529060010190602001808311610c6057829003601f168201915b5050505050908060030160009054906101000a900460ff16908060030160019054906101000a900460ff16905084565b6001600083815260200190815260200160002060009054906101000a900460ff16610d40576040517f08c379a00000000000000000000000000000000000000000000000000000000081526004018080602001828103825260128152602001807f554944204e6f742072656769737465726564000000000000000000000000000081525060200191505060405180910390fd5b816000808573ffffffffffffffffffffffffffffffffffffffff1673ffffffffffffffffffffffffffffffffffffffff1681526020019081526020016000206000015414610df6576040517f08c379a00000000000000000000000000000000000000000000000000000000081526004018080602001828103825260118152602001807f41646472657373204d6973736d6174636800000000000000000000000000000081525060200191505060405180910390fd5b6004600082815260200190815260200160002060030160009054906101000a900460ff16610e8c576040517f08c379a000000000000000000000000000000000000000000000000000000000815260040180806020018281038252601b8152602001807f456c656374696f6e456e7469747920646f65736e74206578697374000000000081525060200191505060405180910390fd5b60046000828152602001908152602001600020600560008573ffffffffffffffffffffffffffffffffffffffff1673ffffffffffffffffffffffffffffffffffffffff168152602001908152602001600020600660008673ffffffffffffffffffffffffffffffffffffffff1673ffffffffffffffffffffffffffffffffffffffff1681526020019081526020016000205481548110610f2857fe5b90600052602060002090600402016000820154816000015560018201816001019080546001816001161561010002031660029004610f679291906110b0565b506002820181600201908054610f7e929190611137565b506003820160009054906101000a900460ff168160030160006101000a81548160ff0219169083151502179055506003820160019054906101000a900460ff168160030160016101000a81548160ff021916908315150217905550905050600660008473ffffffffffffffffffffffffffffffffffffffff1673ffffffffffffffffffffffffffffffffffffffff16815260200190815260200160002060008154809291906001019190505550505050565b828054600181600116156101000203166002900490600052602060002090601f016020900481019282601f1061107157805160ff191683800117855561109f565b8280016001018555821561109f579182015b8281111561109e578251825591602001919060010190611083565b5b5090506110ac91906111cb565b5090565b828054600181600116156101000203166002900490600052602060002090601f016020900481019282601f106110e95780548555611126565b8280016001018555821561112657600052602060002091601f016020900482015b8281111561112557825482559160010191906001019061110a565b5b50905061113391906111cb565b5090565b8280548282559060005260206000209060030281019282156111ba5760005260206000209160030282015b828111156111b9578282600082015481600001556001820181600101908054600181600116156101000203166002900461119d9291906110b0565b5060028201548160020155505091600301919060030190611162565b5b5090506111c791906111f0565b5090565b6111ed91905b808211156111e95760008160009055506001016111d1565b5090565b90565b61122c91905b8082111561122857600080820160009055600182016000611217919061122f565b6002820160009055506003016111f6565b5090565b90565b50805460018160011615610100020316600290046000825580601f106112555750611274565b601f01602090049060005260206000209081019061127391906111cb565b5b5056fea265627a7a7231582013b9470c1af0b0edaa0d701db971431bb845023d333714a57f067c396520284064736f6c63430005100032",
  "source": "// SPDX-License-Identifier: SEE LICENSE IN LICENSE\npragma solidity ^0.5.16;\n\ncontract Election {\n    constructor() public {}\n\n    // STRUCTURES\n\n    // Candidate Structure\n    struct Candidate {\n        uint id;\n        string name;\n        uint voteCount;\n    }\n    // An Entity of election structure\n    struct ElectionEntity {\n        uint id;\n        string name;\n        Candidate[] candidates;\n        bool started;\n        bool ended;\n    }\n    // User structure\n    struct User {\n        uint uid;\n        address _address;\n        string name;\n    }\n\n    // EVENTS\n\n    // Event : USER Registered\n    event UserRegisteredEvent(address _address);\n\n    // MAPPINGS\n\n    // User related\n    mapping(address => User) public users; // get user by the address\n    mapping(uint => bool) private isRegistered; // userId and all registered users\n    mapping(address => bool) private isAddressUsed; // for checking if an address is already registered\n    mapping(address => bool) public verified; // for checking if a user is verified\n    // election realted\n    mapping(uint => ElectionEntity) public elections; // All Election Entities\n    mapping(address => ElectionEntity[]) public allowedElections; // Get allowed election to vote of a voter\n    mapping(address => uint) public allowedElectionsCount;\n\n    // FUNCTIONS\n\n    // Function to register  user\n    function registerUser(uint uid, string memory _name) public {\n        require(!isRegistered[uid], \"Already registered\"); // The uid is not registered\n        require(isAddressUsed[msg.sender], \"Address Already Used\"); // The address is not used\n\n        users[msg.sender] = User(uid, msg.sender, _name);\n        isRegistered[uid] = true;\n        emit UserRegisteredEvent(msg.sender);\n    }\n\n    // verify a user\n    function verifyUser(address user, uint uid) public {\n        require(isRegistered[uid], \"UID Not registered\");\n        require(users[user].uid == uid, \"Address Missmatch\");\n\n        verified[user] = true;\n    }\n\n    // approve a user to vote on a perticular election\n    function approveToVote(address user, uint uid, uint electionId) public {\n        require(isRegistered[uid], \"UID Not registered\");\n        require(users[user].uid == uid, \"Address Missmatch\");\n        require(elections[electionId].started, \"ElectionEntity doesnt exist\");\n\n        allowedElections[user][allowedElectionsCount[user]] = elections[\n            electionId\n        ];\n        allowedElectionsCount[user]++;\n    }\n}\n",
  "sourcePath": "/home/aswanth/Desktop/E-Votting/blockchain/contracts/Election.sol",
  "compiler": {
    "name": "solc",
    "version": "0.5.16+commit.9c3226ce.Emscripten.clang"
  },
  "schemaVersion": "3.4.14",
  "updatedAt": "2023-07-25T08:43:58.114Z",
  "networkType": "ethereum",
  "devdoc": {
    "methods": {}
  },
  "userdoc": {
    "methods": {}
  }
}