{
  "contractName": "Election",
  "abi": [
    {
      "inputs": [],
      "payable": false,
      "stateMutability": "nonpayable",
      "type": "constructor"
    },
    {
      "anonymous": false,
      "inputs": [
        {
          "indexed": false,
          "internalType": "uint256",
          "name": "candidateId",
          "type": "uint256"
        }
      ],
      "name": "ApprovedParticipationRequest",
      "type": "event"
    },
    {
      "anonymous": false,
      "inputs": [
        {
          "indexed": false,
          "internalType": "uint256",
          "name": "candidateId",
          "type": "uint256"
        },
        {
          "indexed": false,
          "internalType": "string",
          "name": "name",
          "type": "string"
        }
      ],
      "name": "CandidateAddedEvent",
      "type": "event"
    },
    {
      "anonymous": false,
      "inputs": [
        {
          "indexed": false,
          "internalType": "uint256",
          "name": "electionId",
          "type": "uint256"
        },
        {
          "indexed": false,
          "internalType": "string",
          "name": "name",
          "type": "string"
        }
      ],
      "name": "ElectionCreatedEvent",
      "type": "event"
    },
    {
      "anonymous": false,
      "inputs": [
        {
          "indexed": false,
          "internalType": "uint256",
          "name": "requestId",
          "type": "uint256"
        }
      ],
      "name": "ParticipationRequestEvent",
      "type": "event"
    },
    {
      "anonymous": false,
      "inputs": [
        {
          "indexed": false,
          "internalType": "address",
          "name": "_address",
          "type": "address"
        }
      ],
      "name": "UserRegisteredEvent",
      "type": "event"
    },
    {
      "constant": true,
      "inputs": [
        {
          "internalType": "uint256",
          "name": "",
          "type": "uint256"
        }
      ],
      "name": "allParticipationRequests",
      "outputs": [
        {
          "internalType": "uint256",
          "name": "id",
          "type": "uint256"
        },
        {
          "internalType": "address",
          "name": "from",
          "type": "address"
        },
        {
          "internalType": "string",
          "name": "name",
          "type": "string"
        },
        {
          "internalType": "uint256",
          "name": "uid",
          "type": "uint256"
        },
        {
          "internalType": "uint256",
          "name": "electionId",
          "type": "uint256"
        },
        {
          "internalType": "bool",
          "name": "approved",
          "type": "bool"
        }
      ],
      "payable": false,
      "stateMutability": "view",
      "type": "function"
    },
    {
      "constant": true,
      "inputs": [
        {
          "internalType": "address",
          "name": "",
          "type": "address"
        },
        {
          "internalType": "uint256",
          "name": "",
          "type": "uint256"
        }
      ],
      "name": "allowedElections",
      "outputs": [
        {
          "internalType": "uint256",
          "name": "id",
          "type": "uint256"
        },
        {
          "internalType": "string",
          "name": "name",
          "type": "string"
        },
        {
          "internalType": "bool",
          "name": "started",
          "type": "bool"
        },
        {
          "internalType": "bool",
          "name": "ended",
          "type": "bool"
        },
        {
          "internalType": "bool",
          "name": "accept_request",
          "type": "bool"
        }
      ],
      "payable": false,
      "stateMutability": "view",
      "type": "function"
    },
    {
      "constant": true,
      "inputs": [
        {
          "internalType": "address",
          "name": "",
          "type": "address"
        }
      ],
      "name": "allowedElectionsCount",
      "outputs": [
        {
          "internalType": "uint256",
          "name": "",
          "type": "uint256"
        }
      ],
      "payable": false,
      "stateMutability": "view",
      "type": "function"
    },
    {
      "constant": true,
      "inputs": [
        {
          "internalType": "uint256",
          "name": "",
          "type": "uint256"
        },
        {
          "internalType": "uint256",
          "name": "",
          "type": "uint256"
        }
      ],
      "name": "candidates",
      "outputs": [
        {
          "internalType": "uint256",
          "name": "id",
          "type": "uint256"
        },
        {
          "internalType": "address",
          "name": "candidateAddress",
          "type": "address"
        },
        {
          "internalType": "string",
          "name": "name",
          "type": "string"
        },
        {
          "internalType": "uint256",
          "name": "voteCount",
          "type": "uint256"
        },
        {
          "internalType": "uint256",
          "name": "uid",
          "type": "uint256"
        }
      ],
      "payable": false,
      "stateMutability": "view",
      "type": "function"
    },
    {
      "constant": true,
      "inputs": [
        {
          "internalType": "uint256",
          "name": "",
          "type": "uint256"
        }
      ],
      "name": "elections",
      "outputs": [
        {
          "internalType": "uint256",
          "name": "id",
          "type": "uint256"
        },
        {
          "internalType": "string",
          "name": "name",
          "type": "string"
        },
        {
          "internalType": "bool",
          "name": "started",
          "type": "bool"
        },
        {
          "internalType": "bool",
          "name": "ended",
          "type": "bool"
        },
        {
          "internalType": "bool",
          "name": "accept_request",
          "type": "bool"
        }
      ],
      "payable": false,
      "stateMutability": "view",
      "type": "function"
    },
    {
      "constant": true,
      "inputs": [
        {
          "internalType": "address",
          "name": "",
          "type": "address"
        },
        {
          "internalType": "uint256",
          "name": "",
          "type": "uint256"
        }
      ],
      "name": "participationRequests",
      "outputs": [
        {
          "internalType": "uint256",
          "name": "id",
          "type": "uint256"
        },
        {
          "internalType": "address",
          "name": "from",
          "type": "address"
        },
        {
          "internalType": "string",
          "name": "name",
          "type": "string"
        },
        {
          "internalType": "uint256",
          "name": "uid",
          "type": "uint256"
        },
        {
          "internalType": "uint256",
          "name": "electionId",
          "type": "uint256"
        },
        {
          "internalType": "bool",
          "name": "approved",
          "type": "bool"
        }
      ],
      "payable": false,
      "stateMutability": "view",
      "type": "function"
    },
    {
      "constant": true,
      "inputs": [
        {
          "internalType": "address",
          "name": "",
          "type": "address"
        }
      ],
      "name": "users",
      "outputs": [
        {
          "internalType": "uint256",
          "name": "uid",
          "type": "uint256"
        },
        {
          "internalType": "address",
          "name": "_address",
          "type": "address"
        },
        {
          "internalType": "string",
          "name": "name",
          "type": "string"
        }
      ],
      "payable": false,
      "stateMutability": "view",
      "type": "function"
    },
    {
      "constant": true,
      "inputs": [
        {
          "internalType": "address",
          "name": "",
          "type": "address"
        }
      ],
      "name": "verified",
      "outputs": [
        {
          "internalType": "bool",
          "name": "",
          "type": "bool"
        }
      ],
      "payable": false,
      "stateMutability": "view",
      "type": "function"
    },
    {
      "constant": false,
      "inputs": [
        {
          "internalType": "uint256",
          "name": "uid",
          "type": "uint256"
        },
        {
          "internalType": "string",
          "name": "_name",
          "type": "string"
        }
      ],
      "name": "registerUser",
      "outputs": [],
      "payable": false,
      "stateMutability": "nonpayable",
      "type": "function"
    },
    {
      "constant": false,
      "inputs": [
        {
          "internalType": "address",
          "name": "user",
          "type": "address"
        },
        {
          "internalType": "uint256",
          "name": "uid",
          "type": "uint256"
        }
      ],
      "name": "verifyUser",
      "outputs": [],
      "payable": false,
      "stateMutability": "nonpayable",
      "type": "function"
    },
    {
      "constant": false,
      "inputs": [
        {
          "internalType": "address",
          "name": "user",
          "type": "address"
        },
        {
          "internalType": "uint256",
          "name": "uid",
          "type": "uint256"
        },
        {
          "internalType": "uint256",
          "name": "electionId",
          "type": "uint256"
        }
      ],
      "name": "approveToVote",
      "outputs": [],
      "payable": false,
      "stateMutability": "nonpayable",
      "type": "function"
    },
    {
      "constant": false,
      "inputs": [
        {
          "internalType": "string",
          "name": "name",
          "type": "string"
        }
      ],
      "name": "addElectionEntity",
      "outputs": [],
      "payable": false,
      "stateMutability": "nonpayable",
      "type": "function"
    },
    {
      "constant": false,
      "inputs": [
        {
          "internalType": "uint256",
          "name": "electionId",
          "type": "uint256"
        },
        {
          "internalType": "uint256",
          "name": "uid",
          "type": "uint256"
        },
        {
          "internalType": "string",
          "name": "name",
          "type": "string"
        }
      ],
      "name": "requestToParticipate",
      "outputs": [],
      "payable": false,
      "stateMutability": "nonpayable",
      "type": "function"
    },
    {
      "constant": false,
      "inputs": [
        {
          "internalType": "uint256",
          "name": "id",
          "type": "uint256"
        }
      ],
      "name": "approveRequest",
      "outputs": [],
      "payable": false,
      "stateMutability": "nonpayable",
      "type": "function"
    }
  ],
  "bytecode": "0x608060405260006001556000600255600060035534801561001f57600080fd5b50336000806101000a81548173ffffffffffffffffffffffffffffffffffffffff021916908373ffffffffffffffffffffffffffffffffffffffff1602179055506127b28061006f6000396000f3fe608060405234801561001057600080fd5b50600436106100ea5760003560e01c80639e2188751161008c578063d7ce122e11610066578063d7ce122e146107f9578063d7d1bbdb146108e8578063e4c99adc14610916578063fdb5f3fb14610a30576100ea565b80639e21887514610578578063a87430ba14610633578063cb7510901461072a576100ea565b806332d345da116100c857806332d345da1461030a57806355065289146103585780635e6fef01146103b05780637de142421461047f576100ea565b80630db065f4146100ef5780631c57333e1461014b57806329d2270c14610210575b600080fd5b6101316004803603602081101561010557600080fd5b81019080803573ffffffffffffffffffffffffffffffffffffffff169060200190929190505050610a88565b604051808215151515815260200191505060405180910390f35b61020e6004803603604081101561016157600080fd5b81019080803590602001909291908035906020019064010000000081111561018857600080fd5b82018360208201111561019a57600080fd5b803590602001918460018302840111640100000000831117156101bc57600080fd5b91908080601f016020809104026020016040519081016040528093929190818152602001838380828437600081840152601f19601f820116905080830192505050505050509192919290505050610aa8565b005b61023c6004803603602081101561022657600080fd5b8101908080359060200190929190505050610dc8565b604051808781526020018673ffffffffffffffffffffffffffffffffffffffff1673ffffffffffffffffffffffffffffffffffffffff1681526020018060200185815260200184815260200183151515158152602001828103825286818151815260200191508051906020019080838360005b838110156102ca5780820151818401526020810190506102af565b50505050905090810190601f1680156102f75780820380516001836020036101000a031916815260200191505b5097505050505050505060405180910390f35b6103566004803603604081101561032057600080fd5b81019080803573ffffffffffffffffffffffffffffffffffffffff16906020019092919080359060200190929190505050610ec9565b005b61039a6004803603602081101561036e57600080fd5b81019080803573ffffffffffffffffffffffffffffffffffffffff16906020019092919050505061106f565b6040518082815260200191505060405180910390f35b6103dc600480360360208110156103c657600080fd5b8101908080359060200190929190505050611087565b6040518086815260200180602001851515151581526020018415151515815260200183151515158152602001828103825286818151815260200191508051906020019080838360005b83811015610440578082015181840152602081019050610425565b50505050905090810190601f16801561046d5780820380516001836020036101000a031916815260200191505b50965050505050505060405180910390f35b6104b56004803603604081101561049557600080fd5b81019080803590602001909291908035906020019092919050505061117c565b604051808681526020018573ffffffffffffffffffffffffffffffffffffffff1673ffffffffffffffffffffffffffffffffffffffff16815260200180602001848152602001838152602001828103825285818151815260200191508051906020019080838360005b8381101561053957808201518184015260208101905061051e565b50505050905090810190601f1680156105665780820380516001836020036101000a031916815260200191505b50965050505050505060405180910390f35b6106316004803603602081101561058e57600080fd5b81019080803590602001906401000000008111156105ab57600080fd5b8201836020820111156105bd57600080fd5b803590602001918460018302840111640100000000831117156105df57600080fd5b91908080601f016020809104026020016040519081016040528093929190818152602001838380828437600081840152601f19601f820116905080830192505050505050509192919290505050611284565b005b6106756004803603602081101561064957600080fd5b81019080803573ffffffffffffffffffffffffffffffffffffffff1690602001909291905050506114b5565b604051808481526020018373ffffffffffffffffffffffffffffffffffffffff1673ffffffffffffffffffffffffffffffffffffffff16815260200180602001828103825283818151815260200191508051906020019080838360005b838110156106ed5780820151818401526020810190506106d2565b50505050905090810190601f16801561071a5780820380516001836020036101000a031916815260200191505b5094505050505060405180910390f35b6107f76004803603606081101561074057600080fd5b8101908080359060200190929190803590602001909291908035906020019064010000000081111561077157600080fd5b82018360208201111561078357600080fd5b803590602001918460018302840111640100000000831117156107a557600080fd5b91908080601f016020809104026020016040519081016040528093929190818152602001838380828437600081840152601f19601f820116905080830192505050505050509192919290505050611597565b005b6108456004803603604081101561080f57600080fd5b81019080803573ffffffffffffffffffffffffffffffffffffffff16906020019092919080359060200190929190505050611b36565b6040518086815260200180602001851515151581526020018415151515815260200183151515158152602001828103825286818151815260200191508051906020019080838360005b838110156108a957808201518184015260208101905061088e565b50505050905090810190601f1680156108d65780820380516001836020036101000a031916815260200191505b50965050505050505060405180910390f35b610914600480360360208110156108fe57600080fd5b8101908080359060200190929190505050611c45565b005b6109626004803603604081101561092c57600080fd5b81019080803573ffffffffffffffffffffffffffffffffffffffff169060200190929190803590602001909291905050506120f8565b604051808781526020018673ffffffffffffffffffffffffffffffffffffffff1673ffffffffffffffffffffffffffffffffffffffff1681526020018060200185815260200184815260200183151515158152602001828103825286818151815260200191508051906020019080838360005b838110156109f05780820151818401526020810190506109d5565b50505050905090810190601f168015610a1d5780820380516001836020036101000a031916815260200191505b5097505050505050505060405180910390f35b610a8660048036036060811015610a4657600080fd5b81019080803573ffffffffffffffffffffffffffffffffffffffff1690602001909291908035906020019092919080359060200190929190505050612213565b005b60076020528060005260406000206000915054906101000a900460ff1681565b6005600083815260200190815260200160002060009054906101000a900460ff1615610b3c576040517f08c379a00000000000000000000000000000000000000000000000000000000081526004018080602001828103825260128152602001807f416c72656164792072656769737465726564000000000000000000000000000081525060200191505060405180910390fd5b600660003373ffffffffffffffffffffffffffffffffffffffff1673ffffffffffffffffffffffffffffffffffffffff16815260200190815260200160002060009054906101000a900460ff1615610bfc576040517f08c379a00000000000000000000000000000000000000000000000000000000081526004018080602001828103825260148152602001807f4164647265737320416c7265616479205573656400000000000000000000000081525060200191505060405180910390fd5b60405180606001604052808381526020013373ffffffffffffffffffffffffffffffffffffffff16815260200182815250600460003373ffffffffffffffffffffffffffffffffffffffff1673ffffffffffffffffffffffffffffffffffffffff1681526020019081526020016000206000820151816000015560208201518160010160006101000a81548173ffffffffffffffffffffffffffffffffffffffff021916908373ffffffffffffffffffffffffffffffffffffffff1602179055506040820151816002019080519060200190610cd99291906125ad565b5090505060016005600084815260200190815260200160002060006101000a81548160ff0219169083151502179055506001600660003373ffffffffffffffffffffffffffffffffffffffff1673ffffffffffffffffffffffffffffffffffffffff16815260200190815260200160002060006101000a81548160ff0219169083151502179055507fa02982b2bc3a73c1085708d7f219cd41d20d76be76f169fe5bca069e09a883e233604051808273ffffffffffffffffffffffffffffffffffffffff1673ffffffffffffffffffffffffffffffffffffffff16815260200191505060405180910390a15050565b600d6020528060005260406000206000915090508060000154908060010160009054906101000a900473ffffffffffffffffffffffffffffffffffffffff1690806002018054600181600116156101000203166002900480601f016020809104026020016040519081016040528092919081815260200182805460018160011615610100020316600290048015610ea05780601f10610e7557610100808354040283529160200191610ea0565b820191906000526020600020905b815481529060010190602001808311610e8357829003601f168201915b5050505050908060030154908060040154908060050160009054906101000a900460ff16905086565b6005600082815260200190815260200160002060009054906101000a900460ff16610f5c576040517f08c379a00000000000000000000000000000000000000000000000000000000081526004018080602001828103825260128152602001807f554944204e6f742072656769737465726564000000000000000000000000000081525060200191505060405180910390fd5b80600460008473ffffffffffffffffffffffffffffffffffffffff1673ffffffffffffffffffffffffffffffffffffffff1681526020019081526020016000206000015414611013576040517f08c379a00000000000000000000000000000000000000000000000000000000081526004018080602001828103825260118152602001807f41646472657373204d6973736d6174636800000000000000000000000000000081525060200191505060405180910390fd5b6001600760008473ffffffffffffffffffffffffffffffffffffffff1673ffffffffffffffffffffffffffffffffffffffff16815260200190815260200160002060006101000a81548160ff0219169083151502179055505050565b600a6020528060005260406000206000915090505481565b6008602052806000526040600020600091509050806000015490806001018054600181600116156101000203166002900480601f0160208091040260200160405190810160405280929190818152602001828054600181600116156101000203166002900480156111395780601f1061110e57610100808354040283529160200191611139565b820191906000526020600020905b81548152906001019060200180831161111c57829003601f168201915b5050505050908060020160009054906101000a900460ff16908060020160019054906101000a900460ff16908060020160029054906101000a900460ff16905085565b600b602052816000526040600020818154811061119557fe5b9060005260206000209060050201600091509150508060000154908060010160009054906101000a900473ffffffffffffffffffffffffffffffffffffffff1690806002018054600181600116156101000203166002900480601f01602080910402602001604051908101604052809291908181526020018280546001816001161561010002031660029004801561126e5780601f106112435761010080835404028352916020019161126e565b820191906000526020600020905b81548152906001019060200180831161125157829003601f168201915b5050505050908060030154908060040154905085565b6000809054906101000a900473ffffffffffffffffffffffffffffffffffffffff1673ffffffffffffffffffffffffffffffffffffffff163373ffffffffffffffffffffffffffffffffffffffff1614611329576040517f08c379a00000000000000000000000000000000000000000000000000000000081526004018080602001828103825260258152602001806127286025913960400191505060405180910390fd5b6001600081548092919060010191905055506040518060a001604052806001548152602001828152602001600015158152602001600015158152602001600015158152506008600060015481526020019081526020016000206000820151816000015560208201518160010190805190602001906113a89291906125ad565b5060408201518160020160006101000a81548160ff02191690831515021790555060608201518160020160016101000a81548160ff02191690831515021790555060808201518160020160026101000a81548160ff0219169083151502179055509050507f9d9d7b3c7fd391851f6b4b01ddcdb521bfca4fe5edbf21b0ea3e6ca9350af75c600154826040518083815260200180602001828103825283818151815260200191508051906020019080838360005b8381101561147757808201518184015260208101905061145c565b50505050905090810190601f1680156114a45780820380516001836020036101000a031916815260200191505b50935050505060405180910390a150565b60046020528060005260406000206000915090508060000154908060010160009054906101000a900473ffffffffffffffffffffffffffffffffffffffff1690806002018054600181600116156101000203166002900480601f01602080910402602001604051908101604052809291908181526020018280546001816001161561010002031660029004801561158d5780601f106115625761010080835404028352916020019161158d565b820191906000526020600020905b81548152906001019060200180831161157057829003601f168201915b5050505050905083565b600060086000858152602001908152602001600020600001541415611624576040517f08c379a00000000000000000000000000000000000000000000000000000000081526004018080602001828103825260158152602001807f456c656374696f6e20646f65736e74206578697374000000000000000000000081525060200191505060405180910390fd5b6060600c60003373ffffffffffffffffffffffffffffffffffffffff1673ffffffffffffffffffffffffffffffffffffffff168152602001908152602001600020805480602002602001604051908101604052809291908181526020016000905b828210156117e857838290600052602060002090600602016040518060c0016040529081600082015481526020016001820160009054906101000a900473ffffffffffffffffffffffffffffffffffffffff1673ffffffffffffffffffffffffffffffffffffffff1673ffffffffffffffffffffffffffffffffffffffff168152602001600282018054600181600116156101000203166002900480601f0160208091040260200160405190810160405280929190818152602001828054600181600116156101000203166002900480156117a15780601f10611776576101008083540402835291602001916117a1565b820191906000526020600020905b81548152906001019060200180831161178457829003601f168201915b5050505050815260200160038201548152602001600482015481526020016005820160009054906101000a900460ff16151515158152505081526020019060010190611685565b50505050905060006001905060008090505b8251811015611834578583828151811061181057fe5b602002602001015160800151141561182757600091505b80806001019150506117fa565b508061188b576040517f08c379a000000000000000000000000000000000000000000000000000000000815260040180806020018281038252603181526020018061274d6031913960400191505060405180910390fd5b600360008154809291906001019190505550600c60003373ffffffffffffffffffffffffffffffffffffffff1673ffffffffffffffffffffffffffffffffffffffff1681526020019081526020016000206040518060c0016040528060035481526020013373ffffffffffffffffffffffffffffffffffffffff16815260200185815260200186815260200187815260200160001515815250908060018154018082558091505090600182039060005260206000209060060201600090919290919091506000820151816000015560208201518160010160006101000a81548173ffffffffffffffffffffffffffffffffffffffff021916908373ffffffffffffffffffffffffffffffffffffffff16021790555060408201518160020190805190602001906119bc9291906125ad565b50606082015181600301556080820151816004015560a08201518160050160006101000a81548160ff0219169083151502179055505050506040518060c0016040528060035481526020013373ffffffffffffffffffffffffffffffffffffffff16815260200184815260200185815260200186815260200160001515815250600d600060035481526020019081526020016000206000820151816000015560208201518160010160006101000a81548173ffffffffffffffffffffffffffffffffffffffff021916908373ffffffffffffffffffffffffffffffffffffffff1602179055506040820151816002019080519060200190611abe9291906125ad565b50606082015181600301556080820151816004015560a08201518160050160006101000a81548160ff0219169083151502179055509050507f43edd06d1afa7aa10c887b2a1ea0dc5a42e487c082f46883fe5d78d452b055f16003546040518082815260200191505060405180910390a15050505050565b60096020528160005260406000208181548110611b4f57fe5b906000526020600020906003020160009150915050806000015490806001018054600181600116156101000203166002900480601f016020809104026020016040519081016040528092919081815260200182805460018160011615610100020316600290048015611c025780601f10611bd757610100808354040283529160200191611c02565b820191906000526020600020905b815481529060010190602001808311611be557829003601f168201915b5050505050908060020160009054906101000a900460ff16908060020160019054906101000a900460ff16908060020160029054906101000a900460ff16905085565b6000809054906101000a900473ffffffffffffffffffffffffffffffffffffffff1673ffffffffffffffffffffffffffffffffffffffff163373ffffffffffffffffffffffffffffffffffffffff1614611cea576040517f08c379a00000000000000000000000000000000000000000000000000000000081526004018080602001828103825260258152602001806127286025913960400191505060405180910390fd5b6000600d6000838152602001908152602001600020600001541415611d77576040517f08c379a00000000000000000000000000000000000000000000000000000000081526004018080602001828103825260118152602001807f52657175657374204e6f7420666f756e6400000000000000000000000000000081525060200191505060405180910390fd5b600d600082815260200190815260200160002060050160009054906101000a900460ff1615611e0e576040517f08c379a00000000000000000000000000000000000000000000000000000000081526004018080602001828103825260188152602001807f416c726561647920617070726f7665642072657175657374000000000000000081525060200191505060405180910390fd5b611e1661262d565b600d60008381526020019081526020016000206040518060c0016040529081600082015481526020016001820160009054906101000a900473ffffffffffffffffffffffffffffffffffffffff1673ffffffffffffffffffffffffffffffffffffffff1673ffffffffffffffffffffffffffffffffffffffff168152602001600282018054600181600116156101000203166002900480601f016020809104026020016040519081016040528092919081815260200182805460018160011615610100020316600290048015611f2d5780601f10611f0257610100808354040283529160200191611f2d565b820191906000526020600020905b815481529060010190602001808311611f1057829003601f168201915b5050505050815260200160038201548152602001600482015481526020016005820160009054906101000a900460ff16151515158152505090506001600d600084815260200190815260200160002060050160006101000a81548160ff021916908315150217905550600260008154809291906001019190505550600b6000826080015181526020019081526020016000206040518060a001604052806002548152602001836020015173ffffffffffffffffffffffffffffffffffffffff16815260200183604001518152602001600081526020018360600151815250908060018154018082558091505090600182039060005260206000209060050201600090919290919091506000820151816000015560208201518160010160006101000a81548173ffffffffffffffffffffffffffffffffffffffff021916908373ffffffffffffffffffffffffffffffffffffffff16021790555060408201518160020190805190602001906120a39291906125ad565b5060608201518160030155608082015181600401555050507fe6bea90b2b6afc3e6657c480a5c34eb15dbd9d53420edd2060ef2b6eadd9c7c16002546040518082815260200191505060405180910390a15050565b600c602052816000526040600020818154811061211157fe5b9060005260206000209060060201600091509150508060000154908060010160009054906101000a900473ffffffffffffffffffffffffffffffffffffffff1690806002018054600181600116156101000203166002900480601f0160208091040260200160405190810160405280929190818152602001828054600181600116156101000203166002900480156121ea5780601f106121bf576101008083540402835291602001916121ea565b820191906000526020600020905b8154815290600101906020018083116121cd57829003601f168201915b5050505050908060030154908060040154908060050160009054906101000a900460ff16905086565b6005600083815260200190815260200160002060009054906101000a900460ff166122a6576040517f08c379a00000000000000000000000000000000000000000000000000000000081526004018080602001828103825260128152602001807f554944204e6f742072656769737465726564000000000000000000000000000081525060200191505060405180910390fd5b81600460008573ffffffffffffffffffffffffffffffffffffffff1673ffffffffffffffffffffffffffffffffffffffff168152602001908152602001600020600001541461235d576040517f08c379a00000000000000000000000000000000000000000000000000000000081526004018080602001828103825260118152602001807f41646472657373204d6973736d6174636800000000000000000000000000000081525060200191505060405180910390fd5b6008600082815260200190815260200160002060020160009054906101000a900460ff166123f3576040517f08c379a000000000000000000000000000000000000000000000000000000000815260040180806020018281038252601b8152602001807f456c656374696f6e456e7469747920646f65736e74206578697374000000000081525060200191505060405180910390fd5b60086000828152602001908152602001600020600960008573ffffffffffffffffffffffffffffffffffffffff1673ffffffffffffffffffffffffffffffffffffffff168152602001908152602001600020600a60008673ffffffffffffffffffffffffffffffffffffffff1673ffffffffffffffffffffffffffffffffffffffff168152602001908152602001600020548154811061248f57fe5b906000526020600020906003020160008201548160000155600182018160010190805460018160011615610100020316600290046124ce92919061267b565b506002820160009054906101000a900460ff168160020160006101000a81548160ff0219169083151502179055506002820160019054906101000a900460ff168160020160016101000a81548160ff0219169083151502179055506002820160029054906101000a900460ff168160020160026101000a81548160ff021916908315150217905550905050600a60008473ffffffffffffffffffffffffffffffffffffffff1673ffffffffffffffffffffffffffffffffffffffff16815260200190815260200160002060008154809291906001019190505550505050565b828054600181600116156101000203166002900490600052602060002090601f016020900481019282601f106125ee57805160ff191683800117855561261c565b8280016001018555821561261c579182015b8281111561261b578251825591602001919060010190612600565b5b5090506126299190612702565b5090565b6040518060c0016040528060008152602001600073ffffffffffffffffffffffffffffffffffffffff1681526020016060815260200160008152602001600081526020016000151581525090565b828054600181600116156101000203166002900490600052602060002090601f016020900481019282601f106126b457805485556126f1565b828001600101855582156126f157600052602060002091601f016020900482015b828111156126f05782548255916001019190600101906126d5565b5b5090506126fe9190612702565b5090565b61272491905b80821115612720576000816000905550600101612708565b5090565b9056fe4f6e6c792061646d696e2063616e20706572666f726d2074686973206f7065726174696f6e416c72656164792072657175657374656420746f20706172746963697061746520696e207468617420656c656374696f6ea265627a7a723158204f0907e534bf6eca61057f2463ba77f7e5c77f93c1694200588bbdde8564259064736f6c63430005100032",
  "source": "// SPDX-License-Identifier: SEE LICENSE IN LICENSE\npragma solidity ^0.5.16;\n\ncontract Election {\n    // VARIABLES\n    address admin;\n    uint electionCount = 0;\n    uint candidatesCount = 0;\n    uint requestCount = 0;\n\n    constructor() public {\n        admin = msg.sender; // Deployer is the admin\n    }\n\n    // STRUCTURES\n\n    // Candidate Structure\n    struct Candidate {\n        uint id;\n        address candidateAddress;\n        string name;\n        uint voteCount;\n        uint uid;\n    }\n    // Election Candidate Participation Request\n    struct ParticipationRequest {\n        uint id;\n        address from;\n        string name;\n        uint uid;\n        uint electionId;\n        bool approved;\n    }\n    // An Entity of election structure\n    struct ElectionEntity {\n        uint id;\n        string name;\n        bool started;\n        bool ended;\n        bool accept_request;\n    }\n    // User structure\n    struct User {\n        uint uid;\n        address _address;\n        string name;\n    }\n\n    // EVENTS\n\n    // Event : USER Registered\n    event UserRegisteredEvent(address _address);\n    event ElectionCreatedEvent(uint electionId, string name);\n    event CandidateAddedEvent(uint candidateId, string name);\n    event ParticipationRequestEvent(uint requestId);\n    event ApprovedParticipationRequest(uint candidateId);\n    // MAPPINGS\n\n    // User related\n    mapping(address => User) public users; // get user by the address\n    mapping(uint => bool) private isRegistered; // userId and all registered users\n    mapping(address => bool) private isAddressUsed; // for checking if an address is already registered\n    mapping(address => bool) public verified; // for checking if a user is\n    // Election related\n    mapping(uint => ElectionEntity) public elections; // All Election Entities\n    mapping(address => ElectionEntity[]) public allowedElections; // Get allowed election to vote of a voter\n    mapping(address => uint) public allowedElectionsCount; // No of allowed elections to vote of a user\n    // Candidate related\n    // mapping(address => Candidate) public candidates; // All candidates and their address\n    mapping(uint => Candidate[]) public candidates; // Candidates in an election entity\n    mapping(address => ParticipationRequest[]) public participationRequests; // All participation requests of a person\n    mapping(uint => ParticipationRequest) public allParticipationRequests; // All participation request\n\n    // MODIFIERS\n\n    modifier onlyAdmin() {\n        require(msg.sender == admin, \"Only admin can perform this operation\");\n        _;\n    }\n\n    // FUNCTIONS\n\n    // Function to register  user\n    function registerUser(uint uid, string memory _name) public {\n        require(!isRegistered[uid], \"Already registered\"); // The uid is not registered\n        require(!isAddressUsed[msg.sender], \"Address Already Used\"); // The address is not used\n\n        users[msg.sender] = User(uid, msg.sender, _name);\n        isRegistered[uid] = true;\n        isAddressUsed[msg.sender] = true;\n        emit UserRegisteredEvent(msg.sender);\n    }\n\n    // verify a user\n    function verifyUser(address user, uint uid) public {\n        require(isRegistered[uid], \"UID Not registered\");\n        require(users[user].uid == uid, \"Address Missmatch\");\n\n        verified[user] = true;\n    }\n\n    // approve a user to vote on a perticular election\n    function approveToVote(address user, uint uid, uint electionId) public {\n        require(isRegistered[uid], \"UID Not registered\");\n        require(users[user].uid == uid, \"Address Missmatch\");\n        require(elections[electionId].started, \"ElectionEntity doesnt exist\");\n\n        allowedElections[user][allowedElectionsCount[user]] = elections[\n            electionId\n        ];\n        allowedElectionsCount[user]++;\n    }\n\n    // add an election\n    function addElectionEntity(string memory name) public onlyAdmin {\n        electionCount++;\n        elections[electionCount] = ElectionEntity(\n            electionCount,\n            name,\n            false,\n            false,\n            false\n        );\n        emit ElectionCreatedEvent(electionCount, name);\n    }\n\n    // Function to request to participate in an election\n    function requestToParticipate(\n        uint electionId,\n        uint uid,\n        string memory name\n    ) public {\n        require(elections[electionId].id != 0, \"Election doesnt exist\");\n        // Check if already requested\n        ParticipationRequest[] memory requests = participationRequests[\n            msg.sender\n        ];\n        bool tmp = true;\n        for (uint256 i = 0; i < requests.length; i++) {\n            if (requests[i].electionId == electionId) {\n                tmp = false;\n            }\n        }\n        require(tmp, \"Already requested to participate in that election\");\n        requestCount++;\n        participationRequests[msg.sender].push(\n            ParticipationRequest(\n                requestCount,\n                msg.sender,\n                name,\n                uid,\n                electionId,\n                false\n            )\n        );\n        allParticipationRequests[requestCount] = ParticipationRequest(\n            requestCount,\n            msg.sender,\n            name,\n            uid,\n            electionId,\n            false\n        );\n        emit ParticipationRequestEvent(requestCount);\n    }\n\n    // Approve a participation request\n    function approveRequest(uint id) public onlyAdmin {\n        require(allParticipationRequests[id].id != 0, \"Request Not found\");\n        require(\n            !allParticipationRequests[id].approved,\n            \"Already approved request\"\n        );\n        ParticipationRequest memory request = allParticipationRequests[id];\n        allParticipationRequests[id].approved = true;\n        candidatesCount++;\n        candidates[request.electionId].push(\n            Candidate(\n                candidatesCount,\n                request.from,\n                request.name,\n                0,\n                request.uid\n            )\n        );\n        emit ApprovedParticipationRequest(candidatesCount);\n    }\n}\n",
  "sourcePath": "/home/aswanth/Desktop/E-Votting/blockchain/contracts/Election.sol",
  "compiler": {
    "name": "solc",
    "version": "0.5.16+commit.9c3226ce.Emscripten.clang"
  },
  "schemaVersion": "3.4.14",
  "updatedAt": "2023-07-25T14:16:26.237Z",
  "devdoc": {
    "methods": {}
  },
  "userdoc": {
    "methods": {}
  }
}