{
  "contractName": "Candidate",
  "abi": [
    {
      "inputs": [
        {
          "internalType": "address",
          "name": "permissionsAddress",
          "type": "address"
        }
      ],
      "stateMutability": "nonpayable",
      "type": "constructor"
    },
    {
      "anonymous": false,
      "inputs": [
        {
          "indexed": true,
          "internalType": "address",
          "name": "candidateAddress",
          "type": "address"
        }
      ],
      "name": "CandidateRegistered",
      "type": "event"
    },
    {
      "anonymous": false,
      "inputs": [
        {
          "indexed": true,
          "internalType": "address",
          "name": "candidateAddress",
          "type": "address"
        }
      ],
      "name": "CandidateVerified",
      "type": "event"
    },
    {
      "inputs": [
        {
          "internalType": "address",
          "name": "",
          "type": "address"
        }
      ],
      "name": "candidates",
      "outputs": [
        {
          "internalType": "address payable",
          "name": "walletAddress",
          "type": "address"
        },
        {
          "internalType": "string",
          "name": "name",
          "type": "string"
        },
        {
          "internalType": "enum Candidate.CandidateStatus",
          "name": "status",
          "type": "uint8"
        }
      ],
      "stateMutability": "view",
      "type": "function"
    },
    {
      "inputs": [
        {
          "internalType": "string",
          "name": "_name",
          "type": "string"
        }
      ],
      "name": "registerCandidate",
      "outputs": [],
      "stateMutability": "nonpayable",
      "type": "function"
    },
    {
      "inputs": [
        {
          "internalType": "address payable",
          "name": "_candidateAddress",
          "type": "address"
        },
        {
          "internalType": "enum Candidate.CandidateStatus",
          "name": "status",
          "type": "uint8"
        }
      ],
      "name": "verifyNomination",
      "outputs": [],
      "stateMutability": "nonpayable",
      "type": "function"
    }
  ],
  "bytecode": "0x608060405234801561000f575f80fd5b50604051610ec4380380610ec4833981810160405281019061003191906100d4565b805f806101000a81548173ffffffffffffffffffffffffffffffffffffffff021916908373ffffffffffffffffffffffffffffffffffffffff160217905550506100ff565b5f80fd5b5f73ffffffffffffffffffffffffffffffffffffffff82169050919050565b5f6100a38261007a565b9050919050565b6100b381610099565b81146100bd575f80fd5b50565b5f815190506100ce816100aa565b92915050565b5f602082840312156100e9576100e8610076565b5b5f6100f6848285016100c0565b91505092915050565b610db88061010c5f395ff3fe608060405234801561000f575f80fd5b506004361061003f575f3560e01c80638ab66a90146100435780639eb88db614610075578063a97b10ad14610091575b5f80fd5b61005d60048036038101906100589190610579565b6100ad565b60405161006c939291906106c1565b60405180910390f35b61008f600480360381019061008a9190610829565b610184565b005b6100ab60048036038101906100a691906108bd565b610389565b005b6001602052805f5260405f205f91509050805f015f9054906101000a900473ffffffffffffffffffffffffffffffffffffffff16908060010180546100f190610928565b80601f016020809104026020016040519081016040528092919081815260200182805461011d90610928565b80156101685780601f1061013f57610100808354040283529160200191610168565b820191905f5260205f20905b81548152906001019060200180831161014b57829003601f168201915b505050505090806002015f9054906101000a900460ff16905083565b5f60028111156101975761019661064e565b5b60015f3373ffffffffffffffffffffffffffffffffffffffff1673ffffffffffffffffffffffffffffffffffffffff1681526020019081526020015f206002015f9054906101000a900460ff1660028111156101f6576101f561064e565b5b14610236576040517f08c379a000000000000000000000000000000000000000000000000000000000815260040161022d906109a2565b60405180910390fd5b60405180606001604052803373ffffffffffffffffffffffffffffffffffffffff168152602001828152602001600160028111156102775761027661064e565b5b81525060015f3373ffffffffffffffffffffffffffffffffffffffff1673ffffffffffffffffffffffffffffffffffffffff1681526020019081526020015f205f820151815f015f6101000a81548173ffffffffffffffffffffffffffffffffffffffff021916908373ffffffffffffffffffffffffffffffffffffffff16021790555060208201518160010190816103109190610b66565b506040820151816002015f6101000a81548160ff0219169083600281111561033b5761033a61064e565b5b02179055509050503373ffffffffffffffffffffffffffffffffffffffff167fa0ac4f59dabb0ddc4b8b883adda9e055e02c796b2cde2ed80fdb11a38f77e5c960405160405180910390a250565b5f8054906101000a900473ffffffffffffffffffffffffffffffffffffffff1673ffffffffffffffffffffffffffffffffffffffff1663f405275c60046040518263ffffffff1660e01b81526004016103e29190610c7b565b602060405180830381865afa1580156103fd573d5f803e3d5ffd5b505050506040513d601f19601f820116820180604052508101906104219190610cc9565b610460576040517f08c379a000000000000000000000000000000000000000000000000000000000815260040161045790610d64565b60405180910390fd5b8060015f8473ffffffffffffffffffffffffffffffffffffffff1673ffffffffffffffffffffffffffffffffffffffff1681526020019081526020015f206002015f6101000a81548160ff021916908360028111156104c2576104c161064e565b5b02179055508173ffffffffffffffffffffffffffffffffffffffff167f52a7aecc02f5cc2a738f2f3a8db248b68ef20fe0a56955f2bf6dd61b80d29b8760405160405180910390a25050565b5f604051905090565b5f80fd5b5f80fd5b5f73ffffffffffffffffffffffffffffffffffffffff82169050919050565b5f6105488261051f565b9050919050565b6105588161053e565b8114610562575f80fd5b50565b5f813590506105738161054f565b92915050565b5f6020828403121561058e5761058d610517565b5b5f61059b84828501610565565b91505092915050565b5f6105ae8261051f565b9050919050565b6105be816105a4565b82525050565b5f81519050919050565b5f82825260208201905092915050565b5f5b838110156105fb5780820151818401526020810190506105e0565b5f8484015250505050565b5f601f19601f8301169050919050565b5f610620826105c4565b61062a81856105ce565b935061063a8185602086016105de565b61064381610606565b840191505092915050565b7f4e487b71000000000000000000000000000000000000000000000000000000005f52602160045260245ffd5b6003811061068c5761068b61064e565b5b50565b5f81905061069c8261067b565b919050565b5f6106ab8261068f565b9050919050565b6106bb816106a1565b82525050565b5f6060820190506106d45f8301866105b5565b81810360208301526106e68185610616565b90506106f560408301846106b2565b949350505050565b5f80fd5b5f80fd5b7f4e487b71000000000000000000000000000000000000000000000000000000005f52604160045260245ffd5b61073b82610606565b810181811067ffffffffffffffff8211171561075a57610759610705565b5b80604052505050565b5f61076c61050e565b90506107788282610732565b919050565b5f67ffffffffffffffff82111561079757610796610705565b5b6107a082610606565b9050602081019050919050565b828183375f83830152505050565b5f6107cd6107c88461077d565b610763565b9050828152602081018484840111156107e9576107e8610701565b5b6107f48482856107ad565b509392505050565b5f82601f8301126108105761080f6106fd565b5b81356108208482602086016107bb565b91505092915050565b5f6020828403121561083e5761083d610517565b5b5f82013567ffffffffffffffff81111561085b5761085a61051b565b5b610867848285016107fc565b91505092915050565b610879816105a4565b8114610883575f80fd5b50565b5f8135905061089481610870565b92915050565b600381106108a6575f80fd5b50565b5f813590506108b78161089a565b92915050565b5f80604083850312156108d3576108d2610517565b5b5f6108e085828601610886565b92505060206108f1858286016108a9565b9150509250929050565b7f4e487b71000000000000000000000000000000000000000000000000000000005f52602260045260245ffd5b5f600282049050600182168061093f57607f821691505b602082108103610952576109516108fb565b5b50919050565b7f43616e64696461746520616c726561647920726567697374657265642e0000005f82015250565b5f61098c601d836105ce565b915061099782610958565b602082019050919050565b5f6020820190508181035f8301526109b981610980565b9050919050565b5f819050815f5260205f209050919050565b5f6020601f8301049050919050565b5f82821b905092915050565b5f60088302610a1c7fffffffffffffffffffffffffffffffffffffffffffffffffffffffffffffffff826109e1565b610a2686836109e1565b95508019841693508086168417925050509392505050565b5f819050919050565b5f819050919050565b5f610a6a610a65610a6084610a3e565b610a47565b610a3e565b9050919050565b5f819050919050565b610a8383610a50565b610a97610a8f82610a71565b8484546109ed565b825550505050565b5f90565b610aab610a9f565b610ab6818484610a7a565b505050565b5b81811015610ad957610ace5f82610aa3565b600181019050610abc565b5050565b601f821115610b1e57610aef816109c0565b610af8846109d2565b81016020851015610b07578190505b610b1b610b13856109d2565b830182610abb565b50505b505050565b5f82821c905092915050565b5f610b3e5f1984600802610b23565b1980831691505092915050565b5f610b568383610b2f565b9150826002028217905092915050565b610b6f826105c4565b67ffffffffffffffff811115610b8857610b87610705565b5b610b928254610928565b610b9d828285610add565b5f60209050601f831160018114610bce575f8415610bbc578287015190505b610bc68582610b4b565b865550610c2d565b601f198416610bdc866109c0565b5f5b82811015610c0357848901518255600182019150602085019450602081019050610bde565b86831015610c205784890151610c1c601f891682610b2f565b8355505b6001600288020188555050505b505050505050565b60058110610c4657610c4561064e565b5b50565b5f819050610c5682610c35565b919050565b5f610c6582610c49565b9050919050565b610c7581610c5b565b82525050565b5f602082019050610c8e5f830184610c6c565b92915050565b5f8115159050919050565b610ca881610c94565b8114610cb2575f80fd5b50565b5f81519050610cc381610c9f565b92915050565b5f60208284031215610cde57610cdd610517565b5b5f610ceb84828501610cb5565b91505092915050565b7f4f6e6c792052657475726e696e67204f6666696365722063616e2076657269665f8201527f79206e6f6d696e6174696f6e2e00000000000000000000000000000000000000602082015250565b5f610d4e602d836105ce565b9150610d5982610cf4565b604082019050919050565b5f6020820190508181035f830152610d7b81610d42565b905091905056fea2646970667358221220cb814c5bf656ab4dfcc5de344c07591833ba7d57f447d9c427dcbf5914057fec64736f6c63430008170033",
  "immutableReferences": {},
  "source": "// SPDX-License-Identifier: SEE LICENSE IN LICENSE\r\npragma solidity ^0.8.0;\r\n\r\nimport \"./Permissions.sol\";\r\n\r\ncontract Candidate {\r\n    Permissions permissions;\r\n    \r\n    enum CandidateStatus { Unregistered, Registered, Nominated }\r\n\r\n    constructor(address permissionsAddress) {\r\n        permissions = Permissions(permissionsAddress);\r\n    }\r\n\r\n    struct CandidateInfo {\r\n        address payable walletAddress;\r\n        string name;\r\n        CandidateStatus status;\r\n    }\r\n\r\n    \r\n    event CandidateRegistered(address indexed candidateAddress);\r\n    event CandidateVerified(address indexed candidateAddress);\r\n\r\n    mapping(address => CandidateInfo) public candidates;                       // list of candidates\r\n\r\n    \r\n    function registerCandidate(string memory _name) public {\r\n        require(candidates[msg.sender].status == CandidateStatus.Unregistered, \"Candidate already registered.\");\r\n        candidates[msg.sender] = CandidateInfo(payable(msg.sender), _name, CandidateStatus.Registered);\r\n        emit CandidateRegistered(msg.sender);\r\n    }\r\n\r\n    function verifyNomination(address payable _candidateAddress, CandidateStatus status) public {\r\n        require(permissions.requireAdmin(Permissions.AdminRole.ReturningOfficer), \"Only Returning Officer can verify nomination.\");\r\n        candidates[_candidateAddress].status = status;\r\n        emit CandidateVerified(_candidateAddress);\r\n    }\r\n}\r\n",
  "sourcePath": "C:\\Users\\aswan\\Desktop\\VoteChain\\votechain-chain\\contracts\\Candidate.sol",
  "compiler": {
    "name": "solc",
    "version": "0.8.23+commit.f704f362.Emscripten.clang"
  },
  "schemaVersion": "3.4.16",
  "updatedAt": "2023-12-17T19:56:44.164Z",
  "devdoc": {
    "kind": "dev",
    "methods": {},
    "version": 1
  },
  "userdoc": {
    "kind": "user",
    "methods": {},
    "version": 1
  }
}