{
  "contractName": "Permissions",
  "abi": [
    {
      "inputs": [],
      "stateMutability": "nonpayable",
      "type": "constructor"
    },
    {
      "inputs": [],
      "name": "admin",
      "outputs": [
        {
          "internalType": "address payable",
          "name": "",
          "type": "address"
        }
      ],
      "stateMutability": "view",
      "type": "function"
    },
    {
      "inputs": [
        {
          "internalType": "address",
          "name": "",
          "type": "address"
        }
      ],
      "name": "admins",
      "outputs": [
        {
          "internalType": "string",
          "name": "name",
          "type": "string"
        },
        {
          "internalType": "enum Permissions.AdminRole",
          "name": "role",
          "type": "uint8"
        }
      ],
      "stateMutability": "view",
      "type": "function"
    },
    {
      "inputs": [
        {
          "internalType": "enum Permissions.AdminRole",
          "name": "role",
          "type": "uint8"
        }
      ],
      "name": "requireAdmin",
      "outputs": [
        {
          "internalType": "bool",
          "name": "",
          "type": "bool"
        }
      ],
      "stateMutability": "view",
      "type": "function"
    },
    {
      "inputs": [
        {
          "internalType": "string",
          "name": "name",
          "type": "string"
        },
        {
          "internalType": "address payable",
          "name": "_newAdmin",
          "type": "address"
        },
        {
          "internalType": "enum Permissions.AdminRole",
          "name": "role",
          "type": "uint8"
        }
      ],
      "name": "addAdmin",
      "outputs": [],
      "stateMutability": "nonpayable",
      "type": "function"
    },
    {
      "inputs": [
        {
          "internalType": "address payable",
          "name": "_adminToRemove",
          "type": "address"
        }
      ],
      "name": "removeAdmin",
      "outputs": [],
      "stateMutability": "nonpayable",
      "type": "function"
    }
  ],
  "bytecode": "0x608060405234801562000010575f80fd5b50335f806101000a81548173ffffffffffffffffffffffffffffffffffffffff021916908373ffffffffffffffffffffffffffffffffffffffff16021790555060405180604001604052806040518060400160405280600581526020017f41646d696e00000000000000000000000000000000000000000000000000000081525081526020015f6004811115620000ac57620000ab6200015d565b5b81525060015f805f9054906101000a900473ffffffffffffffffffffffffffffffffffffffff1673ffffffffffffffffffffffffffffffffffffffff1673ffffffffffffffffffffffffffffffffffffffff1681526020019081526020015f205f820151815f019081620001219190620003ee565b506020820151816001015f6101000a81548160ff021916908360048111156200014f576200014e6200015d565b5b0217905550905050620004d2565b7f4e487b71000000000000000000000000000000000000000000000000000000005f52602160045260245ffd5b5f81519050919050565b7f4e487b71000000000000000000000000000000000000000000000000000000005f52604160045260245ffd5b7f4e487b71000000000000000000000000000000000000000000000000000000005f52602260045260245ffd5b5f60028204905060018216806200020657607f821691505b6020821081036200021c576200021b620001c1565b5b50919050565b5f819050815f5260205f209050919050565b5f6020601f8301049050919050565b5f82821b905092915050565b5f60088302620002807fffffffffffffffffffffffffffffffffffffffffffffffffffffffffffffffff8262000243565b6200028c868362000243565b95508019841693508086168417925050509392505050565b5f819050919050565b5f819050919050565b5f620002d6620002d0620002ca84620002a4565b620002ad565b620002a4565b9050919050565b5f819050919050565b620002f183620002b6565b620003096200030082620002dd565b8484546200024f565b825550505050565b5f90565b6200031f62000311565b6200032c818484620002e6565b505050565b5b818110156200035357620003475f8262000315565b60018101905062000332565b5050565b601f821115620003a2576200036c8162000222565b620003778462000234565b8101602085101562000387578190505b6200039f620003968562000234565b83018262000331565b50505b505050565b5f82821c905092915050565b5f620003c45f1984600802620003a7565b1980831691505092915050565b5f620003de8383620003b3565b9150826002028217905092915050565b620003f9826200018a565b67ffffffffffffffff81111562000415576200041462000194565b5b620004218254620001ee565b6200042e82828562000357565b5f60209050601f83116001811462000464575f84156200044f578287015190505b6200045b8582620003d1565b865550620004ca565b601f198416620004748662000222565b5f5b828110156200049d5784890151825560018201915060208501945060208101905062000476565b86831015620004bd5784890151620004b9601f891682620003b3565b8355505b6001600288020188555050505b505050505050565b610d0680620004e05f395ff3fe608060405234801561000f575f80fd5b5060043610610055575f3560e01c80631785f53c14610059578063429b62e5146100755780634cb0727a146100a6578063f405275c146100c2578063f851a440146100f2575b5f80fd5b610073600480360381019061006e919061050b565b610110565b005b61008f600480360381019061008a9190610571565b610201565b60405161009d929190610699565b60405180910390f35b6100c060048036038101906100bb9190610816565b6102b3565b005b6100dc60048036038101906100d79190610882565b6103aa565b6040516100e991906108c7565b60405180910390f35b6100fa610425565b60405161010791906108ef565b60405180910390f35b5f8054906101000a900473ffffffffffffffffffffffffffffffffffffffff1673ffffffffffffffffffffffffffffffffffffffff168173ffffffffffffffffffffffffffffffffffffffff160361019d576040517f08c379a000000000000000000000000000000000000000000000000000000000815260040161019490610952565b60405180910390fd5b60015f8273ffffffffffffffffffffffffffffffffffffffff1673ffffffffffffffffffffffffffffffffffffffff1681526020019081526020015f205f8082015f6101e99190610448565b600182015f6101000a81549060ff0219169055505050565b6001602052805f5260405f205f91509050805f0180546102209061099d565b80601f016020809104026020016040519081016040528092919081815260200182805461024c9061099d565b80156102975780601f1061026e57610100808354040283529160200191610297565b820191905f5260205f20905b81548152906001019060200180831161027a57829003601f168201915b505050505090806001015f9054906101000a900460ff16905082565b6102bc5f6103aa565b6102fb576040517f08c379a00000000000000000000000000000000000000000000000000000000081526004016102f290610a3d565b60405180910390fd5b604051806040016040528084815260200182600481111561031f5761031e610626565b5b81525060015f8473ffffffffffffffffffffffffffffffffffffffff1673ffffffffffffffffffffffffffffffffffffffff1681526020019081526020015f205f820151815f0190816103729190610c01565b506020820151816001015f6101000a81548160ff0219169083600481111561039d5761039c610626565b5b0217905550905050505050565b5f8160048111156103be576103bd610626565b5b60015f3373ffffffffffffffffffffffffffffffffffffffff1673ffffffffffffffffffffffffffffffffffffffff1681526020019081526020015f206001015f9054906101000a900460ff16600481111561041d5761041c610626565b5b149050919050565b5f8054906101000a900473ffffffffffffffffffffffffffffffffffffffff1681565b5080546104549061099d565b5f825580601f106104655750610482565b601f0160209004905f5260205f20908101906104819190610485565b5b50565b5b8082111561049c575f815f905550600101610486565b5090565b5f604051905090565b5f80fd5b5f80fd5b5f73ffffffffffffffffffffffffffffffffffffffff82169050919050565b5f6104da826104b1565b9050919050565b6104ea816104d0565b81146104f4575f80fd5b50565b5f81359050610505816104e1565b92915050565b5f602082840312156105205761051f6104a9565b5b5f61052d848285016104f7565b91505092915050565b5f610540826104b1565b9050919050565b61055081610536565b811461055a575f80fd5b50565b5f8135905061056b81610547565b92915050565b5f60208284031215610586576105856104a9565b5b5f6105938482850161055d565b91505092915050565b5f81519050919050565b5f82825260208201905092915050565b5f5b838110156105d35780820151818401526020810190506105b8565b5f8484015250505050565b5f601f19601f8301169050919050565b5f6105f88261059c565b61060281856105a6565b93506106128185602086016105b6565b61061b816105de565b840191505092915050565b7f4e487b71000000000000000000000000000000000000000000000000000000005f52602160045260245ffd5b6005811061066457610663610626565b5b50565b5f81905061067482610653565b919050565b5f61068382610667565b9050919050565b61069381610679565b82525050565b5f6040820190508181035f8301526106b181856105ee565b90506106c0602083018461068a565b9392505050565b5f80fd5b5f80fd5b7f4e487b71000000000000000000000000000000000000000000000000000000005f52604160045260245ffd5b610705826105de565b810181811067ffffffffffffffff82111715610724576107236106cf565b5b80604052505050565b5f6107366104a0565b905061074282826106fc565b919050565b5f67ffffffffffffffff821115610761576107606106cf565b5b61076a826105de565b9050602081019050919050565b828183375f83830152505050565b5f61079761079284610747565b61072d565b9050828152602081018484840111156107b3576107b26106cb565b5b6107be848285610777565b509392505050565b5f82601f8301126107da576107d96106c7565b5b81356107ea848260208601610785565b91505092915050565b600581106107ff575f80fd5b50565b5f81359050610810816107f3565b92915050565b5f805f6060848603121561082d5761082c6104a9565b5b5f84013567ffffffffffffffff81111561084a576108496104ad565b5b610856868287016107c6565b9350506020610867868287016104f7565b925050604061087886828701610802565b9150509250925092565b5f60208284031215610897576108966104a9565b5b5f6108a484828501610802565b91505092915050565b5f8115159050919050565b6108c1816108ad565b82525050565b5f6020820190506108da5f8301846108b8565b92915050565b6108e9816104d0565b82525050565b5f6020820190506109025f8301846108e0565b92915050565b7f43616e6e6f742072656d6f7665206d61696e2061646d696e2e000000000000005f82015250565b5f61093c6019836105a6565b915061094782610908565b602082019050919050565b5f6020820190508181035f83015261096981610930565b9050919050565b7f4e487b71000000000000000000000000000000000000000000000000000000005f52602260045260245ffd5b5f60028204905060018216806109b457607f821691505b6020821081036109c7576109c6610970565b5b50919050565b7f4f6e6c7920417574686f726974792063616e20616464206e65772061646d696e5f8201527f2e00000000000000000000000000000000000000000000000000000000000000602082015250565b5f610a276021836105a6565b9150610a32826109cd565b604082019050919050565b5f6020820190508181035f830152610a5481610a1b565b9050919050565b5f819050815f5260205f209050919050565b5f6020601f8301049050919050565b5f82821b905092915050565b5f60088302610ab77fffffffffffffffffffffffffffffffffffffffffffffffffffffffffffffffff82610a7c565b610ac18683610a7c565b95508019841693508086168417925050509392505050565b5f819050919050565b5f819050919050565b5f610b05610b00610afb84610ad9565b610ae2565b610ad9565b9050919050565b5f819050919050565b610b1e83610aeb565b610b32610b2a82610b0c565b848454610a88565b825550505050565b5f90565b610b46610b3a565b610b51818484610b15565b505050565b5b81811015610b7457610b695f82610b3e565b600181019050610b57565b5050565b601f821115610bb957610b8a81610a5b565b610b9384610a6d565b81016020851015610ba2578190505b610bb6610bae85610a6d565b830182610b56565b50505b505050565b5f82821c905092915050565b5f610bd95f1984600802610bbe565b1980831691505092915050565b5f610bf18383610bca565b9150826002028217905092915050565b610c0a8261059c565b67ffffffffffffffff811115610c2357610c226106cf565b5b610c2d825461099d565b610c38828285610b78565b5f60209050601f831160018114610c69575f8415610c57578287015190505b610c618582610be6565b865550610cc8565b601f198416610c7786610a5b565b5f5b82811015610c9e57848901518255600182019150602085019450602081019050610c79565b86831015610cbb5784890151610cb7601f891682610bca565b8355505b6001600288020188555050505b50505050505056fea264697066735822122082fdb33020282748290b1bf106012a74dbce7be5045f21ac0db0e3d723ac9b3564736f6c63430008170033",
  "immutableReferences": {},
  "source": "// SPDX-License-Identifier: SEE LICENSE IN LICENSE\r\npragma solidity ^0.8.0;\r\n\r\ncontract Permissions {\r\n    constructor() {\r\n        admin = payable(msg.sender);\r\n        admins[admin] = AdminInfo(\"Admin\", AdminRole.SuperAdmin);\r\n    }\r\n\r\n    enum AdminRole { SuperAdmin, Authority, PollingOfficer, LocalityOfficer, ReturningOfficer }\r\n\r\n    address payable public admin;                                              // address of the main admin\r\n\r\n    struct AdminInfo {\r\n        string name;\r\n        AdminRole role;\r\n    }\r\n\r\n    mapping(address => AdminInfo) public admins;                               // list of all admins\r\n\r\n    function requireAdmin(AdminRole role) public view returns (bool){\r\n        return admins[msg.sender].role == role;\r\n    }\r\n\r\n    function addAdmin(string memory name, address payable _newAdmin,AdminRole role) public {\r\n        require(requireAdmin(AdminRole.SuperAdmin), \"Only Authority can add new admin.\");\r\n        admins[_newAdmin] = AdminInfo(name, role);\r\n    }\r\n\r\n    function removeAdmin(address payable _adminToRemove) public  {\r\n        require(_adminToRemove != admin, \"Cannot remove main admin.\");\r\n        delete admins[_adminToRemove];\r\n    }\r\n}\r\n",
  "sourcePath": "C:\\Users\\aswan\\Desktop\\VoteChain\\votechain-chain\\contracts\\Permissions.sol",
  "compiler": {
    "name": "solc",
    "version": "0.8.23+commit.f704f362.Emscripten.clang"
  },
  "schemaVersion": "3.4.16",
  "updatedAt": "2023-12-17T19:56:44.172Z",
  "devdoc": {
    "kind": "dev",
    "methods": {},
    "version": 1
  },
  "userdoc": {
    "kind": "user",
    "methods": {},
    "version": 1
  }
}