{
  "contractName": "VoteChain",
  "abi": [
    {
      "inputs": [
        {
          "internalType": "address",
          "name": "permissionsAddress",
          "type": "address"
        }
      ],
      "stateMutability": "nonpayable",
      "type": "constructor"
    },
    {
      "anonymous": false,
      "inputs": [
        {
          "indexed": false,
          "internalType": "uint256",
          "name": "electionId",
          "type": "uint256"
        }
      ],
      "name": "ElectionCreated",
      "type": "event"
    },
    {
      "anonymous": false,
      "inputs": [
        {
          "indexed": false,
          "internalType": "uint256",
          "name": "electionId",
          "type": "uint256"
        }
      ],
      "name": "ElectionEnded",
      "type": "event"
    },
    {
      "anonymous": false,
      "inputs": [
        {
          "indexed": false,
          "internalType": "uint256",
          "name": "electionId",
          "type": "uint256"
        }
      ],
      "name": "ElectionStarted",
      "type": "event"
    },
    {
      "anonymous": false,
      "inputs": [
        {
          "indexed": false,
          "internalType": "uint256",
          "name": "electionId",
          "type": "uint256"
        },
        {
          "indexed": true,
          "internalType": "address",
          "name": "voterAddress",
          "type": "address"
        }
      ],
      "name": "VoteCasted",
      "type": "event"
    },
    {
      "inputs": [
        {
          "internalType": "uint256",
          "name": "",
          "type": "uint256"
        },
        {
          "internalType": "address",
          "name": "",
          "type": "address"
        }
      ],
      "name": "candidateVoteCount",
      "outputs": [
        {
          "internalType": "uint256",
          "name": "",
          "type": "uint256"
        }
      ],
      "stateMutability": "view",
      "type": "function"
    },
    {
      "inputs": [
        {
          "internalType": "uint256",
          "name": "",
          "type": "uint256"
        }
      ],
      "name": "elections",
      "outputs": [
        {
          "internalType": "uint256",
          "name": "id",
          "type": "uint256"
        },
        {
          "internalType": "string",
          "name": "name",
          "type": "string"
        },
        {
          "internalType": "string",
          "name": "description",
          "type": "string"
        },
        {
          "internalType": "uint256",
          "name": "startDate",
          "type": "uint256"
        },
        {
          "internalType": "uint256",
          "name": "endDate",
          "type": "uint256"
        },
        {
          "internalType": "enum VoteChain.ElectionStatus",
          "name": "status",
          "type": "uint8"
        }
      ],
      "stateMutability": "view",
      "type": "function"
    },
    {
      "inputs": [
        {
          "internalType": "uint256",
          "name": "",
          "type": "uint256"
        }
      ],
      "name": "eligibleCanidates",
      "outputs": [
        {
          "internalType": "address payable",
          "name": "",
          "type": "address"
        }
      ],
      "stateMutability": "view",
      "type": "function"
    },
    {
      "inputs": [
        {
          "internalType": "address",
          "name": "",
          "type": "address"
        },
        {
          "internalType": "uint256",
          "name": "",
          "type": "uint256"
        }
      ],
      "name": "eligibleElections",
      "outputs": [
        {
          "internalType": "uint256",
          "name": "",
          "type": "uint256"
        }
      ],
      "stateMutability": "view",
      "type": "function"
    },
    {
      "inputs": [
        {
          "internalType": "uint256",
          "name": "",
          "type": "uint256"
        },
        {
          "internalType": "address",
          "name": "",
          "type": "address"
        }
      ],
      "name": "voterVoted",
      "outputs": [
        {
          "internalType": "bool",
          "name": "",
          "type": "bool"
        }
      ],
      "stateMutability": "view",
      "type": "function"
    },
    {
      "inputs": [],
      "name": "getEligibleElections",
      "outputs": [
        {
          "components": [
            {
              "internalType": "uint256",
              "name": "id",
              "type": "uint256"
            },
            {
              "internalType": "string",
              "name": "name",
              "type": "string"
            },
            {
              "internalType": "string",
              "name": "description",
              "type": "string"
            },
            {
              "internalType": "uint256",
              "name": "startDate",
              "type": "uint256"
            },
            {
              "internalType": "uint256",
              "name": "endDate",
              "type": "uint256"
            },
            {
              "internalType": "enum VoteChain.ElectionStatus",
              "name": "status",
              "type": "uint8"
            }
          ],
          "internalType": "struct VoteChain.ElectionInfo[]",
          "name": "",
          "type": "tuple[]"
        }
      ],
      "stateMutability": "view",
      "type": "function"
    },
    {
      "inputs": [
        {
          "internalType": "uint256",
          "name": "electionId",
          "type": "uint256"
        },
        {
          "internalType": "address payable",
          "name": "candidateAddress",
          "type": "address"
        }
      ],
      "name": "vote",
      "outputs": [],
      "stateMutability": "nonpayable",
      "type": "function"
    },
    {
      "inputs": [
        {
          "internalType": "string",
          "name": "_name",
          "type": "string"
        },
        {
          "internalType": "string",
          "name": "_description",
          "type": "string"
        },
        {
          "internalType": "uint256",
          "name": "_startDate",
          "type": "uint256"
        },
        {
          "internalType": "uint256",
          "name": "_endDate",
          "type": "uint256"
        }
      ],
      "name": "createElection",
      "outputs": [],
      "stateMutability": "nonpayable",
      "type": "function"
    },
    {
      "inputs": [
        {
          "internalType": "uint256",
          "name": "electionId",
          "type": "uint256"
        }
      ],
      "name": "startElection",
      "outputs": [],
      "stateMutability": "nonpayable",
      "type": "function"
    },
    {
      "inputs": [
        {
          "internalType": "uint256",
          "name": "electionId",
          "type": "uint256"
        }
      ],
      "name": "endElection",
      "outputs": [],
      "stateMutability": "nonpayable",
      "type": "function"
    },
    {
      "inputs": [
        {
          "internalType": "uint256",
          "name": "electionId",
          "type": "uint256"
        },
        {
          "internalType": "address payable",
          "name": "voter",
          "type": "address"
        }
      ],
      "name": "addEligibleVoter",
      "outputs": [],
      "stateMutability": "nonpayable",
      "type": "function"
    },
    {
      "inputs": [
        {
          "internalType": "uint256",
          "name": "electionId",
          "type": "uint256"
        },
        {
          "internalType": "address payable[]",
          "name": "_candidates",
          "type": "address[]"
        }
      ],
      "name": "addEligibleCandidates",
      "outputs": [],
      "stateMutability": "nonpayable",
      "type": "function"
    }
  ],
  "bytecode": "0x608060405234801562000010575f80fd5b50604051620021bc380380620021bc8339818101604052810190620000369190620000e1565b805f806101000a81548173ffffffffffffffffffffffffffffffffffffffff021916908373ffffffffffffffffffffffffffffffffffffffff1602179055505062000111565b5f80fd5b5f73ffffffffffffffffffffffffffffffffffffffff82169050919050565b5f620000ab8262000080565b9050919050565b620000bd816200009f565b8114620000c8575f80fd5b50565b5f81519050620000db81620000b2565b92915050565b5f60208284031215620000f957620000f86200007c565b5b5f6200010884828501620000cb565b91505092915050565b61209d806200011f5f395ff3fe608060405234801561000f575f80fd5b50600436106100b2575f3560e01c80636d32dc4b1161006f5780636d32dc4b146101b55780637ad36e84146101d1578063868abff2146101ed5780639c98bcbb1461021d578063beca56e514610239578063bff8b17814610255576100b2565b8063029eaaec146100b657806302d947ef146100e657806315caf0b71461010257806349bfd05b14610132578063544ecc35146101505780635e6fef0114610180575b5f80fd5b6100d060048036038101906100cb9190611222565b610271565b6040516100dd919061126f565b60405180910390f35b61010060048036038101906100fb91906112c3565b610291565b005b61011c60048036038101906101179190611301565b6104c9565b604051610129919061126f565b60405180910390f35b61013a6104e9565b6040516101479190611593565b60405180910390f35b61016a600480360381019061016591906115b3565b61079b565b60405161017791906115ed565b60405180910390f35b61019a600480360381019061019591906115b3565b6107cb565b6040516101ac9695949392919061165d565b60405180910390f35b6101cf60048036038101906101ca91906115b3565b61091b565b005b6101eb60048036038101906101e691906117f6565b610ac1565b005b61020760048036038101906102029190611222565b610ca6565b60405161021491906118ac565b60405180910390f35b610237600480360381019061023291906115b3565b610cd0565b005b610253600480360381019061024e91906112c3565b610e76565b005b61026f600480360381019061026a9190611989565b610fe1565b005b6002602052815f5260405f20602052805f5260405f205f91509150505481565b600160028111156102a5576102a4611401565b5b60035f8481526020019081526020015f206005015f9054906101000a900460ff1660028111156102d8576102d7611401565b5b14610318576040517f08c379a000000000000000000000000000000000000000000000000000000000815260040161030f90611a2d565b60405180910390fd5b60015f8381526020019081526020015f205f3373ffffffffffffffffffffffffffffffffffffffff1673ffffffffffffffffffffffffffffffffffffffff1681526020019081526020015f205f9054906101000a900460ff16156103b1576040517f08c379a00000000000000000000000000000000000000000000000000000000081526004016103a890611a95565b60405180910390fd5b6001805f8481526020019081526020015f205f3373ffffffffffffffffffffffffffffffffffffffff1673ffffffffffffffffffffffffffffffffffffffff1681526020019081526020015f205f6101000a81548160ff021916908315150217905550600160025f8481526020019081526020015f205f8373ffffffffffffffffffffffffffffffffffffffff1673ffffffffffffffffffffffffffffffffffffffff1681526020019081526020015f205f8282546104709190611ae0565b925050819055503373ffffffffffffffffffffffffffffffffffffffff167fd8d46ecf72f6103ff400e47d1b5fdfe248d4ca34a4acd39f63fbe903c8f7e7bd836040516104bd919061126f565b60405180910390a25050565b6004602052815f5260405f20602052805f5260405f205f91509150505481565b60605f8067ffffffffffffffff811115610506576105056116d2565b5b60405190808252806020026020018201604052801561053f57816020015b61052c611140565b8152602001906001900390816105245790505b5090505f5b60055f3373ffffffffffffffffffffffffffffffffffffffff1673ffffffffffffffffffffffffffffffffffffffff1681526020019081526020015f20548110156107935760035f60045f3373ffffffffffffffffffffffffffffffffffffffff1673ffffffffffffffffffffffffffffffffffffffff1681526020019081526020015f205f8481526020019081526020015f205481526020019081526020015f206040518060c00160405290815f820154815260200160018201805461060a90611b40565b80601f016020809104026020016040519081016040528092919081815260200182805461063690611b40565b80156106815780601f1061065857610100808354040283529160200191610681565b820191905f5260205f20905b81548152906001019060200180831161066457829003601f168201915b5050505050815260200160028201805461069a90611b40565b80601f01602080910402602001604051908101604052809291908181526020018280546106c690611b40565b80156107115780601f106106e857610100808354040283529160200191610711565b820191905f5260205f20905b8154815290600101906020018083116106f457829003601f168201915b505050505081526020016003820154815260200160048201548152602001600582015f9054906101000a900460ff16600281111561075257610751611401565b5b600281111561076457610763611401565b5b8152505082828151811061077b5761077a611b70565b5b60200260200101819052508080600101915050610544565b508091505090565b6006602052805f5260405f205f915054906101000a900473ffffffffffffffffffffffffffffffffffffffff1681565b6003602052805f5260405f205f91509050805f0154908060010180546107f090611b40565b80601f016020809104026020016040519081016040528092919081815260200182805461081c90611b40565b80156108675780601f1061083e57610100808354040283529160200191610867565b820191905f5260205f20905b81548152906001019060200180831161084a57829003601f168201915b50505050509080600201805461087c90611b40565b80601f01602080910402602001604051908101604052809291908181526020018280546108a890611b40565b80156108f35780601f106108ca576101008083540402835291602001916108f3565b820191905f5260205f20905b8154815290600101906020018083116108d657829003601f168201915b505050505090806003015490806004015490806005015f9054906101000a900460ff16905086565b60015f8054906101000a900473ffffffffffffffffffffffffffffffffffffffff1673ffffffffffffffffffffffffffffffffffffffff1663f405275c826040518263ffffffff1660e01b81526004016109759190611be3565b602060405180830381865afa158015610990573d5f803e3d5ffd5b505050506040513d601f19601f820116820180604052508101906109b49190611c26565b6109f3576040517f08c379a00000000000000000000000000000000000000000000000000000000081526004016109ea90611cc1565b60405180910390fd5b60035f8381526020019081526020015f2060030154421015610a4a576040517f08c379a0000000000000000000000000000000000000000000000000000000008152600401610a4190611d4f565b60405180910390fd5b600160035f8481526020019081526020015f206005015f6101000a81548160ff02191690836002811115610a8157610a80611401565b5b02179055507f159eee87222a0489c529f2153c26ad65d718f2cc33ebaa8d399d1dd5b39facaa82604051610ab5919061126f565b60405180910390a15050565b60015f8054906101000a900473ffffffffffffffffffffffffffffffffffffffff1673ffffffffffffffffffffffffffffffffffffffff1663f405275c826040518263ffffffff1660e01b8152600401610b1b9190611be3565b602060405180830381865afa158015610b36573d5f803e3d5ffd5b505050506040513d601f19601f82011682018060405250810190610b5a9190611c26565b610b99576040517f08c379a0000000000000000000000000000000000000000000000000000000008152600401610b9090611cc1565b60405180910390fd5b5f4790506040518060c001604052808281526020018781526020018681526020018581526020018481526020015f6002811115610bd957610bd8611401565b5b81525060035f8381526020019081526020015f205f820151815f01556020820151816001019081610c0a9190611f0a565b506040820151816002019081610c209190611f0a565b50606082015181600301556080820151816004015560a0820151816005015f6101000a81548160ff02191690836002811115610c5f57610c5e611401565b5b02179055509050507fe5ada6048ea7c2d62f0279b6b2e956a1d24f57eb887465b33a580e916257a6e781604051610c96919061126f565b60405180910390a1505050505050565b6001602052815f5260405f20602052805f5260405f205f915091509054906101000a900460ff1681565b60015f8054906101000a900473ffffffffffffffffffffffffffffffffffffffff1673ffffffffffffffffffffffffffffffffffffffff1663f405275c826040518263ffffffff1660e01b8152600401610d2a9190611be3565b602060405180830381865afa158015610d45573d5f803e3d5ffd5b505050506040513d601f19601f82011682018060405250810190610d699190611c26565b610da8576040517f08c379a0000000000000000000000000000000000000000000000000000000008152600401610d9f90611cc1565b60405180910390fd5b60035f8381526020019081526020015f2060040154421015610dff576040517f08c379a0000000000000000000000000000000000000000000000000000000008152600401610df690612049565b60405180910390fd5b600260035f8481526020019081526020015f206005015f6101000a81548160ff02191690836002811115610e3657610e35611401565b5b02179055507f562cd572b2ba3b666cd989fc4ca98419ec81e75f04528df9d9d76fdb7807ee7182604051610e6a919061126f565b60405180910390a15050565b60035f8054906101000a900473ffffffffffffffffffffffffffffffffffffffff1673ffffffffffffffffffffffffffffffffffffffff1663f405275c826040518263ffffffff1660e01b8152600401610ed09190611be3565b602060405180830381865afa158015610eeb573d5f803e3d5ffd5b505050506040513d601f19601f82011682018060405250810190610f0f9190611c26565b610f4e576040517f08c379a0000000000000000000000000000000000000000000000000000000008152600401610f4590611cc1565b60405180910390fd5b8260045f8473ffffffffffffffffffffffffffffffffffffffff1673ffffffffffffffffffffffffffffffffffffffff1681526020019081526020015f205f60055f8673ffffffffffffffffffffffffffffffffffffffff1673ffffffffffffffffffffffffffffffffffffffff1681526020019081526020015f205481526020019081526020015f2081905550505050565b60045f8054906101000a900473ffffffffffffffffffffffffffffffffffffffff1673ffffffffffffffffffffffffffffffffffffffff1663f405275c826040518263ffffffff1660e01b815260040161103b9190611be3565b602060405180830381865afa158015611056573d5f803e3d5ffd5b505050506040513d601f19601f8201168201806040525081019061107a9190611c26565b6110b9576040517f08c379a00000000000000000000000000000000000000000000000000000000081526004016110b090611cc1565b60405180910390fd5b5f5b825181101561113a578281815181106110d7576110d6611b70565b5b602002602001015160065f8681526020019081526020015f205f6101000a81548173ffffffffffffffffffffffffffffffffffffffff021916908373ffffffffffffffffffffffffffffffffffffffff16021790555080806001019150506110bb565b50505050565b6040518060c001604052805f815260200160608152602001606081526020015f81526020015f81526020015f600281111561117e5761117d611401565b5b81525090565b5f604051905090565b5f80fd5b5f80fd5b5f819050919050565b6111a781611195565b81146111b1575f80fd5b50565b5f813590506111c28161119e565b92915050565b5f73ffffffffffffffffffffffffffffffffffffffff82169050919050565b5f6111f1826111c8565b9050919050565b611201816111e7565b811461120b575f80fd5b50565b5f8135905061121c816111f8565b92915050565b5f80604083850312156112385761123761118d565b5b5f611245858286016111b4565b92505060206112568582860161120e565b9150509250929050565b61126981611195565b82525050565b5f6020820190506112825f830184611260565b92915050565b5f611292826111c8565b9050919050565b6112a281611288565b81146112ac575f80fd5b50565b5f813590506112bd81611299565b92915050565b5f80604083850312156112d9576112d861118d565b5b5f6112e6858286016111b4565b92505060206112f7858286016112af565b9150509250929050565b5f80604083850312156113175761131661118d565b5b5f6113248582860161120e565b9250506020611335858286016111b4565b9150509250929050565b5f81519050919050565b5f82825260208201905092915050565b5f819050602082019050919050565b61137181611195565b82525050565b5f81519050919050565b5f82825260208201905092915050565b5f5b838110156113ae578082015181840152602081019050611393565b5f8484015250505050565b5f601f19601f8301169050919050565b5f6113d382611377565b6113dd8185611381565b93506113ed818560208601611391565b6113f6816113b9565b840191505092915050565b7f4e487b71000000000000000000000000000000000000000000000000000000005f52602160045260245ffd5b6003811061143f5761143e611401565b5b50565b5f81905061144f8261142e565b919050565b5f61145e82611442565b9050919050565b61146e81611454565b82525050565b5f60c083015f8301516114895f860182611368565b50602083015184820360208601526114a182826113c9565b915050604083015184820360408601526114bb82826113c9565b91505060608301516114d06060860182611368565b5060808301516114e36080860182611368565b5060a08301516114f660a0860182611465565b508091505092915050565b5f61150c8383611474565b905092915050565b5f602082019050919050565b5f61152a8261133f565b6115348185611349565b93508360208202850161154685611359565b805f5b8581101561158157848403895281516115628582611501565b945061156d83611514565b925060208a01995050600181019050611549565b50829750879550505050505092915050565b5f6020820190508181035f8301526115ab8184611520565b905092915050565b5f602082840312156115c8576115c761118d565b5b5f6115d5848285016111b4565b91505092915050565b6115e781611288565b82525050565b5f6020820190506116005f8301846115de565b92915050565b5f82825260208201905092915050565b5f61162082611377565b61162a8185611606565b935061163a818560208601611391565b611643816113b9565b840191505092915050565b61165781611454565b82525050565b5f60c0820190506116705f830189611260565b81810360208301526116828188611616565b905081810360408301526116968187611616565b90506116a56060830186611260565b6116b26080830185611260565b6116bf60a083018461164e565b979650505050505050565b5f80fd5b5f80fd5b7f4e487b71000000000000000000000000000000000000000000000000000000005f52604160045260245ffd5b611708826113b9565b810181811067ffffffffffffffff82111715611727576117266116d2565b5b80604052505050565b5f611739611184565b905061174582826116ff565b919050565b5f67ffffffffffffffff821115611764576117636116d2565b5b61176d826113b9565b9050602081019050919050565b828183375f83830152505050565b5f61179a6117958461174a565b611730565b9050828152602081018484840111156117b6576117b56116ce565b5b6117c184828561177a565b509392505050565b5f82601f8301126117dd576117dc6116ca565b5b81356117ed848260208601611788565b91505092915050565b5f805f806080858703121561180e5761180d61118d565b5b5f85013567ffffffffffffffff81111561182b5761182a611191565b5b611837878288016117c9565b945050602085013567ffffffffffffffff81111561185857611857611191565b5b611864878288016117c9565b9350506040611875878288016111b4565b9250506060611886878288016111b4565b91505092959194509250565b5f8115159050919050565b6118a681611892565b82525050565b5f6020820190506118bf5f83018461189d565b92915050565b5f67ffffffffffffffff8211156118df576118de6116d2565b5b602082029050602081019050919050565b5f80fd5b5f611906611901846118c5565b611730565b90508083825260208201905060208402830185811115611929576119286118f0565b5b835b81811015611952578061193e88826112af565b84526020840193505060208101905061192b565b5050509392505050565b5f82601f8301126119705761196f6116ca565b5b81356119808482602086016118f4565b91505092915050565b5f806040838503121561199f5761199e61118d565b5b5f6119ac858286016111b4565b925050602083013567ffffffffffffffff8111156119cd576119cc611191565b5b6119d98582860161195c565b9150509250929050565b7f456c656374696f6e206973206e6f74206163746976652e0000000000000000005f82015250565b5f611a17601783611606565b9150611a22826119e3565b602082019050919050565b5f6020820190508181035f830152611a4481611a0b565b9050919050565b7f5573657220616c726561647920766f7465642e000000000000000000000000005f82015250565b5f611a7f601383611606565b9150611a8a82611a4b565b602082019050919050565b5f6020820190508181035f830152611aac81611a73565b9050919050565b7f4e487b71000000000000000000000000000000000000000000000000000000005f52601160045260245ffd5b5f611aea82611195565b9150611af583611195565b9250828201905080821115611b0d57611b0c611ab3565b5b92915050565b7f4e487b71000000000000000000000000000000000000000000000000000000005f52602260045260245ffd5b5f6002820490506001821680611b5757607f821691505b602082108103611b6a57611b69611b13565b5b50919050565b7f4e487b71000000000000000000000000000000000000000000000000000000005f52603260045260245ffd5b60058110611bae57611bad611401565b5b50565b5f819050611bbe82611b9d565b919050565b5f611bcd82611bb1565b9050919050565b611bdd81611bc3565b82525050565b5f602082019050611bf65f830184611bd4565b92915050565b611c0581611892565b8114611c0f575f80fd5b50565b5f81519050611c2081611bfc565b92915050565b5f60208284031215611c3b57611c3a61118d565b5b5f611c4884828501611c12565b91505092915050565b7f596f7520646f6e742068617665207065726d697373696f6e20746f20706572665f8201527f6f726d207468697320616374696f6e2e00000000000000000000000000000000602082015250565b5f611cab603083611606565b9150611cb682611c51565b604082019050919050565b5f6020820190508181035f830152611cd881611c9f565b9050919050565b7f456c656374696f6e2063616e6e6f742062652073746172746564206265666f725f8201527f6520737461727420646174652e00000000000000000000000000000000000000602082015250565b5f611d39602d83611606565b9150611d4482611cdf565b604082019050919050565b5f6020820190508181035f830152611d6681611d2d565b9050919050565b5f819050815f5260205f209050919050565b5f6020601f8301049050919050565b5f82821b905092915050565b5f60088302611dc97fffffffffffffffffffffffffffffffffffffffffffffffffffffffffffffffff82611d8e565b611dd38683611d8e565b95508019841693508086168417925050509392505050565b5f819050919050565b5f611e0e611e09611e0484611195565b611deb565b611195565b9050919050565b5f819050919050565b611e2783611df4565b611e3b611e3382611e15565b848454611d9a565b825550505050565b5f90565b611e4f611e43565b611e5a818484611e1e565b505050565b5b81811015611e7d57611e725f82611e47565b600181019050611e60565b5050565b601f821115611ec257611e9381611d6d565b611e9c84611d7f565b81016020851015611eab578190505b611ebf611eb785611d7f565b830182611e5f565b50505b505050565b5f82821c905092915050565b5f611ee25f1984600802611ec7565b1980831691505092915050565b5f611efa8383611ed3565b9150826002028217905092915050565b611f1382611377565b67ffffffffffffffff811115611f2c57611f2b6116d2565b5b611f368254611b40565b611f41828285611e81565b5f60209050601f831160018114611f72575f8415611f60578287015190505b611f6a8582611eef565b865550611fd1565b601f198416611f8086611d6d565b5f5b82811015611fa757848901518255600182019150602085019450602081019050611f82565b86831015611fc45784890151611fc0601f891682611ed3565b8355505b6001600288020188555050505b505050505050565b7f456c656374696f6e2063616e6e6f7420626520656e646564206265666f7265205f8201527f656e6420646174652e0000000000000000000000000000000000000000000000602082015250565b5f612033602983611606565b915061203e82611fd9565b604082019050919050565b5f6020820190508181035f83015261206081612027565b905091905056fea2646970667358221220bfd683550491bf096dd8d8a87c1d387e70e74c638d884d613f8972fa343ad6eb64736f6c63430008170033",
  "immutableReferences": {},
  "source": "// SPDX-License-Identifier: SEE LICENSE IN LICENSE\r\npragma solidity ^0.8.0;\r\n\r\nimport \"./Permissions.sol\";\r\ncontract VoteChain {\r\n    Permissions permissions;\r\n    constructor(address permissionsAddress) {\r\n        permissions = Permissions(permissionsAddress);\r\n    }\r\n\r\n    enum ElectionStatus { Inactive, Active, Finished }\r\n\r\n    struct ElectionInfo {\r\n        uint256 id;\r\n        string name;\r\n        string description;\r\n        uint256 startDate;\r\n        uint256 endDate;\r\n        ElectionStatus status;\r\n    }\r\n\r\n    mapping(uint256 => mapping(address => bool)) public voterVoted;            // list of voters who have voted in an election\r\n    mapping(uint256 => mapping(address => uint256)) public candidateVoteCount; // list of candidates and their vote count in an election\r\n    mapping(uint256 => ElectionInfo) public elections;                         // list of elections\r\n\r\n    mapping(address => mapping(uint256 => uint256)) public eligibleElections; // list of eligible elections\r\n    mapping(address => uint256) eligibleElectionsCount;                        // Eligible elections count\r\n    mapping(uint256 => address payable) public eligibleCanidates;              // list of eligible voters\r\n\r\n    event ElectionCreated(uint256 electionId);\r\n    event ElectionStarted(uint256 electionId);\r\n    event ElectionEnded(uint256 electionId);\r\n    event VoteCasted(uint256 electionId, address indexed voterAddress);\r\n\r\n    modifier onlyAdmin(Permissions.AdminRole role) {\r\n        require(permissions.requireAdmin(role),\"You dont have permission to perform this action.\");\r\n        _;\r\n    }\r\n\r\n    /*\r\n        All functions a voter can access\r\n    */\r\n    \r\n    function getEligibleElections() public view returns (ElectionInfo[] memory){\r\n        ElectionInfo[] memory electionInfos = new ElectionInfo[](0);\r\n        for (uint256 i = 0; i < eligibleElectionsCount[msg.sender]; i++) {\r\n            electionInfos[i] = elections[eligibleElections[msg.sender][i]];\r\n        }\r\n        return electionInfos;\r\n    }\r\n\r\n    function vote(uint256 electionId, address payable candidateAddress) public {\r\n        require(elections[electionId].status == ElectionStatus.Active, \"Election is not active.\");\r\n        require(!voterVoted[electionId][msg.sender], \"User already voted.\");\r\n        voterVoted[electionId][msg.sender] = true;\r\n        candidateVoteCount[electionId][candidateAddress] += 1;\r\n        emit VoteCasted(electionId, msg.sender);\r\n    }\r\n\r\n    /*\r\n        All functions an admin can access\r\n    */\r\n\r\n    function createElection(\r\n        string memory _name,\r\n        string memory _description,\r\n        uint256 _startDate,\r\n        uint256 _endDate\r\n    ) public onlyAdmin(Permissions.AdminRole.Authority) {\r\n        uint256 electionId = address(this).balance;\r\n        elections[electionId] = ElectionInfo({\r\n                id: electionId,\r\n                name: _name,\r\n                description: _description,\r\n                startDate: _startDate,\r\n                endDate: _endDate,\r\n                status: ElectionStatus.Inactive\r\n            }\r\n        );\r\n        emit ElectionCreated(electionId);\r\n    }\r\n\r\n    function startElection(uint256 electionId) public onlyAdmin(Permissions.AdminRole.Authority) {\r\n        require(block.timestamp >= elections[electionId].startDate, \"Election cannot be started before start date.\");\r\n        elections[electionId].status = ElectionStatus.Active;\r\n        emit ElectionStarted(electionId);\r\n    }\r\n\r\n    function endElection(uint256 electionId) public onlyAdmin(Permissions.AdminRole.Authority) {\r\n        require(block.timestamp >= elections[electionId].endDate, \"Election cannot be ended before end date.\");\r\n        elections[electionId].status = ElectionStatus.Finished;\r\n        emit ElectionEnded(electionId);\r\n    }\r\n\r\n    function addEligibleVoter(uint256 electionId, address payable voter) onlyAdmin(Permissions.AdminRole.LocalityOfficer) public {\r\n       eligibleElections[voter][eligibleElectionsCount[voter]] = electionId;\r\n    }\r\n\r\n    function addEligibleCandidates(uint256 electionId, address payable[] memory _candidates) public onlyAdmin(Permissions.AdminRole.ReturningOfficer) {\r\n        for (uint256 i = 0; i < _candidates.length; i++) {\r\n            eligibleCanidates[electionId] = _candidates[i];\r\n        }\r\n    }\r\n}\r\n",
  "sourcePath": "C:\\Users\\aswan\\Desktop\\VoteChain\\votechain-chain\\contracts\\VoteChain.sol",
  "compiler": {
    "name": "solc",
    "version": "0.8.23+commit.f704f362.Emscripten.clang"
  },
  "schemaVersion": "3.4.16",
  "updatedAt": "2023-12-17T19:56:44.185Z",
  "devdoc": {
    "kind": "dev",
    "methods": {},
    "version": 1
  },
  "userdoc": {
    "kind": "user",
    "methods": {},
    "version": 1
  }
}