{
  "contractName": "Voter",
  "abi": [
    {
      "inputs": [
        {
          "internalType": "address",
          "name": "permissionsAddress",
          "type": "address"
        }
      ],
      "stateMutability": "nonpayable",
      "type": "constructor"
    },
    {
      "anonymous": false,
      "inputs": [
        {
          "indexed": true,
          "internalType": "address",
          "name": "voterAddress",
          "type": "address"
        }
      ],
      "name": "VoterRegistered",
      "type": "event"
    },
    {
      "anonymous": false,
      "inputs": [
        {
          "indexed": true,
          "internalType": "address",
          "name": "voterAddress",
          "type": "address"
        }
      ],
      "name": "VoterVerified",
      "type": "event"
    },
    {
      "inputs": [
        {
          "internalType": "address",
          "name": "",
          "type": "address"
        }
      ],
      "name": "father_linker",
      "outputs": [
        {
          "internalType": "address payable",
          "name": "voter_address",
          "type": "address"
        },
        {
          "components": [
            {
              "components": [
                {
                  "internalType": "string",
                  "name": "first_name",
                  "type": "string"
                },
                {
                  "internalType": "string",
                  "name": "middle_name",
                  "type": "string"
                },
                {
                  "internalType": "string",
                  "name": "last_name",
                  "type": "string"
                },
                {
                  "internalType": "string",
                  "name": "dob",
                  "type": "string"
                }
              ],
              "internalType": "struct Voter.VoterPersonalInfo",
              "name": "personal_info",
              "type": "tuple"
            },
            {
              "components": [
                {
                  "internalType": "string",
                  "name": "phone",
                  "type": "string"
                },
                {
                  "internalType": "string",
                  "name": "email",
                  "type": "string"
                }
              ],
              "internalType": "struct Voter.VoterContactInfo",
              "name": "contact_info",
              "type": "tuple"
            },
            {
              "components": [
                {
                  "internalType": "string",
                  "name": "state",
                  "type": "string"
                },
                {
                  "internalType": "string",
                  "name": "district",
                  "type": "string"
                },
                {
                  "internalType": "string",
                  "name": "locality",
                  "type": "string"
                },
                {
                  "internalType": "string",
                  "name": "ward",
                  "type": "string"
                },
                {
                  "internalType": "string",
                  "name": "house_name",
                  "type": "string"
                },
                {
                  "internalType": "string",
                  "name": "house_number",
                  "type": "string"
                },
                {
                  "internalType": "string",
                  "name": "street",
                  "type": "string"
                },
                {
                  "internalType": "string",
                  "name": "pincode",
                  "type": "string"
                }
              ],
              "internalType": "struct Voter.VoterAddressInfo",
              "name": "permeant_address",
              "type": "tuple"
            },
            {
              "components": [
                {
                  "internalType": "string",
                  "name": "state",
                  "type": "string"
                },
                {
                  "internalType": "string",
                  "name": "district",
                  "type": "string"
                },
                {
                  "internalType": "string",
                  "name": "locality",
                  "type": "string"
                },
                {
                  "internalType": "string",
                  "name": "ward",
                  "type": "string"
                },
                {
                  "internalType": "string",
                  "name": "house_name",
                  "type": "string"
                },
                {
                  "internalType": "string",
                  "name": "house_number",
                  "type": "string"
                },
                {
                  "internalType": "string",
                  "name": "street",
                  "type": "string"
                },
                {
                  "internalType": "string",
                  "name": "pincode",
                  "type": "string"
                }
              ],
              "internalType": "struct Voter.VoterAddressInfo",
              "name": "current_address",
              "type": "tuple"
            },
            {
              "internalType": "bool",
              "name": "married",
              "type": "bool"
            },
            {
              "internalType": "bool",
              "name": "orphan",
              "type": "bool"
            }
          ],
          "internalType": "struct Voter.VoterInfo",
          "name": "voter_info",
          "type": "tuple"
        },
        {
          "internalType": "enum Voter.VoterStatus",
          "name": "status",
          "type": "uint8"
        }
      ],
      "stateMutability": "view",
      "type": "function"
    },
    {
      "inputs": [
        {
          "internalType": "address",
          "name": "",
          "type": "address"
        }
      ],
      "name": "guardian_linker",
      "outputs": [
        {
          "internalType": "address payable",
          "name": "voter_address",
          "type": "address"
        },
        {
          "components": [
            {
              "components": [
                {
                  "internalType": "string",
                  "name": "first_name",
                  "type": "string"
                },
                {
                  "internalType": "string",
                  "name": "middle_name",
                  "type": "string"
                },
                {
                  "internalType": "string",
                  "name": "last_name",
                  "type": "string"
                },
                {
                  "internalType": "string",
                  "name": "dob",
                  "type": "string"
                }
              ],
              "internalType": "struct Voter.VoterPersonalInfo",
              "name": "personal_info",
              "type": "tuple"
            },
            {
              "components": [
                {
                  "internalType": "string",
                  "name": "phone",
                  "type": "string"
                },
                {
                  "internalType": "string",
                  "name": "email",
                  "type": "string"
                }
              ],
              "internalType": "struct Voter.VoterContactInfo",
              "name": "contact_info",
              "type": "tuple"
            },
            {
              "components": [
                {
                  "internalType": "string",
                  "name": "state",
                  "type": "string"
                },
                {
                  "internalType": "string",
                  "name": "district",
                  "type": "string"
                },
                {
                  "internalType": "string",
                  "name": "locality",
                  "type": "string"
                },
                {
                  "internalType": "string",
                  "name": "ward",
                  "type": "string"
                },
                {
                  "internalType": "string",
                  "name": "house_name",
                  "type": "string"
                },
                {
                  "internalType": "string",
                  "name": "house_number",
                  "type": "string"
                },
                {
                  "internalType": "string",
                  "name": "street",
                  "type": "string"
                },
                {
                  "internalType": "string",
                  "name": "pincode",
                  "type": "string"
                }
              ],
              "internalType": "struct Voter.VoterAddressInfo",
              "name": "permeant_address",
              "type": "tuple"
            },
            {
              "components": [
                {
                  "internalType": "string",
                  "name": "state",
                  "type": "string"
                },
                {
                  "internalType": "string",
                  "name": "district",
                  "type": "string"
                },
                {
                  "internalType": "string",
                  "name": "locality",
                  "type": "string"
                },
                {
                  "internalType": "string",
                  "name": "ward",
                  "type": "string"
                },
                {
                  "internalType": "string",
                  "name": "house_name",
                  "type": "string"
                },
                {
                  "internalType": "string",
                  "name": "house_number",
                  "type": "string"
                },
                {
                  "internalType": "string",
                  "name": "street",
                  "type": "string"
                },
                {
                  "internalType": "string",
                  "name": "pincode",
                  "type": "string"
                }
              ],
              "internalType": "struct Voter.VoterAddressInfo",
              "name": "current_address",
              "type": "tuple"
            },
            {
              "internalType": "bool",
              "name": "married",
              "type": "bool"
            },
            {
              "internalType": "bool",
              "name": "orphan",
              "type": "bool"
            }
          ],
          "internalType": "struct Voter.VoterInfo",
          "name": "voter_info",
          "type": "tuple"
        },
        {
          "internalType": "enum Voter.VoterStatus",
          "name": "status",
          "type": "uint8"
        }
      ],
      "stateMutability": "view",
      "type": "function"
    },
    {
      "inputs": [
        {
          "internalType": "address",
          "name": "",
          "type": "address"
        }
      ],
      "name": "mother_linker",
      "outputs": [
        {
          "internalType": "address payable",
          "name": "voter_address",
          "type": "address"
        },
        {
          "components": [
            {
              "components": [
                {
                  "internalType": "string",
                  "name": "first_name",
                  "type": "string"
                },
                {
                  "internalType": "string",
                  "name": "middle_name",
                  "type": "string"
                },
                {
                  "internalType": "string",
                  "name": "last_name",
                  "type": "string"
                },
                {
                  "internalType": "string",
                  "name": "dob",
                  "type": "string"
                }
              ],
              "internalType": "struct Voter.VoterPersonalInfo",
              "name": "personal_info",
              "type": "tuple"
            },
            {
              "components": [
                {
                  "internalType": "string",
                  "name": "phone",
                  "type": "string"
                },
                {
                  "internalType": "string",
                  "name": "email",
                  "type": "string"
                }
              ],
              "internalType": "struct Voter.VoterContactInfo",
              "name": "contact_info",
              "type": "tuple"
            },
            {
              "components": [
                {
                  "internalType": "string",
                  "name": "state",
                  "type": "string"
                },
                {
                  "internalType": "string",
                  "name": "district",
                  "type": "string"
                },
                {
                  "internalType": "string",
                  "name": "locality",
                  "type": "string"
                },
                {
                  "internalType": "string",
                  "name": "ward",
                  "type": "string"
                },
                {
                  "internalType": "string",
                  "name": "house_name",
                  "type": "string"
                },
                {
                  "internalType": "string",
                  "name": "house_number",
                  "type": "string"
                },
                {
                  "internalType": "string",
                  "name": "street",
                  "type": "string"
                },
                {
                  "internalType": "string",
                  "name": "pincode",
                  "type": "string"
                }
              ],
              "internalType": "struct Voter.VoterAddressInfo",
              "name": "permeant_address",
              "type": "tuple"
            },
            {
              "components": [
                {
                  "internalType": "string",
                  "name": "state",
                  "type": "string"
                },
                {
                  "internalType": "string",
                  "name": "district",
                  "type": "string"
                },
                {
                  "internalType": "string",
                  "name": "locality",
                  "type": "string"
                },
                {
                  "internalType": "string",
                  "name": "ward",
                  "type": "string"
                },
                {
                  "internalType": "string",
                  "name": "house_name",
                  "type": "string"
                },
                {
                  "internalType": "string",
                  "name": "house_number",
                  "type": "string"
                },
                {
                  "internalType": "string",
                  "name": "street",
                  "type": "string"
                },
                {
                  "internalType": "string",
                  "name": "pincode",
                  "type": "string"
                }
              ],
              "internalType": "struct Voter.VoterAddressInfo",
              "name": "current_address",
              "type": "tuple"
            },
            {
              "internalType": "bool",
              "name": "married",
              "type": "bool"
            },
            {
              "internalType": "bool",
              "name": "orphan",
              "type": "bool"
            }
          ],
          "internalType": "struct Voter.VoterInfo",
          "name": "voter_info",
          "type": "tuple"
        },
        {
          "internalType": "enum Voter.VoterStatus",
          "name": "status",
          "type": "uint8"
        }
      ],
      "stateMutability": "view",
      "type": "function"
    },
    {
      "inputs": [
        {
          "internalType": "address",
          "name": "",
          "type": "address"
        }
      ],
      "name": "spouse_linker",
      "outputs": [
        {
          "internalType": "address payable",
          "name": "voter_address",
          "type": "address"
        },
        {
          "components": [
            {
              "components": [
                {
                  "internalType": "string",
                  "name": "first_name",
                  "type": "string"
                },
                {
                  "internalType": "string",
                  "name": "middle_name",
                  "type": "string"
                },
                {
                  "internalType": "string",
                  "name": "last_name",
                  "type": "string"
                },
                {
                  "internalType": "string",
                  "name": "dob",
                  "type": "string"
                }
              ],
              "internalType": "struct Voter.VoterPersonalInfo",
              "name": "personal_info",
              "type": "tuple"
            },
            {
              "components": [
                {
                  "internalType": "string",
                  "name": "phone",
                  "type": "string"
                },
                {
                  "internalType": "string",
                  "name": "email",
                  "type": "string"
                }
              ],
              "internalType": "struct Voter.VoterContactInfo",
              "name": "contact_info",
              "type": "tuple"
            },
            {
              "components": [
                {
                  "internalType": "string",
                  "name": "state",
                  "type": "string"
                },
                {
                  "internalType": "string",
                  "name": "district",
                  "type": "string"
                },
                {
                  "internalType": "string",
                  "name": "locality",
                  "type": "string"
                },
                {
                  "internalType": "string",
                  "name": "ward",
                  "type": "string"
                },
                {
                  "internalType": "string",
                  "name": "house_name",
                  "type": "string"
                },
                {
                  "internalType": "string",
                  "name": "house_number",
                  "type": "string"
                },
                {
                  "internalType": "string",
                  "name": "street",
                  "type": "string"
                },
                {
                  "internalType": "string",
                  "name": "pincode",
                  "type": "string"
                }
              ],
              "internalType": "struct Voter.VoterAddressInfo",
              "name": "permeant_address",
              "type": "tuple"
            },
            {
              "components": [
                {
                  "internalType": "string",
                  "name": "state",
                  "type": "string"
                },
                {
                  "internalType": "string",
                  "name": "district",
                  "type": "string"
                },
                {
                  "internalType": "string",
                  "name": "locality",
                  "type": "string"
                },
                {
                  "internalType": "string",
                  "name": "ward",
                  "type": "string"
                },
                {
                  "internalType": "string",
                  "name": "house_name",
                  "type": "string"
                },
                {
                  "internalType": "string",
                  "name": "house_number",
                  "type": "string"
                },
                {
                  "internalType": "string",
                  "name": "street",
                  "type": "string"
                },
                {
                  "internalType": "string",
                  "name": "pincode",
                  "type": "string"
                }
              ],
              "internalType": "struct Voter.VoterAddressInfo",
              "name": "current_address",
              "type": "tuple"
            },
            {
              "internalType": "bool",
              "name": "married",
              "type": "bool"
            },
            {
              "internalType": "bool",
              "name": "orphan",
              "type": "bool"
            }
          ],
          "internalType": "struct Voter.VoterInfo",
          "name": "voter_info",
          "type": "tuple"
        },
        {
          "internalType": "enum Voter.VoterStatus",
          "name": "status",
          "type": "uint8"
        }
      ],
      "stateMutability": "view",
      "type": "function"
    },
    {
      "inputs": [
        {
          "internalType": "address",
          "name": "",
          "type": "address"
        }
      ],
      "name": "voters",
      "outputs": [
        {
          "internalType": "address payable",
          "name": "voter_address",
          "type": "address"
        },
        {
          "components": [
            {
              "components": [
                {
                  "internalType": "string",
                  "name": "first_name",
                  "type": "string"
                },
                {
                  "internalType": "string",
                  "name": "middle_name",
                  "type": "string"
                },
                {
                  "internalType": "string",
                  "name": "last_name",
                  "type": "string"
                },
                {
                  "internalType": "string",
                  "name": "dob",
                  "type": "string"
                }
              ],
              "internalType": "struct Voter.VoterPersonalInfo",
              "name": "personal_info",
              "type": "tuple"
            },
            {
              "components": [
                {
                  "internalType": "string",
                  "name": "phone",
                  "type": "string"
                },
                {
                  "internalType": "string",
                  "name": "email",
                  "type": "string"
                }
              ],
              "internalType": "struct Voter.VoterContactInfo",
              "name": "contact_info",
              "type": "tuple"
            },
            {
              "components": [
                {
                  "internalType": "string",
                  "name": "state",
                  "type": "string"
                },
                {
                  "internalType": "string",
                  "name": "district",
                  "type": "string"
                },
                {
                  "internalType": "string",
                  "name": "locality",
                  "type": "string"
                },
                {
                  "internalType": "string",
                  "name": "ward",
                  "type": "string"
                },
                {
                  "internalType": "string",
                  "name": "house_name",
                  "type": "string"
                },
                {
                  "internalType": "string",
                  "name": "house_number",
                  "type": "string"
                },
                {
                  "internalType": "string",
                  "name": "street",
                  "type": "string"
                },
                {
                  "internalType": "string",
                  "name": "pincode",
                  "type": "string"
                }
              ],
              "internalType": "struct Voter.VoterAddressInfo",
              "name": "permeant_address",
              "type": "tuple"
            },
            {
              "components": [
                {
                  "internalType": "string",
                  "name": "state",
                  "type": "string"
                },
                {
                  "internalType": "string",
                  "name": "district",
                  "type": "string"
                },
                {
                  "internalType": "string",
                  "name": "locality",
                  "type": "string"
                },
                {
                  "internalType": "string",
                  "name": "ward",
                  "type": "string"
                },
                {
                  "internalType": "string",
                  "name": "house_name",
                  "type": "string"
                },
                {
                  "internalType": "string",
                  "name": "house_number",
                  "type": "string"
                },
                {
                  "internalType": "string",
                  "name": "street",
                  "type": "string"
                },
                {
                  "internalType": "string",
                  "name": "pincode",
                  "type": "string"
                }
              ],
              "internalType": "struct Voter.VoterAddressInfo",
              "name": "current_address",
              "type": "tuple"
            },
            {
              "internalType": "bool",
              "name": "married",
              "type": "bool"
            },
            {
              "internalType": "bool",
              "name": "orphan",
              "type": "bool"
            }
          ],
          "internalType": "struct Voter.VoterInfo",
          "name": "voter_info",
          "type": "tuple"
        },
        {
          "internalType": "enum Voter.VoterStatus",
          "name": "status",
          "type": "uint8"
        }
      ],
      "stateMutability": "view",
      "type": "function"
    },
    {
      "inputs": [
        {
          "components": [
            {
              "components": [
                {
                  "internalType": "string",
                  "name": "first_name",
                  "type": "string"
                },
                {
                  "internalType": "string",
                  "name": "middle_name",
                  "type": "string"
                },
                {
                  "internalType": "string",
                  "name": "last_name",
                  "type": "string"
                },
                {
                  "internalType": "string",
                  "name": "dob",
                  "type": "string"
                }
              ],
              "internalType": "struct Voter.VoterPersonalInfo",
              "name": "personal_info",
              "type": "tuple"
            },
            {
              "components": [
                {
                  "internalType": "string",
                  "name": "phone",
                  "type": "string"
                },
                {
                  "internalType": "string",
                  "name": "email",
                  "type": "string"
                }
              ],
              "internalType": "struct Voter.VoterContactInfo",
              "name": "contact_info",
              "type": "tuple"
            },
            {
              "components": [
                {
                  "internalType": "string",
                  "name": "state",
                  "type": "string"
                },
                {
                  "internalType": "string",
                  "name": "district",
                  "type": "string"
                },
                {
                  "internalType": "string",
                  "name": "locality",
                  "type": "string"
                },
                {
                  "internalType": "string",
                  "name": "ward",
                  "type": "string"
                },
                {
                  "internalType": "string",
                  "name": "house_name",
                  "type": "string"
                },
                {
                  "internalType": "string",
                  "name": "house_number",
                  "type": "string"
                },
                {
                  "internalType": "string",
                  "name": "street",
                  "type": "string"
                },
                {
                  "internalType": "string",
                  "name": "pincode",
                  "type": "string"
                }
              ],
              "internalType": "struct Voter.VoterAddressInfo",
              "name": "permeant_address",
              "type": "tuple"
            },
            {
              "components": [
                {
                  "internalType": "string",
                  "name": "state",
                  "type": "string"
                },
                {
                  "internalType": "string",
                  "name": "district",
                  "type": "string"
                },
                {
                  "internalType": "string",
                  "name": "locality",
                  "type": "string"
                },
                {
                  "internalType": "string",
                  "name": "ward",
                  "type": "string"
                },
                {
                  "internalType": "string",
                  "name": "house_name",
                  "type": "string"
                },
                {
                  "internalType": "string",
                  "name": "house_number",
                  "type": "string"
                },
                {
                  "internalType": "string",
                  "name": "street",
                  "type": "string"
                },
                {
                  "internalType": "string",
                  "name": "pincode",
                  "type": "string"
                }
              ],
              "internalType": "struct Voter.VoterAddressInfo",
              "name": "current_address",
              "type": "tuple"
            },
            {
              "internalType": "bool",
              "name": "married",
              "type": "bool"
            },
            {
              "internalType": "bool",
              "name": "orphan",
              "type": "bool"
            }
          ],
          "internalType": "struct Voter.VoterInfo",
          "name": "details",
          "type": "tuple"
        }
      ],
      "name": "registerVoter",
      "outputs": [],
      "stateMutability": "nonpayable",
      "type": "function"
    },
    {
      "inputs": [
        {
          "internalType": "address payable",
          "name": "_voterAddress",
          "type": "address"
        },
        {
          "internalType": "enum Voter.VoterStatus",
          "name": "_status",
          "type": "uint8"
        }
      ],
      "name": "updateVoterStatus",
      "outputs": [],
      "stateMutability": "nonpayable",
      "type": "function"
    }
  ],
  "bytecode": "0x608060405234801562000010575f80fd5b50604051620059f7380380620059f78339818101604052810190620000369190620000e1565b805f806101000a81548173ffffffffffffffffffffffffffffffffffffffff021916908373ffffffffffffffffffffffffffffffffffffffff1602179055505062000111565b5f80fd5b5f73ffffffffffffffffffffffffffffffffffffffff82169050919050565b5f620000ab8262000080565b9050919050565b620000bd816200009f565b8114620000c8575f80fd5b50565b5f81519050620000db81620000b2565b92915050565b5f60208284031215620000f957620000f86200007c565b5b5f6200010884828501620000cb565b91505092915050565b6158d8806200011f5f395ff3fe608060405234801561000f575f80fd5b506004361061007b575f3560e01c80639e77415d116100595780639e77415d146100ff578063a3ec138d14610131578063b95abc6814610163578063e08b65af146101955761007b565b80634163b6d91461007f5780636b7ba7a7146100b157806393c83d55146100cd575b5f80fd5b61009960048036038101906100949190614a11565b6101b1565b6040516100a893929190614da2565b60405180910390f35b6100cb60048036038101906100c6919061535a565b610eee565b005b6100e760048036038101906100e29190614a11565b61132d565b6040516100f693929190614da2565b60405180910390f35b61011960048036038101906101149190614a11565b61206a565b60405161012893929190614da2565b60405180910390f35b61014b60048036038101906101469190614a11565b612da7565b60405161015a93929190614da2565b60405180910390f35b61017d60048036038101906101789190614a11565b613ae4565b60405161018c93929190614da2565b60405180910390f35b6101af60048036038101906101aa91906153ee565b614821565b005b6002602052805f5260405f205f91509050805f015f9054906101000a900473ffffffffffffffffffffffffffffffffffffffff1690806001016040518060c00160405290815f82016040518060800160405290815f8201805461021390615459565b80601f016020809104026020016040519081016040528092919081815260200182805461023f90615459565b801561028a5780601f106102615761010080835404028352916020019161028a565b820191905f5260205f20905b81548152906001019060200180831161026d57829003601f168201915b505050505081526020016001820180546102a390615459565b80601f01602080910402602001604051908101604052809291908181526020018280546102cf90615459565b801561031a5780601f106102f15761010080835404028352916020019161031a565b820191905f5260205f20905b8154815290600101906020018083116102fd57829003601f168201915b5050505050815260200160028201805461033390615459565b80601f016020809104026020016040519081016040528092919081815260200182805461035f90615459565b80156103aa5780601f10610381576101008083540402835291602001916103aa565b820191905f5260205f20905b81548152906001019060200180831161038d57829003601f168201915b505050505081526020016003820180546103c390615459565b80601f01602080910402602001604051908101604052809291908181526020018280546103ef90615459565b801561043a5780601f106104115761010080835404028352916020019161043a565b820191905f5260205f20905b81548152906001019060200180831161041d57829003601f168201915b5050505050815250508152602001600482016040518060400160405290815f8201805461046690615459565b80601f016020809104026020016040519081016040528092919081815260200182805461049290615459565b80156104dd5780601f106104b4576101008083540402835291602001916104dd565b820191905f5260205f20905b8154815290600101906020018083116104c057829003601f168201915b505050505081526020016001820180546104f690615459565b80601f016020809104026020016040519081016040528092919081815260200182805461052290615459565b801561056d5780601f106105445761010080835404028352916020019161056d565b820191905f5260205f20905b81548152906001019060200180831161055057829003601f168201915b505050505081525050815260200160068201604051806101000160405290815f8201805461059a90615459565b80601f01602080910402602001604051908101604052809291908181526020018280546105c690615459565b80156106115780601f106105e857610100808354040283529160200191610611565b820191905f5260205f20905b8154815290600101906020018083116105f457829003601f168201915b5050505050815260200160018201805461062a90615459565b80601f016020809104026020016040519081016040528092919081815260200182805461065690615459565b80156106a15780601f10610678576101008083540402835291602001916106a1565b820191905f5260205f20905b81548152906001019060200180831161068457829003601f168201915b505050505081526020016002820180546106ba90615459565b80601f01602080910402602001604051908101604052809291908181526020018280546106e690615459565b80156107315780601f1061070857610100808354040283529160200191610731565b820191905f5260205f20905b81548152906001019060200180831161071457829003601f168201915b5050505050815260200160038201805461074a90615459565b80601f016020809104026020016040519081016040528092919081815260200182805461077690615459565b80156107c15780601f10610798576101008083540402835291602001916107c1565b820191905f5260205f20905b8154815290600101906020018083116107a457829003601f168201915b505050505081526020016004820180546107da90615459565b80601f016020809104026020016040519081016040528092919081815260200182805461080690615459565b80156108515780601f1061082857610100808354040283529160200191610851565b820191905f5260205f20905b81548152906001019060200180831161083457829003601f168201915b5050505050815260200160058201805461086a90615459565b80601f016020809104026020016040519081016040528092919081815260200182805461089690615459565b80156108e15780601f106108b8576101008083540402835291602001916108e1565b820191905f5260205f20905b8154815290600101906020018083116108c457829003601f168201915b505050505081526020016006820180546108fa90615459565b80601f016020809104026020016040519081016040528092919081815260200182805461092690615459565b80156109715780601f1061094857610100808354040283529160200191610971565b820191905f5260205f20905b81548152906001019060200180831161095457829003601f168201915b5050505050815260200160078201805461098a90615459565b80601f01602080910402602001604051908101604052809291908181526020018280546109b690615459565b8015610a015780601f106109d857610100808354040283529160200191610a01565b820191905f5260205f20905b8154815290600101906020018083116109e457829003601f168201915b5050505050815250508152602001600e8201604051806101000160405290815f82018054610a2e90615459565b80601f0160208091040260200160405190810160405280929190818152602001828054610a5a90615459565b8015610aa55780601f10610a7c57610100808354040283529160200191610aa5565b820191905f5260205f20905b815481529060010190602001808311610a8857829003601f168201915b50505050508152602001600182018054610abe90615459565b80601f0160208091040260200160405190810160405280929190818152602001828054610aea90615459565b8015610b355780601f10610b0c57610100808354040283529160200191610b35565b820191905f5260205f20905b815481529060010190602001808311610b1857829003601f168201915b50505050508152602001600282018054610b4e90615459565b80601f0160208091040260200160405190810160405280929190818152602001828054610b7a90615459565b8015610bc55780601f10610b9c57610100808354040283529160200191610bc5565b820191905f5260205f20905b815481529060010190602001808311610ba857829003601f168201915b50505050508152602001600382018054610bde90615459565b80601f0160208091040260200160405190810160405280929190818152602001828054610c0a90615459565b8015610c555780601f10610c2c57610100808354040283529160200191610c55565b820191905f5260205f20905b815481529060010190602001808311610c3857829003601f168201915b50505050508152602001600482018054610c6e90615459565b80601f0160208091040260200160405190810160405280929190818152602001828054610c9a90615459565b8015610ce55780601f10610cbc57610100808354040283529160200191610ce5565b820191905f5260205f20905b815481529060010190602001808311610cc857829003601f168201915b50505050508152602001600582018054610cfe90615459565b80601f0160208091040260200160405190810160405280929190818152602001828054610d2a90615459565b8015610d755780601f10610d4c57610100808354040283529160200191610d75565b820191905f5260205f20905b815481529060010190602001808311610d5857829003601f168201915b50505050508152602001600682018054610d8e90615459565b80601f0160208091040260200160405190810160405280929190818152602001828054610dba90615459565b8015610e055780601f10610ddc57610100808354040283529160200191610e05565b820191905f5260205f20905b815481529060010190602001808311610de857829003601f168201915b50505050508152602001600782018054610e1e90615459565b80601f0160208091040260200160405190810160405280929190818152602001828054610e4a90615459565b8015610e955780601f10610e6c57610100808354040283529160200191610e95565b820191905f5260205f20905b815481529060010190602001808311610e7857829003601f168201915b5050505050815250508152602001601682015f9054906101000a900460ff161515151581526020016016820160019054906101000a900460ff16151515158152505090806018015f9054906101000a900460ff16905083565b5f6002811115610f0157610f00614d2f565b5b60055f3373ffffffffffffffffffffffffffffffffffffffff1673ffffffffffffffffffffffffffffffffffffffff1681526020019081526020015f206018015f9054906101000a900460ff166002811115610f6057610f5f614d2f565b5b14610fa0576040517f08c379a0000000000000000000000000000000000000000000000000000000008152600401610f97906154e3565b60405180910390fd5b60405180606001604052803373ffffffffffffffffffffffffffffffffffffffff16815260200182815260200160016002811115610fe157610fe0614d2f565b5b81525060055f3373ffffffffffffffffffffffffffffffffffffffff1673ffffffffffffffffffffffffffffffffffffffff1681526020019081526020015f205f820151815f015f6101000a81548173ffffffffffffffffffffffffffffffffffffffff021916908373ffffffffffffffffffffffffffffffffffffffff1602179055506020820151816001015f820151815f015f820151815f01908161108891906156a7565b50602082015181600101908161109e91906156a7565b5060408201518160020190816110b491906156a7565b5060608201518160030190816110ca91906156a7565b5050506020820151816004015f820151815f0190816110e991906156a7565b5060208201518160010190816110ff91906156a7565b5050506040820151816006015f820151815f01908161111e91906156a7565b50602082015181600101908161113491906156a7565b50604082015181600201908161114a91906156a7565b50606082015181600301908161116091906156a7565b50608082015181600401908161117691906156a7565b5060a082015181600501908161118c91906156a7565b5060c08201518160060190816111a291906156a7565b5060e08201518160070190816111b891906156a7565b505050606082015181600e015f820151815f0190816111d791906156a7565b5060208201518160010190816111ed91906156a7565b50604082015181600201908161120391906156a7565b50606082015181600301908161121991906156a7565b50608082015181600401908161122f91906156a7565b5060a082015181600501908161124591906156a7565b5060c082015181600601908161125b91906156a7565b5060e082015181600701908161127191906156a7565b5050506080820151816016015f6101000a81548160ff02191690831515021790555060a08201518160160160016101000a81548160ff02191690831515021790555050506040820151816018015f6101000a81548160ff021916908360028111156112df576112de614d2f565b5b02179055509050503373ffffffffffffffffffffffffffffffffffffffff167fb6be2187d059cc2a55fe29e0e503b566e1e0f8c8780096e185429350acffd3dd60405160405180910390a250565b6004602052805f5260405f205f91509050805f015f9054906101000a900473ffffffffffffffffffffffffffffffffffffffff1690806001016040518060c00160405290815f82016040518060800160405290815f8201805461138f90615459565b80601f01602080910402602001604051908101604052809291908181526020018280546113bb90615459565b80156114065780601f106113dd57610100808354040283529160200191611406565b820191905f5260205f20905b8154815290600101906020018083116113e957829003601f168201915b5050505050815260200160018201805461141f90615459565b80601f016020809104026020016040519081016040528092919081815260200182805461144b90615459565b80156114965780601f1061146d57610100808354040283529160200191611496565b820191905f5260205f20905b81548152906001019060200180831161147957829003601f168201915b505050505081526020016002820180546114af90615459565b80601f01602080910402602001604051908101604052809291908181526020018280546114db90615459565b80156115265780601f106114fd57610100808354040283529160200191611526565b820191905f5260205f20905b81548152906001019060200180831161150957829003601f168201915b5050505050815260200160038201805461153f90615459565b80601f016020809104026020016040519081016040528092919081815260200182805461156b90615459565b80156115b65780601f1061158d576101008083540402835291602001916115b6565b820191905f5260205f20905b81548152906001019060200180831161159957829003601f168201915b5050505050815250508152602001600482016040518060400160405290815f820180546115e290615459565b80601f016020809104026020016040519081016040528092919081815260200182805461160e90615459565b80156116595780601f1061163057610100808354040283529160200191611659565b820191905f5260205f20905b81548152906001019060200180831161163c57829003601f168201915b5050505050815260200160018201805461167290615459565b80601f016020809104026020016040519081016040528092919081815260200182805461169e90615459565b80156116e95780601f106116c0576101008083540402835291602001916116e9565b820191905f5260205f20905b8154815290600101906020018083116116cc57829003601f168201915b505050505081525050815260200160068201604051806101000160405290815f8201805461171690615459565b80601f016020809104026020016040519081016040528092919081815260200182805461174290615459565b801561178d5780601f106117645761010080835404028352916020019161178d565b820191905f5260205f20905b81548152906001019060200180831161177057829003601f168201915b505050505081526020016001820180546117a690615459565b80601f01602080910402602001604051908101604052809291908181526020018280546117d290615459565b801561181d5780601f106117f45761010080835404028352916020019161181d565b820191905f5260205f20905b81548152906001019060200180831161180057829003601f168201915b5050505050815260200160028201805461183690615459565b80601f016020809104026020016040519081016040528092919081815260200182805461186290615459565b80156118ad5780601f10611884576101008083540402835291602001916118ad565b820191905f5260205f20905b81548152906001019060200180831161189057829003601f168201915b505050505081526020016003820180546118c690615459565b80601f01602080910402602001604051908101604052809291908181526020018280546118f290615459565b801561193d5780601f106119145761010080835404028352916020019161193d565b820191905f5260205f20905b81548152906001019060200180831161192057829003601f168201915b5050505050815260200160048201805461195690615459565b80601f016020809104026020016040519081016040528092919081815260200182805461198290615459565b80156119cd5780601f106119a4576101008083540402835291602001916119cd565b820191905f5260205f20905b8154815290600101906020018083116119b057829003601f168201915b505050505081526020016005820180546119e690615459565b80601f0160208091040260200160405190810160405280929190818152602001828054611a1290615459565b8015611a5d5780601f10611a3457610100808354040283529160200191611a5d565b820191905f5260205f20905b815481529060010190602001808311611a4057829003601f168201915b50505050508152602001600682018054611a7690615459565b80601f0160208091040260200160405190810160405280929190818152602001828054611aa290615459565b8015611aed5780601f10611ac457610100808354040283529160200191611aed565b820191905f5260205f20905b815481529060010190602001808311611ad057829003601f168201915b50505050508152602001600782018054611b0690615459565b80601f0160208091040260200160405190810160405280929190818152602001828054611b3290615459565b8015611b7d5780601f10611b5457610100808354040283529160200191611b7d565b820191905f5260205f20905b815481529060010190602001808311611b6057829003601f168201915b5050505050815250508152602001600e8201604051806101000160405290815f82018054611baa90615459565b80601f0160208091040260200160405190810160405280929190818152602001828054611bd690615459565b8015611c215780601f10611bf857610100808354040283529160200191611c21565b820191905f5260205f20905b815481529060010190602001808311611c0457829003601f168201915b50505050508152602001600182018054611c3a90615459565b80601f0160208091040260200160405190810160405280929190818152602001828054611c6690615459565b8015611cb15780601f10611c8857610100808354040283529160200191611cb1565b820191905f5260205f20905b815481529060010190602001808311611c9457829003601f168201915b50505050508152602001600282018054611cca90615459565b80601f0160208091040260200160405190810160405280929190818152602001828054611cf690615459565b8015611d415780601f10611d1857610100808354040283529160200191611d41565b820191905f5260205f20905b815481529060010190602001808311611d2457829003601f168201915b50505050508152602001600382018054611d5a90615459565b80601f0160208091040260200160405190810160405280929190818152602001828054611d8690615459565b8015611dd15780601f10611da857610100808354040283529160200191611dd1565b820191905f5260205f20905b815481529060010190602001808311611db457829003601f168201915b50505050508152602001600482018054611dea90615459565b80601f0160208091040260200160405190810160405280929190818152602001828054611e1690615459565b8015611e615780601f10611e3857610100808354040283529160200191611e61565b820191905f5260205f20905b815481529060010190602001808311611e4457829003601f168201915b50505050508152602001600582018054611e7a90615459565b80601f0160208091040260200160405190810160405280929190818152602001828054611ea690615459565b8015611ef15780601f10611ec857610100808354040283529160200191611ef1565b820191905f5260205f20905b815481529060010190602001808311611ed457829003601f168201915b50505050508152602001600682018054611f0a90615459565b80601f0160208091040260200160405190810160405280929190818152602001828054611f3690615459565b8015611f815780601f10611f5857610100808354040283529160200191611f81565b820191905f5260205f20905b815481529060010190602001808311611f6457829003601f168201915b50505050508152602001600782018054611f9a90615459565b80601f0160208091040260200160405190810160405280929190818152602001828054611fc690615459565b80156120115780601f10611fe857610100808354040283529160200191612011565b820191905f5260205f20905b815481529060010190602001808311611ff457829003601f168201915b5050505050815250508152602001601682015f9054906101000a900460ff161515151581526020016016820160019054906101000a900460ff16151515158152505090806018015f9054906101000a900460ff16905083565b6003602052805f5260405f205f91509050805f015f9054906101000a900473ffffffffffffffffffffffffffffffffffffffff1690806001016040518060c00160405290815f82016040518060800160405290815f820180546120cc90615459565b80601f01602080910402602001604051908101604052809291908181526020018280546120f890615459565b80156121435780601f1061211a57610100808354040283529160200191612143565b820191905f5260205f20905b81548152906001019060200180831161212657829003601f168201915b5050505050815260200160018201805461215c90615459565b80601f016020809104026020016040519081016040528092919081815260200182805461218890615459565b80156121d35780601f106121aa576101008083540402835291602001916121d3565b820191905f5260205f20905b8154815290600101906020018083116121b657829003601f168201915b505050505081526020016002820180546121ec90615459565b80601f016020809104026020016040519081016040528092919081815260200182805461221890615459565b80156122635780601f1061223a57610100808354040283529160200191612263565b820191905f5260205f20905b81548152906001019060200180831161224657829003601f168201915b5050505050815260200160038201805461227c90615459565b80601f01602080910402602001604051908101604052809291908181526020018280546122a890615459565b80156122f35780601f106122ca576101008083540402835291602001916122f3565b820191905f5260205f20905b8154815290600101906020018083116122d657829003601f168201915b5050505050815250508152602001600482016040518060400160405290815f8201805461231f90615459565b80601f016020809104026020016040519081016040528092919081815260200182805461234b90615459565b80156123965780601f1061236d57610100808354040283529160200191612396565b820191905f5260205f20905b81548152906001019060200180831161237957829003601f168201915b505050505081526020016001820180546123af90615459565b80601f01602080910402602001604051908101604052809291908181526020018280546123db90615459565b80156124265780601f106123fd57610100808354040283529160200191612426565b820191905f5260205f20905b81548152906001019060200180831161240957829003601f168201915b505050505081525050815260200160068201604051806101000160405290815f8201805461245390615459565b80601f016020809104026020016040519081016040528092919081815260200182805461247f90615459565b80156124ca5780601f106124a1576101008083540402835291602001916124ca565b820191905f5260205f20905b8154815290600101906020018083116124ad57829003601f168201915b505050505081526020016001820180546124e390615459565b80601f016020809104026020016040519081016040528092919081815260200182805461250f90615459565b801561255a5780601f106125315761010080835404028352916020019161255a565b820191905f5260205f20905b81548152906001019060200180831161253d57829003601f168201915b5050505050815260200160028201805461257390615459565b80601f016020809104026020016040519081016040528092919081815260200182805461259f90615459565b80156125ea5780601f106125c1576101008083540402835291602001916125ea565b820191905f5260205f20905b8154815290600101906020018083116125cd57829003601f168201915b5050505050815260200160038201805461260390615459565b80601f016020809104026020016040519081016040528092919081815260200182805461262f90615459565b801561267a5780601f106126515761010080835404028352916020019161267a565b820191905f5260205f20905b81548152906001019060200180831161265d57829003601f168201915b5050505050815260200160048201805461269390615459565b80601f01602080910402602001604051908101604052809291908181526020018280546126bf90615459565b801561270a5780601f106126e15761010080835404028352916020019161270a565b820191905f5260205f20905b8154815290600101906020018083116126ed57829003601f168201915b5050505050815260200160058201805461272390615459565b80601f016020809104026020016040519081016040528092919081815260200182805461274f90615459565b801561279a5780601f106127715761010080835404028352916020019161279a565b820191905f5260205f20905b81548152906001019060200180831161277d57829003601f168201915b505050505081526020016006820180546127b390615459565b80601f01602080910402602001604051908101604052809291908181526020018280546127df90615459565b801561282a5780601f106128015761010080835404028352916020019161282a565b820191905f5260205f20905b81548152906001019060200180831161280d57829003601f168201915b5050505050815260200160078201805461284390615459565b80601f016020809104026020016040519081016040528092919081815260200182805461286f90615459565b80156128ba5780601f10612891576101008083540402835291602001916128ba565b820191905f5260205f20905b81548152906001019060200180831161289d57829003601f168201915b5050505050815250508152602001600e8201604051806101000160405290815f820180546128e790615459565b80601f016020809104026020016040519081016040528092919081815260200182805461291390615459565b801561295e5780601f106129355761010080835404028352916020019161295e565b820191905f5260205f20905b81548152906001019060200180831161294157829003601f168201915b5050505050815260200160018201805461297790615459565b80601f01602080910402602001604051908101604052809291908181526020018280546129a390615459565b80156129ee5780601f106129c5576101008083540402835291602001916129ee565b820191905f5260205f20905b8154815290600101906020018083116129d157829003601f168201915b50505050508152602001600282018054612a0790615459565b80601f0160208091040260200160405190810160405280929190818152602001828054612a3390615459565b8015612a7e5780601f10612a5557610100808354040283529160200191612a7e565b820191905f5260205f20905b815481529060010190602001808311612a6157829003601f168201915b50505050508152602001600382018054612a9790615459565b80601f0160208091040260200160405190810160405280929190818152602001828054612ac390615459565b8015612b0e5780601f10612ae557610100808354040283529160200191612b0e565b820191905f5260205f20905b815481529060010190602001808311612af157829003601f168201915b50505050508152602001600482018054612b2790615459565b80601f0160208091040260200160405190810160405280929190818152602001828054612b5390615459565b8015612b9e5780601f10612b7557610100808354040283529160200191612b9e565b820191905f5260205f20905b815481529060010190602001808311612b8157829003601f168201915b50505050508152602001600582018054612bb790615459565b80601f0160208091040260200160405190810160405280929190818152602001828054612be390615459565b8015612c2e5780601f10612c0557610100808354040283529160200191612c2e565b820191905f5260205f20905b815481529060010190602001808311612c1157829003601f168201915b50505050508152602001600682018054612c4790615459565b80601f0160208091040260200160405190810160405280929190818152602001828054612c7390615459565b8015612cbe5780601f10612c9557610100808354040283529160200191612cbe565b820191905f5260205f20905b815481529060010190602001808311612ca157829003601f168201915b50505050508152602001600782018054612cd790615459565b80601f0160208091040260200160405190810160405280929190818152602001828054612d0390615459565b8015612d4e5780601f10612d2557610100808354040283529160200191612d4e565b820191905f5260205f20905b815481529060010190602001808311612d3157829003601f168201915b5050505050815250508152602001601682015f9054906101000a900460ff161515151581526020016016820160019054906101000a900460ff16151515158152505090806018015f9054906101000a900460ff16905083565b6005602052805f5260405f205f91509050805f015f9054906101000a900473ffffffffffffffffffffffffffffffffffffffff1690806001016040518060c00160405290815f82016040518060800160405290815f82018054612e0990615459565b80601f0160208091040260200160405190810160405280929190818152602001828054612e3590615459565b8015612e805780601f10612e5757610100808354040283529160200191612e80565b820191905f5260205f20905b815481529060010190602001808311612e6357829003601f168201915b50505050508152602001600182018054612e9990615459565b80601f0160208091040260200160405190810160405280929190818152602001828054612ec590615459565b8015612f105780601f10612ee757610100808354040283529160200191612f10565b820191905f5260205f20905b815481529060010190602001808311612ef357829003601f168201915b50505050508152602001600282018054612f2990615459565b80601f0160208091040260200160405190810160405280929190818152602001828054612f5590615459565b8015612fa05780601f10612f7757610100808354040283529160200191612fa0565b820191905f5260205f20905b815481529060010190602001808311612f8357829003601f168201915b50505050508152602001600382018054612fb990615459565b80601f0160208091040260200160405190810160405280929190818152602001828054612fe590615459565b80156130305780601f1061300757610100808354040283529160200191613030565b820191905f5260205f20905b81548152906001019060200180831161301357829003601f168201915b5050505050815250508152602001600482016040518060400160405290815f8201805461305c90615459565b80601f016020809104026020016040519081016040528092919081815260200182805461308890615459565b80156130d35780601f106130aa576101008083540402835291602001916130d3565b820191905f5260205f20905b8154815290600101906020018083116130b657829003601f168201915b505050505081526020016001820180546130ec90615459565b80601f016020809104026020016040519081016040528092919081815260200182805461311890615459565b80156131635780601f1061313a57610100808354040283529160200191613163565b820191905f5260205f20905b81548152906001019060200180831161314657829003601f168201915b505050505081525050815260200160068201604051806101000160405290815f8201805461319090615459565b80601f01602080910402602001604051908101604052809291908181526020018280546131bc90615459565b80156132075780601f106131de57610100808354040283529160200191613207565b820191905f5260205f20905b8154815290600101906020018083116131ea57829003601f168201915b5050505050815260200160018201805461322090615459565b80601f016020809104026020016040519081016040528092919081815260200182805461324c90615459565b80156132975780601f1061326e57610100808354040283529160200191613297565b820191905f5260205f20905b81548152906001019060200180831161327a57829003601f168201915b505050505081526020016002820180546132b090615459565b80601f01602080910402602001604051908101604052809291908181526020018280546132dc90615459565b80156133275780601f106132fe57610100808354040283529160200191613327565b820191905f5260205f20905b81548152906001019060200180831161330a57829003601f168201915b5050505050815260200160038201805461334090615459565b80601f016020809104026020016040519081016040528092919081815260200182805461336c90615459565b80156133b75780601f1061338e576101008083540402835291602001916133b7565b820191905f5260205f20905b81548152906001019060200180831161339a57829003601f168201915b505050505081526020016004820180546133d090615459565b80601f01602080910402602001604051908101604052809291908181526020018280546133fc90615459565b80156134475780601f1061341e57610100808354040283529160200191613447565b820191905f5260205f20905b81548152906001019060200180831161342a57829003601f168201915b5050505050815260200160058201805461346090615459565b80601f016020809104026020016040519081016040528092919081815260200182805461348c90615459565b80156134d75780601f106134ae576101008083540402835291602001916134d7565b820191905f5260205f20905b8154815290600101906020018083116134ba57829003601f168201915b505050505081526020016006820180546134f090615459565b80601f016020809104026020016040519081016040528092919081815260200182805461351c90615459565b80156135675780601f1061353e57610100808354040283529160200191613567565b820191905f5260205f20905b81548152906001019060200180831161354a57829003601f168201915b5050505050815260200160078201805461358090615459565b80601f01602080910402602001604051908101604052809291908181526020018280546135ac90615459565b80156135f75780601f106135ce576101008083540402835291602001916135f7565b820191905f5260205f20905b8154815290600101906020018083116135da57829003601f168201915b5050505050815250508152602001600e8201604051806101000160405290815f8201805461362490615459565b80601f016020809104026020016040519081016040528092919081815260200182805461365090615459565b801561369b5780601f106136725761010080835404028352916020019161369b565b820191905f5260205f20905b81548152906001019060200180831161367e57829003601f168201915b505050505081526020016001820180546136b490615459565b80601f01602080910402602001604051908101604052809291908181526020018280546136e090615459565b801561372b5780601f106137025761010080835404028352916020019161372b565b820191905f5260205f20905b81548152906001019060200180831161370e57829003601f168201915b5050505050815260200160028201805461374490615459565b80601f016020809104026020016040519081016040528092919081815260200182805461377090615459565b80156137bb5780601f10613792576101008083540402835291602001916137bb565b820191905f5260205f20905b81548152906001019060200180831161379e57829003601f168201915b505050505081526020016003820180546137d490615459565b80601f016020809104026020016040519081016040528092919081815260200182805461380090615459565b801561384b5780601f106138225761010080835404028352916020019161384b565b820191905f5260205f20905b81548152906001019060200180831161382e57829003601f168201915b5050505050815260200160048201805461386490615459565b80601f016020809104026020016040519081016040528092919081815260200182805461389090615459565b80156138db5780601f106138b2576101008083540402835291602001916138db565b820191905f5260205f20905b8154815290600101906020018083116138be57829003601f168201915b505050505081526020016005820180546138f490615459565b80601f016020809104026020016040519081016040528092919081815260200182805461392090615459565b801561396b5780601f106139425761010080835404028352916020019161396b565b820191905f5260205f20905b81548152906001019060200180831161394e57829003601f168201915b5050505050815260200160068201805461398490615459565b80601f01602080910402602001604051908101604052809291908181526020018280546139b090615459565b80156139fb5780601f106139d2576101008083540402835291602001916139fb565b820191905f5260205f20905b8154815290600101906020018083116139de57829003601f168201915b50505050508152602001600782018054613a1490615459565b80601f0160208091040260200160405190810160405280929190818152602001828054613a4090615459565b8015613a8b5780601f10613a6257610100808354040283529160200191613a8b565b820191905f5260205f20905b815481529060010190602001808311613a6e57829003601f168201915b5050505050815250508152602001601682015f9054906101000a900460ff161515151581526020016016820160019054906101000a900460ff16151515158152505090806018015f9054906101000a900460ff16905083565b6001602052805f5260405f205f91509050805f015f9054906101000a900473ffffffffffffffffffffffffffffffffffffffff1690806001016040518060c00160405290815f82016040518060800160405290815f82018054613b4690615459565b80601f0160208091040260200160405190810160405280929190818152602001828054613b7290615459565b8015613bbd5780601f10613b9457610100808354040283529160200191613bbd565b820191905f5260205f20905b815481529060010190602001808311613ba057829003601f168201915b50505050508152602001600182018054613bd690615459565b80601f0160208091040260200160405190810160405280929190818152602001828054613c0290615459565b8015613c4d5780601f10613c2457610100808354040283529160200191613c4d565b820191905f5260205f20905b815481529060010190602001808311613c3057829003601f168201915b50505050508152602001600282018054613c6690615459565b80601f0160208091040260200160405190810160405280929190818152602001828054613c9290615459565b8015613cdd5780601f10613cb457610100808354040283529160200191613cdd565b820191905f5260205f20905b815481529060010190602001808311613cc057829003601f168201915b50505050508152602001600382018054613cf690615459565b80601f0160208091040260200160405190810160405280929190818152602001828054613d2290615459565b8015613d6d5780601f10613d4457610100808354040283529160200191613d6d565b820191905f5260205f20905b815481529060010190602001808311613d5057829003601f168201915b5050505050815250508152602001600482016040518060400160405290815f82018054613d9990615459565b80601f0160208091040260200160405190810160405280929190818152602001828054613dc590615459565b8015613e105780601f10613de757610100808354040283529160200191613e10565b820191905f5260205f20905b815481529060010190602001808311613df357829003601f168201915b50505050508152602001600182018054613e2990615459565b80601f0160208091040260200160405190810160405280929190818152602001828054613e5590615459565b8015613ea05780601f10613e7757610100808354040283529160200191613ea0565b820191905f5260205f20905b815481529060010190602001808311613e8357829003601f168201915b505050505081525050815260200160068201604051806101000160405290815f82018054613ecd90615459565b80601f0160208091040260200160405190810160405280929190818152602001828054613ef990615459565b8015613f445780601f10613f1b57610100808354040283529160200191613f44565b820191905f5260205f20905b815481529060010190602001808311613f2757829003601f168201915b50505050508152602001600182018054613f5d90615459565b80601f0160208091040260200160405190810160405280929190818152602001828054613f8990615459565b8015613fd45780601f10613fab57610100808354040283529160200191613fd4565b820191905f5260205f20905b815481529060010190602001808311613fb757829003601f168201915b50505050508152602001600282018054613fed90615459565b80601f016020809104026020016040519081016040528092919081815260200182805461401990615459565b80156140645780601f1061403b57610100808354040283529160200191614064565b820191905f5260205f20905b81548152906001019060200180831161404757829003601f168201915b5050505050815260200160038201805461407d90615459565b80601f01602080910402602001604051908101604052809291908181526020018280546140a990615459565b80156140f45780601f106140cb576101008083540402835291602001916140f4565b820191905f5260205f20905b8154815290600101906020018083116140d757829003601f168201915b5050505050815260200160048201805461410d90615459565b80601f016020809104026020016040519081016040528092919081815260200182805461413990615459565b80156141845780601f1061415b57610100808354040283529160200191614184565b820191905f5260205f20905b81548152906001019060200180831161416757829003601f168201915b5050505050815260200160058201805461419d90615459565b80601f01602080910402602001604051908101604052809291908181526020018280546141c990615459565b80156142145780601f106141eb57610100808354040283529160200191614214565b820191905f5260205f20905b8154815290600101906020018083116141f757829003601f168201915b5050505050815260200160068201805461422d90615459565b80601f016020809104026020016040519081016040528092919081815260200182805461425990615459565b80156142a45780601f1061427b576101008083540402835291602001916142a4565b820191905f5260205f20905b81548152906001019060200180831161428757829003601f168201915b505050505081526020016007820180546142bd90615459565b80601f01602080910402602001604051908101604052809291908181526020018280546142e990615459565b80156143345780601f1061430b57610100808354040283529160200191614334565b820191905f5260205f20905b81548152906001019060200180831161431757829003601f168201915b5050505050815250508152602001600e8201604051806101000160405290815f8201805461436190615459565b80601f016020809104026020016040519081016040528092919081815260200182805461438d90615459565b80156143d85780601f106143af576101008083540402835291602001916143d8565b820191905f5260205f20905b8154815290600101906020018083116143bb57829003601f168201915b505050505081526020016001820180546143f190615459565b80601f016020809104026020016040519081016040528092919081815260200182805461441d90615459565b80156144685780601f1061443f57610100808354040283529160200191614468565b820191905f5260205f20905b81548152906001019060200180831161444b57829003601f168201915b5050505050815260200160028201805461448190615459565b80601f01602080910402602001604051908101604052809291908181526020018280546144ad90615459565b80156144f85780601f106144cf576101008083540402835291602001916144f8565b820191905f5260205f20905b8154815290600101906020018083116144db57829003601f168201915b5050505050815260200160038201805461451190615459565b80601f016020809104026020016040519081016040528092919081815260200182805461453d90615459565b80156145885780601f1061455f57610100808354040283529160200191614588565b820191905f5260205f20905b81548152906001019060200180831161456b57829003601f168201915b505050505081526020016004820180546145a190615459565b80601f01602080910402602001604051908101604052809291908181526020018280546145cd90615459565b80156146185780601f106145ef57610100808354040283529160200191614618565b820191905f5260205f20905b8154815290600101906020018083116145fb57829003601f168201915b5050505050815260200160058201805461463190615459565b80601f016020809104026020016040519081016040528092919081815260200182805461465d90615459565b80156146a85780601f1061467f576101008083540402835291602001916146a8565b820191905f5260205f20905b81548152906001019060200180831161468b57829003601f168201915b505050505081526020016006820180546146c190615459565b80601f01602080910402602001604051908101604052809291908181526020018280546146ed90615459565b80156147385780601f1061470f57610100808354040283529160200191614738565b820191905f5260205f20905b81548152906001019060200180831161471b57829003601f168201915b5050505050815260200160078201805461475190615459565b80601f016020809104026020016040519081016040528092919081815260200182805461477d90615459565b80156147c85780601f1061479f576101008083540402835291602001916147c8565b820191905f5260205f20905b8154815290600101906020018083116147ab57829003601f168201915b5050505050815250508152602001601682015f9054906101000a900460ff161515151581526020016016820160019054906101000a900460ff16151515158152505090806018015f9054906101000a900460ff16905083565b5f8054906101000a900473ffffffffffffffffffffffffffffffffffffffff1673ffffffffffffffffffffffffffffffffffffffff1663f405275c60036040518263ffffffff1660e01b815260040161487a91906157bc565b602060405180830381865afa158015614895573d5f803e3d5ffd5b505050506040513d601f19601f820116820180604052508101906148b991906157e9565b6148f8576040517f08c379a00000000000000000000000000000000000000000000000000000000081526004016148ef90615884565b60405180910390fd5b8060055f8473ffffffffffffffffffffffffffffffffffffffff1673ffffffffffffffffffffffffffffffffffffffff1681526020019081526020015f206018015f6101000a81548160ff0219169083600281111561495a57614959614d2f565b5b02179055508173ffffffffffffffffffffffffffffffffffffffff167f73d35f4b5dc2339683083dec639ba37f0f5592fc26de0e0603ac5ba2412cd00460405160405180910390a25050565b5f604051905090565b5f80fd5b5f80fd5b5f73ffffffffffffffffffffffffffffffffffffffff82169050919050565b5f6149e0826149b7565b9050919050565b6149f0816149d6565b81146149fa575f80fd5b50565b5f81359050614a0b816149e7565b92915050565b5f60208284031215614a2657614a256149af565b5b5f614a33848285016149fd565b91505092915050565b5f614a46826149b7565b9050919050565b614a5681614a3c565b82525050565b5f81519050919050565b5f82825260208201905092915050565b5f5b83811015614a93578082015181840152602081019050614a78565b5f8484015250505050565b5f601f19601f8301169050919050565b5f614ab882614a5c565b614ac28185614a66565b9350614ad2818560208601614a76565b614adb81614a9e565b840191505092915050565b5f608083015f8301518482035f860152614b008282614aae565b91505060208301518482036020860152614b1a8282614aae565b91505060408301518482036040860152614b348282614aae565b91505060608301518482036060860152614b4e8282614aae565b9150508091505092915050565b5f604083015f8301518482035f860152614b758282614aae565b91505060208301518482036020860152614b8f8282614aae565b9150508091505092915050565b5f61010083015f8301518482035f860152614bb78282614aae565b91505060208301518482036020860152614bd18282614aae565b91505060408301518482036040860152614beb8282614aae565b91505060608301518482036060860152614c058282614aae565b91505060808301518482036080860152614c1f8282614aae565b91505060a083015184820360a0860152614c398282614aae565b91505060c083015184820360c0860152614c538282614aae565b91505060e083015184820360e0860152614c6d8282614aae565b9150508091505092915050565b5f8115159050919050565b614c8e81614c7a565b82525050565b5f60c083015f8301518482035f860152614cae8282614ae6565b91505060208301518482036020860152614cc88282614b5b565b91505060408301518482036040860152614ce28282614b9c565b91505060608301518482036060860152614cfc8282614b9c565b9150506080830151614d116080860182614c85565b5060a0830151614d2460a0860182614c85565b508091505092915050565b7f4e487b71000000000000000000000000000000000000000000000000000000005f52602160045260245ffd5b60038110614d6d57614d6c614d2f565b5b50565b5f819050614d7d82614d5c565b919050565b5f614d8c82614d70565b9050919050565b614d9c81614d82565b82525050565b5f606082019050614db55f830186614a4d565b8181036020830152614dc78185614c94565b9050614dd66040830184614d93565b949350505050565b5f80fd5b7f4e487b71000000000000000000000000000000000000000000000000000000005f52604160045260245ffd5b614e1882614a9e565b810181811067ffffffffffffffff82111715614e3757614e36614de2565b5b80604052505050565b5f614e496149a6565b9050614e558282614e0f565b919050565b5f80fd5b5f80fd5b5f80fd5b5f67ffffffffffffffff821115614e8057614e7f614de2565b5b614e8982614a9e565b9050602081019050919050565b828183375f83830152505050565b5f614eb6614eb184614e66565b614e40565b905082815260208101848484011115614ed257614ed1614e62565b5b614edd848285614e96565b509392505050565b5f82601f830112614ef957614ef8614e5e565b5b8135614f09848260208601614ea4565b91505092915050565b5f60808284031215614f2757614f26614dde565b5b614f316080614e40565b90505f82013567ffffffffffffffff811115614f5057614f4f614e5a565b5b614f5c84828501614ee5565b5f83015250602082013567ffffffffffffffff811115614f7f57614f7e614e5a565b5b614f8b84828501614ee5565b602083015250604082013567ffffffffffffffff811115614faf57614fae614e5a565b5b614fbb84828501614ee5565b604083015250606082013567ffffffffffffffff811115614fdf57614fde614e5a565b5b614feb84828501614ee5565b60608301525092915050565b5f6040828403121561500c5761500b614dde565b5b6150166040614e40565b90505f82013567ffffffffffffffff81111561503557615034614e5a565b5b61504184828501614ee5565b5f83015250602082013567ffffffffffffffff81111561506457615063614e5a565b5b61507084828501614ee5565b60208301525092915050565b5f610100828403121561509257615091614dde565b5b61509d610100614e40565b90505f82013567ffffffffffffffff8111156150bc576150bb614e5a565b5b6150c884828501614ee5565b5f83015250602082013567ffffffffffffffff8111156150eb576150ea614e5a565b5b6150f784828501614ee5565b602083015250604082013567ffffffffffffffff81111561511b5761511a614e5a565b5b61512784828501614ee5565b604083015250606082013567ffffffffffffffff81111561514b5761514a614e5a565b5b61515784828501614ee5565b606083015250608082013567ffffffffffffffff81111561517b5761517a614e5a565b5b61518784828501614ee5565b60808301525060a082013567ffffffffffffffff8111156151ab576151aa614e5a565b5b6151b784828501614ee5565b60a08301525060c082013567ffffffffffffffff8111156151db576151da614e5a565b5b6151e784828501614ee5565b60c08301525060e082013567ffffffffffffffff81111561520b5761520a614e5a565b5b61521784828501614ee5565b60e08301525092915050565b61522c81614c7a565b8114615236575f80fd5b50565b5f8135905061524781615223565b92915050565b5f60c0828403121561526257615261614dde565b5b61526c60c0614e40565b90505f82013567ffffffffffffffff81111561528b5761528a614e5a565b5b61529784828501614f12565b5f83015250602082013567ffffffffffffffff8111156152ba576152b9614e5a565b5b6152c684828501614ff7565b602083015250604082013567ffffffffffffffff8111156152ea576152e9614e5a565b5b6152f68482850161507c565b604083015250606082013567ffffffffffffffff81111561531a57615319614e5a565b5b6153268482850161507c565b606083015250608061533a84828501615239565b60808301525060a061534e84828501615239565b60a08301525092915050565b5f6020828403121561536f5761536e6149af565b5b5f82013567ffffffffffffffff81111561538c5761538b6149b3565b5b6153988482850161524d565b91505092915050565b6153aa81614a3c565b81146153b4575f80fd5b50565b5f813590506153c5816153a1565b92915050565b600381106153d7575f80fd5b50565b5f813590506153e8816153cb565b92915050565b5f8060408385031215615404576154036149af565b5b5f615411858286016153b7565b9250506020615422858286016153da565b9150509250929050565b7f4e487b71000000000000000000000000000000000000000000000000000000005f52602260045260245ffd5b5f600282049050600182168061547057607f821691505b6020821081036154835761548261542c565b5b50919050565b5f82825260208201905092915050565b7f5573657220616c726561647920726567697374657265642e00000000000000005f82015250565b5f6154cd601883615489565b91506154d882615499565b602082019050919050565b5f6020820190508181035f8301526154fa816154c1565b9050919050565b5f819050815f5260205f209050919050565b5f6020601f8301049050919050565b5f82821b905092915050565b5f6008830261555d7fffffffffffffffffffffffffffffffffffffffffffffffffffffffffffffffff82615522565b6155678683615522565b95508019841693508086168417925050509392505050565b5f819050919050565b5f819050919050565b5f6155ab6155a66155a18461557f565b615588565b61557f565b9050919050565b5f819050919050565b6155c483615591565b6155d86155d0826155b2565b84845461552e565b825550505050565b5f90565b6155ec6155e0565b6155f78184846155bb565b505050565b5b8181101561561a5761560f5f826155e4565b6001810190506155fd565b5050565b601f82111561565f5761563081615501565b61563984615513565b81016020851015615648578190505b61565c61565485615513565b8301826155fc565b50505b505050565b5f82821c905092915050565b5f61567f5f1984600802615664565b1980831691505092915050565b5f6156978383615670565b9150826002028217905092915050565b6156b082614a5c565b67ffffffffffffffff8111156156c9576156c8614de2565b5b6156d38254615459565b6156de82828561561e565b5f60209050601f83116001811461570f575f84156156fd578287015190505b615707858261568c565b86555061576e565b601f19841661571d86615501565b5f5b828110156157445784890151825560018201915060208501945060208101905061571f565b86831015615761578489015161575d601f891682615670565b8355505b6001600288020188555050505b505050505050565b6005811061578757615786614d2f565b5b50565b5f81905061579782615776565b919050565b5f6157a68261578a565b9050919050565b6157b68161579c565b82525050565b5f6020820190506157cf5f8301846157ad565b92915050565b5f815190506157e381615223565b92915050565b5f602082840312156157fe576157fd6149af565b5b5f61580b848285016157d5565b91505092915050565b7f4f6e6c79204c6f63616c697479204f6666696365722063616e207570646174655f8201527f20766f746572207374617475732e000000000000000000000000000000000000602082015250565b5f61586e602e83615489565b915061587982615814565b604082019050919050565b5f6020820190508181035f83015261589b81615862565b905091905056fea2646970667358221220daeece7c1cbd3b53a4dc480264945a192311bdcaa3651df517ae061e5da09f6064736f6c63430008170033",
  "immutableReferences": {},
  "source": "// SPDX-License-Identifier: SEE LICENSE IN LICENSE\r\npragma solidity ^0.8.0;\r\n\r\nimport \"./Permissions.sol\";\r\n\r\ncontract Voter {\r\n    Permissions permissions;\r\n\r\n    constructor(address permissionsAddress) {\r\n        permissions = Permissions(permissionsAddress);\r\n    }\r\n\r\n    enum VoterStatus { Unregistered, Registered, Verified }\r\n    \r\n    /*\r\n        Voter Related Structures,\r\n        VoterAddressInfo: Contains address related information of a voter.\r\n        VoterPersonalInfo: Contains personal information of a voter.\r\n        VoterContactInfo: Contains contact information of a voter.\r\n        VoterInfo: Contains all the information of a voter.\r\n        VoterAccount: Contains the address of a voter and its information.\r\n    */\r\n\r\n    struct VoterAddressInfo {\r\n        string state;\r\n        string district;\r\n        string locality;\r\n        string ward;\r\n        string house_name;\r\n        string house_number;\r\n        string street;\r\n        string pincode;\r\n    }\r\n\r\n    struct VoterPersonalInfo {\r\n        string first_name;\r\n        string middle_name;\r\n        string last_name;\r\n        string dob;\r\n    }\r\n\r\n    struct VoterContactInfo {\r\n        string phone;\r\n        string email;\r\n    }\r\n\r\n    struct VoterInfo {\r\n        VoterPersonalInfo personal_info;\r\n        VoterContactInfo contact_info;\r\n        VoterAddressInfo permeant_address;\r\n        VoterAddressInfo current_address;\r\n        bool married;\r\n        bool orphan;\r\n    }\r\n\r\n    struct VoterAccount {\r\n        address payable voter_address;\r\n        VoterInfo voter_info;\r\n        VoterStatus status;\r\n    }\r\n    \r\n    event VoterRegistered(address indexed voterAddress);\r\n    event VoterVerified(address indexed voterAddress);\r\n    \r\n    mapping(address => VoterAccount) public father_linker;                     // voter account father account liker\r\n    mapping(address => VoterAccount) public mother_linker;                     // voter account mother account liker\r\n    mapping(address => VoterAccount) public spouse_linker;                     // voter account spouse account liker\r\n    mapping(address => VoterAccount) public guardian_linker;                   // voter account guardian account liker\r\n\r\n    mapping(address => VoterAccount) public voters;                            // list of voters\r\n\r\n    \r\n    function registerVoter(VoterInfo memory details) public {\r\n        require(voters[msg.sender].status == VoterStatus.Unregistered, \"User already registered.\");\r\n        voters[msg.sender] = VoterAccount(payable(msg.sender), details, VoterStatus.Registered);\r\n        emit VoterRegistered(msg.sender);\r\n    }\r\n\r\n    function updateVoterStatus(address payable _voterAddress, VoterStatus _status) public {\r\n        require(permissions.requireAdmin(Permissions.AdminRole.LocalityOfficer), \"Only Locality Officer can update voter status.\");\r\n        voters[_voterAddress].status = _status;\r\n        emit VoterVerified(_voterAddress);\r\n    }\r\n    \r\n    // function is_admin(address _admin) public view returns (bool) {\r\n    //     bool exists = bytes(admins[_admin].name).length > 0;\r\n    //     return exists;\r\n    // }\r\n}\r\n",
  "sourcePath": "C:\\Users\\aswan\\Desktop\\VoteChain\\votechain-chain\\contracts\\Voter.sol",
  "compiler": {
    "name": "solc",
    "version": "0.8.23+commit.f704f362.Emscripten.clang"
  },
  "schemaVersion": "3.4.16",
  "updatedAt": "2023-12-17T19:56:44.190Z",
  "devdoc": {
    "kind": "dev",
    "methods": {},
    "version": 1
  },
  "userdoc": {
    "kind": "user",
    "methods": {},
    "version": 1
  }
}