{
  "contractName": "eVote",
  "abi": [
    {
      "inputs": [],
      "payable": false,
      "stateMutability": "nonpayable",
      "type": "constructor"
    },
    {
      "anonymous": false,
      "inputs": [
        {
          "indexed": true,
          "internalType": "uint256",
          "name": "_voteIndex",
          "type": "uint256"
        }
      ],
      "name": "votedEvent",
      "type": "event"
    },
    {
      "constant": true,
      "inputs": [],
      "name": "authorizeUsers",
      "outputs": [
        {
          "internalType": "bool",
          "name": "",
          "type": "bool"
        }
      ],
      "payable": false,
      "stateMutability": "view",
      "type": "function"
    },
    {
      "constant": true,
      "inputs": [
        {
          "internalType": "uint256",
          "name": "",
          "type": "uint256"
        }
      ],
      "name": "candidates",
      "outputs": [
        {
          "internalType": "uint256",
          "name": "id",
          "type": "uint256"
        },
        {
          "internalType": "bytes32",
          "name": "name",
          "type": "bytes32"
        },
        {
          "internalType": "uint256",
          "name": "totalVotes",
          "type": "uint256"
        }
      ],
      "payable": false,
      "stateMutability": "view",
      "type": "function"
    },
    {
      "constant": true,
      "inputs": [],
      "name": "finishedVote",
      "outputs": [
        {
          "internalType": "bool",
          "name": "",
          "type": "bool"
        }
      ],
      "payable": false,
      "stateMutability": "view",
      "type": "function"
    },
    {
      "constant": true,
      "inputs": [],
      "name": "registerCands",
      "outputs": [
        {
          "internalType": "bool",
          "name": "",
          "type": "bool"
        }
      ],
      "payable": false,
      "stateMutability": "view",
      "type": "function"
    },
    {
      "constant": true,
      "inputs": [],
      "name": "startVote",
      "outputs": [
        {
          "internalType": "bool",
          "name": "",
          "type": "bool"
        }
      ],
      "payable": false,
      "stateMutability": "view",
      "type": "function"
    },
    {
      "constant": true,
      "inputs": [],
      "name": "totalCandidates",
      "outputs": [
        {
          "internalType": "uint256",
          "name": "",
          "type": "uint256"
        }
      ],
      "payable": false,
      "stateMutability": "view",
      "type": "function"
    },
    {
      "constant": true,
      "inputs": [],
      "name": "totalVoters",
      "outputs": [
        {
          "internalType": "uint256",
          "name": "",
          "type": "uint256"
        }
      ],
      "payable": false,
      "stateMutability": "view",
      "type": "function"
    },
    {
      "constant": true,
      "inputs": [],
      "name": "voteOngoing",
      "outputs": [
        {
          "internalType": "bool",
          "name": "",
          "type": "bool"
        }
      ],
      "payable": false,
      "stateMutability": "view",
      "type": "function"
    },
    {
      "constant": true,
      "inputs": [],
      "name": "votedUsers",
      "outputs": [
        {
          "internalType": "uint256",
          "name": "",
          "type": "uint256"
        }
      ],
      "payable": false,
      "stateMutability": "view",
      "type": "function"
    },
    {
      "constant": true,
      "inputs": [
        {
          "internalType": "uint256",
          "name": "",
          "type": "uint256"
        }
      ],
      "name": "voterList",
      "outputs": [
        {
          "internalType": "address",
          "name": "",
          "type": "address"
        }
      ],
      "payable": false,
      "stateMutability": "view",
      "type": "function"
    },
    {
      "constant": true,
      "inputs": [
        {
          "internalType": "address",
          "name": "",
          "type": "address"
        }
      ],
      "name": "voters",
      "outputs": [
        {
          "internalType": "bool",
          "name": "hasVoted",
          "type": "bool"
        },
        {
          "internalType": "uint256",
          "name": "vote",
          "type": "uint256"
        },
        {
          "internalType": "bool",
          "name": "isRegistered",
          "type": "bool"
        },
        {
          "internalType": "bool",
          "name": "isLoggedIn",
          "type": "bool"
        },
        {
          "internalType": "bool",
          "name": "allowedToVote",
          "type": "bool"
        }
      ],
      "payable": false,
      "stateMutability": "view",
      "type": "function"
    },
    {
      "constant": false,
      "inputs": [
        {
          "internalType": "string",
          "name": "_voter",
          "type": "string"
        }
      ],
      "name": "voterAuth",
      "outputs": [
        {
          "internalType": "bool",
          "name": "",
          "type": "bool"
        }
      ],
      "payable": false,
      "stateMutability": "nonpayable",
      "type": "function"
    },
    {
      "constant": false,
      "inputs": [
        {
          "internalType": "string",
          "name": "_email",
          "type": "string"
        },
        {
          "internalType": "string",
          "name": "_password",
          "type": "string"
        }
      ],
      "name": "loginVoter",
      "outputs": [
        {
          "internalType": "bool",
          "name": "",
          "type": "bool"
        }
      ],
      "payable": false,
      "stateMutability": "nonpayable",
      "type": "function"
    },
    {
      "constant": false,
      "inputs": [
        {
          "internalType": "string",
          "name": "_email",
          "type": "string"
        },
        {
          "internalType": "string",
          "name": "_password",
          "type": "string"
        },
        {
          "internalType": "string",
          "name": "_idno",
          "type": "string"
        }
      ],
      "name": "registerVoter",
      "outputs": [
        {
          "internalType": "bool",
          "name": "",
          "type": "bool"
        }
      ],
      "payable": false,
      "stateMutability": "nonpayable",
      "type": "function"
    },
    {
      "constant": false,
      "inputs": [],
      "name": "logout",
      "outputs": [],
      "payable": false,
      "stateMutability": "nonpayable",
      "type": "function"
    },
    {
      "constant": false,
      "inputs": [],
      "name": "authorizingUsers",
      "outputs": [],
      "payable": false,
      "stateMutability": "nonpayable",
      "type": "function"
    },
    {
      "constant": false,
      "inputs": [],
      "name": "startVoting",
      "outputs": [],
      "payable": false,
      "stateMutability": "nonpayable",
      "type": "function"
    },
    {
      "constant": false,
      "inputs": [],
      "name": "stopVoting",
      "outputs": [],
      "payable": false,
      "stateMutability": "nonpayable",
      "type": "function"
    },
    {
      "constant": false,
      "inputs": [
        {
          "internalType": "bytes32",
          "name": "_name",
          "type": "bytes32"
        }
      ],
      "name": "addCandidate",
      "outputs": [],
      "payable": false,
      "stateMutability": "nonpayable",
      "type": "function"
    },
    {
      "constant": false,
      "inputs": [
        {
          "internalType": "uint256",
          "name": "_voteIndex",
          "type": "uint256"
        }
      ],
      "name": "vote",
      "outputs": [],
      "payable": false,
      "stateMutability": "nonpayable",
      "type": "function"
    }
  ],
  "bytecode": "0x60806040526000600555600060065560006007556001600860006101000a81548160ff02191690831515021790555034801561003a57600080fd5b50336000806101000a81548173ffffffffffffffffffffffffffffffffffffffff021916908373ffffffffffffffffffffffffffffffffffffffff1602179055506118948061008a6000396000f3fe608060405234801561001057600080fd5b506004361061012c5760003560e01c806350e2e8af116100ad578063a3ec138d11610071578063a3ec138d14610694578063a4551fc514610718578063b2b956e21461073a578063e280ab3c1461075c578063fab2f86b1461082f5761012c565b806350e2e8af146105a657806355e3e5d6146106145780635f5300ff1461063657806361243761146106545780639f8e4815146106765761012c565b8063230d6ed8116100f4578063230d6ed81461037e5780633477ee2e146103ac5780633866965c146103fc578063400af02a1461041a5780634c0a6af0146105845761012c565b80630121b93f14610131578063074395091461015f57806312620e13146103605780631ec6b60a1461036a5780631f3c99c314610374575b600080fd5b61015d6004803603602081101561014757600080fd5b8101908080359060200190929190505050610839565b005b6103466004803603606081101561017557600080fd5b810190808035906020019064010000000081111561019257600080fd5b8201836020820111156101a457600080fd5b803590602001918460018302840111640100000000831117156101c657600080fd5b91908080601f016020809104026020016040519081016040528093929190818152602001838380828437600081840152601f19601f8201169050808301925050505050505091929192908035906020019064010000000081111561022957600080fd5b82018360208201111561023b57600080fd5b8035906020019184600183028401116401000000008311171561025d57600080fd5b91908080601f016020809104026020016040519081016040528093929190818152602001838380828437600081840152601f19601f820116905080830192505050505050509192919290803590602001906401000000008111156102c057600080fd5b8201836020820111156102d257600080fd5b803590602001918460018302840111640100000000831117156102f457600080fd5b91908080601f016020809104026020016040519081016040528093929190818152602001838380828437600081840152601f19601f820116905080830192505050505050509192919290505050610a40565b604051808215151515815260200191505060405180910390f35b610368610c1a565b005b610372610cab565b005b61037c610d57565b005b6103aa6004803603602081101561039457600080fd5b8101908080359060200190929190505050610e0d565b005b6103d8600480360360208110156103c257600080fd5b8101908080359060200190929190505050610ee7565b60405180848152602001838152602001828152602001935050505060405180910390f35b610404610f11565b6040518082815260200191505060405180910390f35b61056a6004803603604081101561043057600080fd5b810190808035906020019064010000000081111561044d57600080fd5b82018360208201111561045f57600080fd5b8035906020019184600183028401116401000000008311171561048157600080fd5b91908080601f016020809104026020016040519081016040528093929190818152602001838380828437600081840152601f19601f820116905080830192505050505050509192919290803590602001906401000000008111156104e457600080fd5b8201836020820111156104f657600080fd5b8035906020019184600183028401116401000000008311171561051857600080fd5b91908080601f016020809104026020016040519081016040528093929190818152602001838380828437600081840152601f19601f820116905080830192505050505050509192919290505050610f17565b604051808215151515815260200191505060405180910390f35b61058c61123f565b604051808215151515815260200191505060405180910390f35b6105d2600480360360208110156105bc57600080fd5b8101908080359060200190929190505050611252565b604051808273ffffffffffffffffffffffffffffffffffffffff1673ffffffffffffffffffffffffffffffffffffffff16815260200191505060405180910390f35b61061c611285565b604051808215151515815260200191505060405180910390f35b61063e611298565b6040518082815260200191505060405180910390f35b61065c61129e565b604051808215151515815260200191505060405180910390f35b61067e6112b1565b6040518082815260200191505060405180910390f35b6106d6600480360360208110156106aa57600080fd5b81019080803573ffffffffffffffffffffffffffffffffffffffff1690602001909291905050506112b7565b60405180861515151581526020018581526020018415151515815260200183151515158152602001821515151581526020019550505050505060405180910390f35b610720611321565b604051808215151515815260200191505060405180910390f35b610742611334565b604051808215151515815260200191505060405180910390f35b6108156004803603602081101561077257600080fd5b810190808035906020019064010000000081111561078f57600080fd5b8201836020820111156107a157600080fd5b803590602001918460018302840111640100000000831117156107c357600080fd5b91908080601f016020809104026020016040519081016040528093929190818152602001838380828437600081840152601f19601f820116905080830192505050505050509192919290505050611347565b604051808215151515815260200191505060405180910390f35b6108376114d0565b005b600860029054906101000a900460ff1680156108625750600860039054906101000a900460ff16155b61086b57600080fd5b600160003373ffffffffffffffffffffffffffffffffffffffff1673ffffffffffffffffffffffffffffffffffffffff16815260200190815260200160002060000160009054906101000a900460ff16156108c557600080fd5b600160003373ffffffffffffffffffffffffffffffffffffffff1673ffffffffffffffffffffffffffffffffffffffff16815260200190815260200160002060020160029054906101000a900460ff1661091e57600080fd5b60008111801561093057506007548111155b61093957600080fd5b80600160003373ffffffffffffffffffffffffffffffffffffffff1673ffffffffffffffffffffffffffffffffffffffff1681526020019081526020016000206001018190555060018060003373ffffffffffffffffffffffffffffffffffffffff1673ffffffffffffffffffffffffffffffffffffffff16815260200190815260200160002060000160006101000a81548160ff021916908315150217905550600160046000838152602001908152602001600020600201600082825401925050819055506001600660008282540192505081905550807ffff3c900d938d21d0990d786e819f29b8d05c1ef587b462b939609625b684b1660405160405180910390a250565b6000600160003373ffffffffffffffffffffffffffffffffffffffff1673ffffffffffffffffffffffffffffffffffffffff16815260200190815260200160002060020160009054906101000a900460ff1615610a9c57600080fd5b60016005600082825401925050819055503360036000600554815260200190815260200160002060006101000a81548173ffffffffffffffffffffffffffffffffffffffff021916908373ffffffffffffffffffffffffffffffffffffffff16021790555060018060003373ffffffffffffffffffffffffffffffffffffffff1673ffffffffffffffffffffffffffffffffffffffff16815260200190815260200160002060020160006101000a81548160ff021916908315150217905550604051806060016040528085815260200184815260200183815250600260003373ffffffffffffffffffffffffffffffffffffffff1673ffffffffffffffffffffffffffffffffffffffff1681526020019081526020016000206000820151816000019080519060200190610bd19291906117ba565b506020820151816001019080519060200190610bee9291906117ba565b506040820151816002019080519060200190610c0b9291906117ba565b50905050600190509392505050565b6000809054906101000a900473ffffffffffffffffffffffffffffffffffffffff1673ffffffffffffffffffffffffffffffffffffffff163373ffffffffffffffffffffffffffffffffffffffff1614610c7357600080fd5b6001600860016101000a81548160ff0219169083151502179055506000600860006101000a81548160ff021916908315150217905550565b6000809054906101000a900473ffffffffffffffffffffffffffffffffffffffff1673ffffffffffffffffffffffffffffffffffffffff163373ffffffffffffffffffffffffffffffffffffffff1614610d0457600080fd5b6001600860026101000a81548160ff0219169083151502179055506001600860046101000a81548160ff0219169083151502179055506000600860016101000a81548160ff021916908315150217905550565b600160003373ffffffffffffffffffffffffffffffffffffffff1673ffffffffffffffffffffffffffffffffffffffff16815260200190815260200160002060020160019054906101000a900460ff16610db057600080fd5b6000600160003373ffffffffffffffffffffffffffffffffffffffff1673ffffffffffffffffffffffffffffffffffffffff16815260200190815260200160002060020160016101000a81548160ff021916908315150217905550565b6000809054906101000a900473ffffffffffffffffffffffffffffffffffffffff1673ffffffffffffffffffffffffffffffffffffffff163373ffffffffffffffffffffffffffffffffffffffff1614610e6657600080fd5b600860009054906101000a900460ff16610e7f57600080fd5b600160076000828254019250508190555060405180606001604052806007548152602001828152602001600081525060046000600754815260200190815260200160002060008201518160000155602082015181600101556040820151816002015590505050565b60046020528060005260406000206000915090508060000154908060010154908060020154905083565b60075481565b6000600160003373ffffffffffffffffffffffffffffffffffffffff1673ffffffffffffffffffffffffffffffffffffffff16815260200190815260200160002060020160009054906101000a900460ff16610f7257600080fd5b826040516020018082805190602001908083835b60208310610fa95780518252602082019150602081019050602083039250610f86565b6001836020036101000a03801982511681845116808217855250505050505090500191505060405160208183030381529060405280519060200120600260003373ffffffffffffffffffffffffffffffffffffffff1673ffffffffffffffffffffffffffffffffffffffff16815260200190815260200160002060000160405160200180828054600181600116156101000203166002900480156110845780601f10611062576101008083540402835291820191611084565b820191906000526020600020905b815481529060010190602001808311611070575b5050915050604051602081830303815290604052805190602001201480156111d65750816040516020018082805190602001908083835b602083106110de57805182526020820191506020810190506020830392506110bb565b6001836020036101000a03801982511681845116808217855250505050505090500191505060405160208183030381529060405280519060200120600260003373ffffffffffffffffffffffffffffffffffffffff1673ffffffffffffffffffffffffffffffffffffffff16815260200190815260200160002060010160405160200180828054600181600116156101000203166002900480156111b95780601f106111975761010080835404028352918201916111b9565b820191906000526020600020905b8154815290600101906020018083116111a5575b505091505060405160208183030381529060405280519060200120145b6111df57600080fd5b60018060003373ffffffffffffffffffffffffffffffffffffffff1673ffffffffffffffffffffffffffffffffffffffff16815260200190815260200160002060020160016101000a81548160ff02191690831515021790555092915050565b600860029054906101000a900460ff1681565b60036020528060005260406000206000915054906101000a900473ffffffffffffffffffffffffffffffffffffffff1681565b600860039054906101000a900460ff1681565b60055481565b600860009054906101000a900460ff1681565b60065481565b60016020528060005260406000206000915090508060000160009054906101000a900460ff16908060010154908060020160009054906101000a900460ff16908060020160019054906101000a900460ff16908060020160029054906101000a900460ff16905085565b600860049054906101000a900460ff1681565b600860019054906101000a900460ff1681565b60008060009054906101000a900473ffffffffffffffffffffffffffffffffffffffff1673ffffffffffffffffffffffffffffffffffffffff163373ffffffffffffffffffffffffffffffffffffffff16146113a257600080fd5b600860019054906101000a900460ff166113bb57600080fd5b60006113c683611561565b9050600160008273ffffffffffffffffffffffffffffffffffffffff1673ffffffffffffffffffffffffffffffffffffffff16815260200190815260200160002060020160009054906101000a900460ff16156114785760018060008373ffffffffffffffffffffffffffffffffffffffff1673ffffffffffffffffffffffffffffffffffffffff16815260200190815260200160002060020160026101000a81548160ff0219169083151502179055505b600160008273ffffffffffffffffffffffffffffffffffffffff1673ffffffffffffffffffffffffffffffffffffffff16815260200190815260200160002060020160029054906101000a900460ff16915050919050565b6000809054906101000a900473ffffffffffffffffffffffffffffffffffffffff1673ffffffffffffffffffffffffffffffffffffffff163373ffffffffffffffffffffffffffffffffffffffff161461152957600080fd5b6001600860036101000a81548160ff0219169083151502179055506000600860046101000a81548160ff021916908315150217905550565b6000606082905060008090506000806000600290505b602a8110156117ad576101008402935084818151811061159357fe5b602001015160f81c60f81b60f81c60ff1692508460018201815181106115b557fe5b602001015160f81c60f81b60f81c60ff16915060618373ffffffffffffffffffffffffffffffffffffffff1610158015611606575060668373ffffffffffffffffffffffffffffffffffffffff1611155b15611616576057830392506116b0565b60418373ffffffffffffffffffffffffffffffffffffffff1610158015611654575060468373ffffffffffffffffffffffffffffffffffffffff1611155b15611664576037830392506116af565b60308373ffffffffffffffffffffffffffffffffffffffff16101580156116a2575060398373ffffffffffffffffffffffffffffffffffffffff1611155b156116ae576030830392505b5b5b60618273ffffffffffffffffffffffffffffffffffffffff16101580156116ee575060668273ffffffffffffffffffffffffffffffffffffffff1611155b156116fe57605782039150611798565b60418273ffffffffffffffffffffffffffffffffffffffff161015801561173c575060468273ffffffffffffffffffffffffffffffffffffffff1611155b1561174c57603782039150611797565b60308273ffffffffffffffffffffffffffffffffffffffff161015801561178a575060398273ffffffffffffffffffffffffffffffffffffffff1611155b15611796576030820391505b5b5b81601084020184019350600281019050611577565b5082945050505050919050565b828054600181600116156101000203166002900490600052602060002090601f016020900481019282601f106117fb57805160ff1916838001178555611829565b82800160010185558215611829579182015b8281111561182857825182559160200191906001019061180d565b5b509050611836919061183a565b5090565b61185c91905b80821115611858576000816000905550600101611840565b5090565b9056fea265627a7a723158207df0fb1ca706e6da8f1d778aa49f787102958a864b518a83bdc8953ba6f8d3db64736f6c63430005100032",
  "source": "// File: contracts/eVote.sol\n// SPDX-License-Identifier: MIT\npragma solidity >=0.5.16;\n\ncontract eVote {\n    struct Voter {\n        bool hasVoted;\n        uint vote;\n\t\tbool isRegistered;\n\t\tbool isLoggedIn;\n\t\tbool allowedToVote;\n    }\n\tstruct VoterDetails{\n\t\tstring email;\n\t\tstring pass;\n\t\tstring identityno;\n\t\n\t}\n    struct Candidate {\n        uint id;\n        bytes32 name;\n        uint totalVotes;\n    }\n\t\n\taddress chairman;\n\t\n\n    mapping(address => Voter) public voters;\n\tmapping(address => VoterDetails) voterdetails; \n\tmapping(uint => address) public voterList; //addresses of registered voters\n    mapping(uint => Candidate) public candidates;\n\t\n    uint public totalVoters = 0;\n\tuint public votedUsers = 0;\n    uint public totalCandidates = 0;\n\t\n\tbool public registerCands = true;\n\tbool public authorizeUsers;\n\tbool public startVote;\n\tbool public finishedVote;\n\tbool public voteOngoing;\n\t\n\tconstructor() public {\n        chairman = msg.sender;\n    }\n\n\t\n\tfunction voterAuth(string memory _voter) public returns (bool) {\n\t\trequire(msg.sender == chairman);\n\t\trequire(authorizeUsers);\n\t\taddress _voter_addr = parseAddr(_voter);\n\t\tif(voters[_voter_addr].isRegistered){\n\t\t\tvoters[_voter_addr].allowedToVote = true;\n\t\t}\n\t\treturn voters[_voter_addr].allowedToVote;\n    }\n\t\n\t//converts string memory address to solidity type address\n\tfunction parseAddr(string memory _a) internal pure returns (address _parsedAddress) {\n\t\tbytes memory tmp = bytes(_a);\n\t\tuint160 iaddr = 0;\n\t\tuint160 b1;\n\t\tuint160 b2;\n\t\tfor (uint i = 2; i < 2 + 2 * 20; i += 2) {\n\t\t\tiaddr *= 256;\n\t\t\tb1 = uint160(uint8(tmp[i]));\n\t\t\tb2 = uint160(uint8(tmp[i + 1]));\n\t\t\tif ((b1 >= 97) && (b1 <= 102)) {\n\t\t\t\tb1 -= 87;\n\t\t\t} else if ((b1 >= 65) && (b1 <= 70)) {\n\t\t\t\tb1 -= 55;\n\t\t\t} else if ((b1 >= 48) && (b1 <= 57)) {\n\t\t\t\tb1 -= 48;\n\t\t\t}\n\t\t\tif ((b2 >= 97) && (b2 <= 102)) {\n\t\t\t\tb2 -= 87;\n\t\t\t} else if ((b2 >= 65) && (b2 <= 70)) {\n\t\t\t\tb2 -= 55;\n\t\t\t} else if ((b2 >= 48) && (b2 <= 57)) {\n\t\t\t\tb2 -= 48;\n\t\t\t}\n\t\t\tiaddr += (b1 * 16 + b2);\n\t\t}\n\t\treturn address(iaddr);\n\t}\n\t\n\t\n\tfunction loginVoter(string memory _email, string memory _password) public returns (bool)\n    {\n\t\trequire(voters[msg.sender].isRegistered);\n        require (\n\t\t\tkeccak256(abi.encodePacked(voterdetails[msg.sender].email)) ==\n            keccak256(abi.encodePacked(_email))  &&\n            keccak256(abi.encodePacked(voterdetails[msg.sender].pass)) ==\n            keccak256(abi.encodePacked(_password))\n\t\t\t\n        );\n\t\t\n        voters[msg.sender].isLoggedIn = true;\n    }\n\t\n\tfunction registerVoter(string memory _email,string memory _password,string memory _idno) public returns (bool) {\n\t\trequire(!voters[msg.sender].isRegistered);\n\t\ttotalVoters+= 1;\n\t\tvoterList[totalVoters] = msg.sender;\n\t\tvoters[msg.sender].isRegistered = true;\n\t\tvoterdetails[msg.sender] = VoterDetails(_email,_password,_idno);\n        return true;\n    }\n\t\n\tfunction logout() public {\n\t\trequire(voters[msg.sender].isLoggedIn);\n        voters[msg.sender].isLoggedIn = false;\n    }\n\t\n\tfunction authorizingUsers() public {\n\t\trequire(msg.sender == chairman);\n\t\tauthorizeUsers = true;\n\t\tregisterCands = false;\n\t}\n\t\n\tfunction startVoting() public {\n\t\trequire(msg.sender == chairman);\n\t\tstartVote = true;\n\t\tvoteOngoing = true;\n\t\tauthorizeUsers = false;\n\t}\n\t\n\tfunction stopVoting() public {\n\t\trequire(msg.sender == chairman);\n\t\tfinishedVote = true;\n\t\tvoteOngoing = false;\n\t}\n\t\n\tevent votedEvent (\n        uint indexed _voteIndex\n    );\n    \n    function addCandidate(bytes32 _name) public {\n\t\trequire(msg.sender == chairman);\n\t\trequire(registerCands);\n        totalCandidates+= 1;\n        candidates[totalCandidates] = Candidate(totalCandidates,_name, 0);\n    }\n\t\n\n    function vote(uint _voteIndex) public {\n\t\trequire(startVote && !finishedVote);\n\t\trequire(!voters[msg.sender].hasVoted);\n\t\trequire(voters[msg.sender].allowedToVote);\n\t\trequire(_voteIndex > 0 && _voteIndex <= totalCandidates);\n\n        voters[msg.sender].vote = _voteIndex;\n        voters[msg.sender].hasVoted = true;\n        candidates[_voteIndex].totalVotes += 1;\n\t\tvotedUsers += 1;\n\t\temit votedEvent(_voteIndex);\n    }\n\n}\n",
  "sourcePath": "/home/aswanth/Desktop/projects/E-Votting/pre/contracts/eVote.sol",
  "compiler": {
    "name": "solc",
    "version": "0.5.16+commit.9c3226ce.Emscripten.clang"
  },
  "schemaVersion": "3.4.14",
  "updatedAt": "2023-06-26T17:32:03.925Z",
  "networkType": "ethereum",
  "devdoc": {
    "methods": {}
  },
  "userdoc": {
    "methods": {}
  }
}